{
  "contractName": "AZTECAccountRegistry",
  "abi": [
    {
      "constant": true,
      "inputs": [
        {
          "name": "",
          "type": "address"
        }
      ],
      "name": "accountMapping",
      "outputs": [
        {
          "name": "",
          "type": "bytes"
        }
      ],
      "payable": false,
      "stateMutability": "view",
      "type": "function"
    },
    {
      "constant": true,
      "inputs": [],
      "name": "EIP712_DOMAIN_HASH",
      "outputs": [
        {
          "name": "",
          "type": "bytes32"
        }
      ],
      "payable": false,
      "stateMutability": "view",
      "type": "function"
    },
    {
      "inputs": [
        {
          "name": "_chainId",
          "type": "uint256"
        }
      ],
      "payable": false,
      "stateMutability": "nonpayable",
      "type": "constructor"
    },
    {
      "anonymous": false,
      "inputs": [
        {
          "indexed": true,
          "name": "account",
          "type": "address"
        },
        {
          "indexed": false,
          "name": "linkedPublicKey",
          "type": "bytes"
        }
      ],
      "name": "RegisterExtension",
      "type": "event"
    },
    {
      "anonymous": false,
      "inputs": [
        {
          "indexed": false,
          "name": "account",
          "type": "address"
        }
      ],
      "name": "LogAddress",
      "type": "event"
    },
    {
      "anonymous": false,
      "inputs": [
        {
          "indexed": false,
          "name": "message",
          "type": "string"
        }
      ],
      "name": "LogString",
      "type": "event"
    },
    {
      "anonymous": false,
      "inputs": [
        {
          "indexed": false,
          "name": "sig",
          "type": "bytes32"
        }
      ],
      "name": "LogBytes",
      "type": "event"
    },
    {
      "constant": false,
      "inputs": [
        {
          "name": "_account",
          "type": "address"
        },
        {
          "name": "_linkedPublicKey",
          "type": "bytes"
        },
        {
          "name": "v",
          "type": "uint8"
        },
        {
          "name": "r",
          "type": "bytes32"
        },
        {
          "name": "s",
          "type": "bytes32"
        }
      ],
      "name": "registerAZTECExtension",
      "outputs": [],
      "payable": false,
      "stateMutability": "nonpayable",
      "type": "function"
    }
  ],
  "bytecode": "0x608060405260038054600160a060020a0319163317905534801561002257600080fd5b50604051602080610ad58339810180604052602081101561004257600080fd5b5051604080517f454950373132446f6d61696e28000000000000000000000000000000000000006020828101919091527f737472696e67206e616d652c0000000000000000000000000000000000000000602d8301527f737472696e672076657273696f6e2c000000000000000000000000000000000060398301527f6164647265737320766572696679696e67436f6e74726163740000000000000060488301527f29000000000000000000000000000000000000000000000000000000000000006061830152825160428184030181526062830180855281519183019190912060a28401855260199091527f415a5445435f43525950544f4752415048595f454e47494e450000000000000060829093019290925282518084018452600181527f3100000000000000000000000000000000000000000000000000000000000000908201528251808201929092527fc8066e2c715ce196630b273cd256d8959d5b9fefc55e9e6d999fb0f08bb7f75f828401527fc89efdaa54c0f20c7adf612882df0950f5a951637e0307cdcb4c672f298b8bc66060830152306080808401919091528351808403909101815260a090920190925280519101206000556002556108c2806102136000396000f3fe608060405234801561001057600080fd5b50600436106100415760003560e01c8063e0b28d2214610046578063e306f779146100ee578063ffa11cc314610108575b600080fd5b6100796004803603602081101561005c57600080fd5b503573ffffffffffffffffffffffffffffffffffffffff166101db565b6040805160208082528351818301528351919283929083019185019080838360005b838110156100b357818101518382015260200161009b565b50505050905090810190601f1680156100e05780820380516001836020036101000a031916815260200191505b509250505060405180910390f35b6100f6610275565b60408051918252519081900360200190f35b6101d9600480360360a081101561011e57600080fd5b73ffffffffffffffffffffffffffffffffffffffff823516919081019060408101602082013564010000000081111561015657600080fd5b82018360208201111561016857600080fd5b8035906020019184600183028401116401000000008311171561018a57600080fd5b91908080601f0160208091040260200160405190810160405280939291908181526020018383808284376000920191909152509295505060ff833516935050506020810135906040013561027b565b005b60016020818152600092835260409283902080548451600294821615610100026000190190911693909304601f810183900483028401830190945283835291929083018282801561026d5780601f106102425761010080835404028352916020019161026d565b820191906000526020600020905b81548152906001019060200180831161025057829003601f168201915b505050505081565b60005481565b6040805130815290517fb123f68b8ba02b447d91a6629e121111b7dd6061ff418a60139c8bf00522a2849181900360200190a1600060016102e560408051908101604052808973ffffffffffffffffffffffffffffffffffffffff1681526020018881525061050a565b85858560405160008152602001604052604051808581526020018460ff1660ff1681526020018381526020018281526020019450505050506020604051602081039080840390855afa15801561033f573d6000803e3d6000fd5b505060408051601f1981015173ffffffffffffffffffffffffffffffffffffffff8116825291519193507fb123f68b8ba02b447d91a6629e121111b7dd6061ff418a60139c8bf00522a284925081900360200190a173ffffffffffffffffffffffffffffffffffffffff8681169082161461041b57604080517f08c379a000000000000000000000000000000000000000000000000000000000815260206004820152601a60248201527f7369676e6572206d75737420626520746865206163636f756e74000000000000604482015290519081900360640190fd5b73ffffffffffffffffffffffffffffffffffffffff86166000908152600160209081526040909120865161045192880190610779565b508573ffffffffffffffffffffffffffffffffffffffff167faa42f7e719e0ed2fa2458c14793c82d134a946168ca9529a56be2b5c6925bca1866040518080602001828103825283818151815260200191508051906020019080838360005b838110156104c85781810151838201526020016104b0565b50505050905090810190601f1680156104f55780820380516001836020036101000a031916815260200191505b509250505060405180910390a2505050505050565b600080608060405190810160405280604f8152602001610815604f91396040516020018082805190602001908083835b602083106105595780518252601f19909201916020918201910161053a565b51815160001960209485036101000a0190811690199190911617905260408051601f19959093018381039590950183528481528251928201929092207f415a5445434163636f756e745265676973747279000000000000000000000000855282519485900360140185207f320000000000000000000000000000000000000000000000000000000000000086528351958690036001018620868401929092528584015260608501523060808501527ff2d857f4a3edcb9b78b4d503bfe733db1e3f6cdc2b7971ee739626c97e86a55860a0808601919091528251808603909101815260c085018084528151919092012061012085019092526033808252919650869550935091610864915060e001396040516020018082805190602001908083835b6020831061069a5780518252601f19909201916020918201910161067b565b51815160209384036101000a60001901801990921691161790526040805192909401828103601f190183528085528251928201929092208a519a8201518051908301208383019190915273ffffffffffffffffffffffffffffffffffffffff909a168285015260608083019a909a528351808303909a018a526080820184528951998101999099207f190100000000000000000000000000000000000000000000000000000000000060a083015260a282019690965260c2808201969096528251808203909601865260e2019091525050815191909401209392505050565b828054600181600116156101000203166002900490600052602060002090601f016020900481019282601f106107ba57805160ff19168380011785556107e7565b828001600101855582156107e7579182015b828111156107e75782518255916020019190600101906107cc565b506107f39291506107f7565b5090565b61081191905b808211156107f357600081556001016107fd565b9056fe454950373132446f6d61696e28737472696e67206e616d652c737472696e672076657273696f6e2c6164647265737320766572696679696e67436f6e74726163742c627974657333322073616c7429415a5445434163636f756e742861646472657373206163636f756e742c6279746573206c696e6b65645075626c69634b657929a165627a7a72305820d5982afe6c383550b8a6038841b5a714ef39a77e39a8a132b20d2f4394e80bd50029",
  "source": "pragma solidity >=0.5.0 <0.6.0;\n\nimport \"@aztec/protocol/contracts/libs/LibEIP712.sol\";\n\n/**\n * @title AZTECAccountRegistry implementation\n * @author AZTEC\n * Copyright Spilbury Holdings Ltd 2019. All rights reserved.\n **/\n\ncontract AZTECAccountRegistry is LibEIP712 {\n\n    mapping(address => bytes) public accountMapping;\n\n\n    struct AZTECAccount {\n        address account;\n        bytes linkedPublicKey;\n    }\n\n    string private constant EIP712_DOMAIN  = \"EIP712Domain(string name,string version,address verifyingContract,bytes32 salt)\";\n    string private constant SIGNATURE_TYPE = \"AZTECAccount(address account,bytes linkedPublicKey)\";\n\n    bytes32 private constant EIP712_DOMAIN_TYPEHASH = keccak256(abi.encodePacked(EIP712_DOMAIN));\n    bytes32 private constant SIGNATURE_TYPEHASH = keccak256(abi.encodePacked(SIGNATURE_TYPE));\n\n    uint chainId;\n    address owner = msg.sender;\n\n    modifier onlyOwner() {\n        // require(msg.sender == owner);\n        _;\n    }\n\n    constructor (uint _chainId) public {\n        chainId = _chainId;\n    }\n\n    function hashAZTECAccount(AZTECAccount memory _AZTECAccount) internal view returns (bytes32){\n        bytes32 DOMAIN_SEPARATOR = keccak256(abi.encode(\n            EIP712_DOMAIN_TYPEHASH,\n            keccak256(\"AZTECAccountRegistry\"),\n            keccak256(\"2\"),\n            address(this),\n            0xf2d857f4a3edcb9b78b4d503bfe733db1e3f6cdc2b7971ee739626c97e86a558\n        ));\n            return keccak256(abi.encodePacked(\n                \"\\x19\\x01\",\n                DOMAIN_SEPARATOR,\n                keccak256(abi.encode(\n                    SIGNATURE_TYPEHASH,\n                    _AZTECAccount.account,\n                    keccak256(bytes(_AZTECAccount.linkedPublicKey)\n            )))));\n    }\n\n\n    event RegisterExtension(\n        address indexed account,\n        bytes linkedPublicKey\n    );\n\n    event LogAddress(\n        address account\n    );\n    event LogString(\n        string message\n    );\n\n    event LogBytes(\n        bytes32 sig\n    );\n\n    /**\n        * @dev function to validate the user is either the sender or has submitted an EIP712 signature from the account they\n        * are registering in the AZTEC extension.\n    **/\n\n\n    /**\n     * @dev Registers a specific public key pair to an ethereum address if a valid signature is provided or the\n     * sender is the ethereum address in question        *\n     * @param _account - address the address to which a public key is being         registered\n     * @param _linkedPublicKey - the public key the sender wishes to link to the _account\n     */\n\n    function registerAZTECExtension(\n        address _account,\n        bytes memory _linkedPublicKey,\n        uint8 v,\n        bytes32 r,\n        bytes32 s\n        // bytes memory _signature\n    ) public {\n        emit LogAddress(address(this));\n            // valid EIP712 signature\n        address signer = ecrecover(\n            hashAZTECAccount(AZTECAccount(_account, _linkedPublicKey)),\n            v,r,s\n        );\n        emit LogAddress(signer);\n        require(_account == signer, 'signer must be the account');\n        accountMapping[_account] = _linkedPublicKey;\n        // emit event for the graph\n        emit RegisterExtension(_account, _linkedPublicKey);\n    }\n\n}\n",
  "sourcePath": "/Users/joeandrews/Documents/Code/eth-india-starter-kit/graph/contracts/AZTECAccountRegistry.sol",
  "compiler": {
    "name": "solc",
    "version": "0.5.4+commit.9549d8ff.Emscripten.clang"
  },
  "schemaVersion": "3.0.11",
  "updatedAt": "2019-08-02T10:33:31.097Z",
  "devdoc": {
    "author": "AZTEC Copyright Spilbury Holdings Ltd 2019. All rights reserved.*",
    "methods": {
      "registerAZTECExtension(address,bytes,uint8,bytes32,bytes32)": {
        "details": "Registers a specific public key pair to an ethereum address if a valid signature is provided or the sender is the ethereum address in question        *",
        "params": {
          "_account": "- address the address to which a public key is being         registered",
          "_linkedPublicKey": "- the public key the sender wishes to link to the _account"
        }
      }
    },
    "title": "AZTECAccountRegistry implementation"
  },
  "userdoc": {
    "methods": {}
  }
}