{
  "contractName": "BehaviourAdjustable201907",
  "abi": [
    {
      "constant": true,
      "inputs": [],
      "name": "JOIN_SPLIT_PROOF",
      "outputs": [
        {
          "name": "",
          "type": "uint24"
        }
      ],
      "payable": false,
      "stateMutability": "view",
      "type": "function"
    },
    {
      "constant": true,
      "inputs": [],
      "name": "dataLocation",
      "outputs": [
        {
          "name": "",
          "type": "address"
        }
      ],
      "payable": false,
      "stateMutability": "view",
      "type": "function"
    },
    {
      "constant": true,
      "inputs": [],
      "name": "initialised",
      "outputs": [
        {
          "name": "",
          "type": "bool"
        }
      ],
      "payable": false,
      "stateMutability": "view",
      "type": "function"
    },
    {
      "constant": true,
      "inputs": [],
      "name": "ZERO_VALUE_NOTE_HASH",
      "outputs": [
        {
          "name": "",
          "type": "bytes32"
        }
      ],
      "payable": false,
      "stateMutability": "view",
      "type": "function"
    },
    {
      "constant": true,
      "inputs": [],
      "name": "PUBLIC_RANGE_PROOF",
      "outputs": [
        {
          "name": "",
          "type": "uint24"
        }
      ],
      "payable": false,
      "stateMutability": "view",
      "type": "function"
    },
    {
      "constant": false,
      "inputs": [
        {
          "name": "_proof",
          "type": "uint24"
        },
        {
          "name": "_proofOutput",
          "type": "bytes"
        }
      ],
      "name": "updateNoteRegistry",
      "outputs": [
        {
          "name": "publicOwner",
          "type": "address"
        },
        {
          "name": "transferValue",
          "type": "uint256"
        },
        {
          "name": "publicValue",
          "type": "int256"
        }
      ],
      "payable": false,
      "stateMutability": "nonpayable",
      "type": "function"
    },
    {
      "constant": true,
      "inputs": [],
      "name": "PRIVATE_RANGE_PROOF",
      "outputs": [
        {
          "name": "",
          "type": "uint24"
        }
      ],
      "payable": false,
      "stateMutability": "view",
      "type": "function"
    },
    {
      "constant": true,
      "inputs": [],
      "name": "getRegistry",
      "outputs": [
        {
          "name": "scalingFactor",
          "type": "uint256"
        },
        {
          "name": "confidentialTotalMinted",
          "type": "bytes32"
        },
        {
          "name": "confidentialTotalBurned",
          "type": "bytes32"
        },
        {
          "name": "canConvert",
          "type": "bool"
        },
        {
          "name": "canAdjustSupply",
          "type": "bool"
        }
      ],
      "payable": false,
      "stateMutability": "view",
      "type": "function"
    },
    {
      "constant": false,
      "inputs": [],
      "name": "renounceOwnership",
      "outputs": [],
      "payable": false,
      "stateMutability": "nonpayable",
      "type": "function"
    },
    {
      "constant": true,
      "inputs": [],
      "name": "registry",
      "outputs": [
        {
          "name": "active",
          "type": "bool"
        },
        {
          "name": "scalingFactor",
          "type": "uint256"
        },
        {
          "name": "confidentialTotalMinted",
          "type": "bytes32"
        },
        {
          "name": "confidentialTotalBurned",
          "type": "bytes32"
        },
        {
          "name": "canConvert",
          "type": "bool"
        },
        {
          "name": "canAdjustSupply",
          "type": "bool"
        }
      ],
      "payable": false,
      "stateMutability": "view",
      "type": "function"
    },
    {
      "constant": true,
      "inputs": [],
      "name": "DIVIDEND_PROOF",
      "outputs": [
        {
          "name": "",
          "type": "uint24"
        }
      ],
      "payable": false,
      "stateMutability": "view",
      "type": "function"
    },
    {
      "constant": true,
      "inputs": [],
      "name": "isActiveBehaviour",
      "outputs": [
        {
          "name": "",
          "type": "bool"
        }
      ],
      "payable": false,
      "stateMutability": "view",
      "type": "function"
    },
    {
      "constant": true,
      "inputs": [],
      "name": "owner",
      "outputs": [
        {
          "name": "",
          "type": "address"
        }
      ],
      "payable": false,
      "stateMutability": "view",
      "type": "function"
    },
    {
      "constant": true,
      "inputs": [],
      "name": "MINT_PROOF",
      "outputs": [
        {
          "name": "",
          "type": "uint24"
        }
      ],
      "payable": false,
      "stateMutability": "view",
      "type": "function"
    },
    {
      "constant": true,
      "inputs": [],
      "name": "isOwner",
      "outputs": [
        {
          "name": "",
          "type": "bool"
        }
      ],
      "payable": false,
      "stateMutability": "view",
      "type": "function"
    },
    {
      "constant": true,
      "inputs": [
        {
          "name": "_noteHash",
          "type": "bytes32"
        }
      ],
      "name": "getNote",
      "outputs": [
        {
          "name": "status",
          "type": "uint8"
        },
        {
          "name": "createdOn",
          "type": "uint40"
        },
        {
          "name": "destroyedOn",
          "type": "uint40"
        },
        {
          "name": "noteOwner",
          "type": "address"
        }
      ],
      "payable": false,
      "stateMutability": "view",
      "type": "function"
    },
    {
      "constant": false,
      "inputs": [
        {
          "name": "_newOwner",
          "type": "address"
        },
        {
          "name": "_scalingFactor",
          "type": "uint256"
        },
        {
          "name": "_canAdjustSupply",
          "type": "bool"
        },
        {
          "name": "_canConvert",
          "type": "bool"
        }
      ],
      "name": "initialise",
      "outputs": [],
      "payable": false,
      "stateMutability": "nonpayable",
      "type": "function"
    },
    {
      "constant": true,
      "inputs": [],
      "name": "BURN_PROOF",
      "outputs": [
        {
          "name": "",
          "type": "uint24"
        }
      ],
      "payable": false,
      "stateMutability": "view",
      "type": "function"
    },
    {
      "constant": false,
      "inputs": [
        {
          "name": "newOwner",
          "type": "address"
        }
      ],
      "name": "transferOwnership",
      "outputs": [],
      "payable": false,
      "stateMutability": "nonpayable",
      "type": "function"
    },
    {
      "inputs": [],
      "payable": false,
      "stateMutability": "nonpayable",
      "type": "constructor"
    },
    {
      "anonymous": false,
      "inputs": [
        {
          "indexed": true,
          "name": "previousOwner",
          "type": "address"
        },
        {
          "indexed": true,
          "name": "newOwner",
          "type": "address"
        }
      ],
      "name": "OwnershipTransferred",
      "type": "event"
    },
    {
      "constant": false,
      "inputs": [
        {
          "name": "_proofOutputs",
          "type": "bytes"
        }
      ],
      "name": "burn",
      "outputs": [],
      "payable": false,
      "stateMutability": "nonpayable",
      "type": "function"
    },
    {
      "constant": false,
      "inputs": [
        {
          "name": "_proofOutputs",
          "type": "bytes"
        }
      ],
      "name": "mint",
      "outputs": [],
      "payable": false,
      "stateMutability": "nonpayable",
      "type": "function"
    }
  ],
  "bytecode": "0x608060405234801561001057600080fd5b5060008054600160a060020a0319163317808255604051600160a060020a039190911691907f8be0079c531659141344cd1fd0a4f28419497f9722a3daafe3b4186f6b6457e0908290a36000805460a060020a60ff0219167401000000000000000000000000000000000000000017905561150e806100906000396000f3fe608060405234801561001057600080fd5b50600436106101465760003560e01c80637b103999116100c85780638e526d9b1161008c578063ce88434311610066578063ce88434314610492578063df924625146104ce578063f2fde38b146104d657610146565b80638e526d9b146104295780638f32d59b1461043157806398df3d001461043957610146565b80637b103999146103605780637ba0e2e7146103a15780638500e1f81461041157806385c418f3146104195780638da5cb5b1461042157610146565b80632a07b6c71161010f5780632a07b6c7146101cd578063386612381461023f57806349518b28146103195780635ab1bd5314610321578063715018a61461035857610146565b80625bf7321461014b57806303e012e31461016b57806307003bb41461018f57806307616051146101ab57806308ae900a146101c5575b600080fd5b6101536104fc565b6040805162ffffff9092168252519081900360200190f35b610173610503565b60408051600160a060020a039092168252519081900360200190f35b610197610512565b604080519115158252519081900360200190f35b6101b3610534565b60408051918252519081900360200190f35b610153610558565b61023d600480360360208110156101e357600080fd5b8101906020810181356401000000008111156101fe57600080fd5b82018360208201111561021057600080fd5b8035906020019184600183028401116401000000008311171561023257600080fd5b50909250905061055f565b005b6102f16004803603604081101561025557600080fd5b62ffffff823516919081019060408101602082013564010000000081111561027c57600080fd5b82018360208201111561028e57600080fd5b803590602001918460018302840111640100000000831117156102b057600080fd5b91908080601f01602080910402602001604051908101604052809392919081815260200183838082843760009201919091525092955061075b945050505050565b60408051600160a060020a039094168452602084019290925282820152519081900360600190f35b6101536108b4565b6103296108bb565b604080519586526020860194909452848401929092521515606084015215156080830152519081900360a00190f35b61023d61094d565b6103686109f0565b604080519615158752602087019590955285850193909352606085019190915215156080840152151560a0830152519081900360c00190f35b61023d600480360360208110156103b757600080fd5b8101906020810181356401000000008111156103d257600080fd5b8201836020820111156103e457600080fd5b8035906020019184600183028401116401000000008311171561040657600080fd5b509092509050610a12565b610153610bfb565b610197610c02565b610173610c23565b610153610c32565b610197610c39565b6104566004803603602081101561044f57600080fd5b5035610c4a565b6040805160ff909516855264ffffffffff93841660208601529190921683820152600160a060020a039091166060830152519081900360800190f35b61023d600480360360808110156104a857600080fd5b50600160a060020a03813516906020810135906040810135151590606001351515610cfa565b610153610e68565b61023d600480360360208110156104ec57600080fd5b5035600160a060020a0316610e6f565b6201010181565b600154600160a060020a031681565b6000547501000000000000000000000000000000000000000000900460ff1681565b7fcbc417524e52b95c42a4c42d357938497e3d199eb9b4a0139c92551d4000bc3c81565b6201040381565b610567610c39565b15156105ab576040805160e560020a62461bcd02815260206004820181905260248201526000805160206114a1833981519152604482015290519081900360640190fd5b60065460ff610100909104161515600114610610576040805160e560020a62461bcd02815260206004820152601a60248201527f74686973206173736574206973206e6f74206275726e61626c65000000000000604482015290519081900360640190fd5b606080610665610660600086868080601f016020809104026020016040519081016040528093929190818152602001838380828437600092019190915250929392505063ffffffff610ec7169050565b610f21565b50509150915060606106ba610660600187878080601f016020809104026020016040519081016040528093929190818152602001838380828437600092019190915250929392505063ffffffff610ec7169050565b505091505060006106dd6106d8600086610ec790919063ffffffff16565b610f4b565b50600554909250821490506107265760405160e560020a62461bcd0281526004018080602001828103825260298152602001806113d16029913960400191505060405180910390fd5b600061073b6106d8858363ffffffff610ec716565b5091505061074881610f69565b5061075283610fc0565b50505050505050565b6000806000610768610c39565b15156107ac576040805160e560020a62461bcd02815260206004820181905260248201526000805160206114a1833981519152604482015290519081900360640190fd5b60025460ff1615156001146107f55760405160e560020a62461bcd0281526004018080602001828103825260328152602001806114266032913960400191505060405180910390fd5b60608061080186610f21565b9097509450909250905061081482610fc0565b61081d8161100c565b82156108ab5760065460ff16151560011461086c5760405160e560020a62461bcd02815260040180806020018281038252602c8152602001806113fa602c913960400191505060405180910390fd5b60008312156108945760035461088d9060008590039063ffffffff61109e16565b93506108ab565b6003546108a890849063ffffffff61109e16565b93505b50509250925092565b6201040281565b600254600090819081908190819060ff161515600114610925576040805160e560020a62461bcd02815260206004820152601f60248201527f657870656374656420726567697374727920746f206265206372656174656400604482015290519081900360640190fd5b50506003546004546005546006549296919550935060ff808316935061010090920490911690565b610955610c39565b1515610999576040805160e560020a62461bcd02815260206004820181905260248201526000805160206114a1833981519152604482015290519081900360640190fd5b60008054604051600160a060020a03909116907f8be0079c531659141344cd1fd0a4f28419497f9722a3daafe3b4186f6b6457e0908390a36000805473ffffffffffffffffffffffffffffffffffffffff19169055565b60025460035460045460055460065460ff948516948181169161010090041686565b610a1a610c39565b1515610a5e576040805160e560020a62461bcd02815260206004820181905260248201526000805160206114a1833981519152604482015290519081900360640190fd5b60065460ff610100909104161515600114610ac3576040805160e560020a62461bcd02815260206004820152601a60248201527f74686973206173736574206973206e6f74206d696e7461626c65000000000000604482015290519081900360640190fd5b606080610b13610660600086868080601f016020809104026020016040519081016040528093929190818152602001838380828437600092019190915250929392505063ffffffff610ec7169050565b5050915091506060610b68610660600187878080601f016020809104026020016040519081016040528093929190818152602001838380828437600092019190915250929392505063ffffffff610ec7169050565b50509150506000610b866106d8600086610ec790919063ffffffff16565b5060045490925082149050610bcf5760405160e560020a62461bcd0281526004018080602001828103825260298152602001806113d16029913960400191505060405180910390fd5b6000610be46106d8858363ffffffff610ec716565b50915050610bf181611107565b506107528361100c565b6201040181565b60005474010000000000000000000000000000000000000000900460ff1681565b600054600160a060020a031690565b6201020181565b600054600160a060020a0316331490565b60008181526007602052604081205481908190819060ff161515610cb8576040805160e560020a62461bcd02815260206004820152601660248201527f6578706563746564206e6f746520746f20657869737400000000000000000000604482015290519081900360640190fd5b5050506000918252506007602052604090205460ff811691600882901c64ffffffffff90811692603081901c9091169160589190911c600160a060020a031690565b6000547501000000000000000000000000000000000000000000900460ff16151560011415610d73576040805160e560020a62461bcd02815260206004820152601c60248201527f726567697374727920616c726561647920696e697469616c6973656400000000604482015290519081900360640190fd5b610d7c8461115e565b600180543373ffffffffffffffffffffffffffffffffffffffff199091161781556040805160c081018252828152602081018690527fcbc417524e52b95c42a4c42d357938497e3d199eb9b4a0139c92551d4000bc3c918101829052606081018290529215156080840181905293151560a09093018390526002805460ff19908116909317905560039490945560048490556005939093556006805490931690911761ff0019166101009091021790555060008054750100000000000000000000000000000000000000000075ff00000000000000000000000000000000000000000019909116179055565b6201030181565b610e77610c39565b1515610ebb576040805160e560020a62461bcd02815260206004820181905260248201526000805160206114a1833981519152604482015290519081900360640190fd5b610ec48161115e565b50565b602082810151908202830160400151830190821080610f1a5760405160e560020a62461bcd0281526004018080602001828103825260228152602001806114c16022913960400191505060405180910390fd5b5092915050565b6020810151604082015160608301516080840151928401949190930192600160a060020a03169190565b60408101516060820151600160a060020a0390911692909160800190565b6000610f73610c39565b1515610fb7576040805160e560020a62461bcd02815260206004820181905260248201526000805160206114a1833981519152604482015290519081900360640190fd5b50600581905590565b6000610fcb82611210565b905060005b8181101561100757600080610fee6106d8868563ffffffff610ec716565b5091509150610ffd8183611217565b5050600101610fd0565b505050565b600061101782611210565b905060005b818110156110075760008061103a6106d8868563ffffffff610ec716565b509092509050600160a060020a038216151561108a5760405160e560020a62461bcd0281526004018080602001828103825260288152602001806114796028913960400191505060405180910390fd5b611094818361131f565b505060010161101c565b60008215156110af57506000611101565b8282028284828115156110be57fe5b04146110fe5760405160e560020a62461bcd0281526004018080602001828103825260218152602001806114586021913960400191505060405180910390fd5b90505b92915050565b6000611111610c39565b1515611155576040805160e560020a62461bcd02815260206004820181905260248201526000805160206114a1833981519152604482015290519081900360640190fd5b50600481905590565b600160a060020a03811615156111a85760405160e560020a62461bcd0281526004018080602001828103825260268152602001806113ab6026913960400191505060405180910390fd5b60008054604051600160a060020a03808516939216917f8be0079c531659141344cd1fd0a4f28419497f9722a3daafe3b4186f6b6457e091a36000805473ffffffffffffffffffffffffffffffffffffffff1916600160a060020a0392909216919091179055565b6020015190565b600082815260076020526040902080546affffffffff0000000000ff1981164264ffffffffff1660301b17600290811783559160ff82169160581c600160a060020a031690600183146112b4576040805160e560020a62461bcd02815260206004820181905260248201527f696e707574206e6f746520737461747573206973206e6f7420554e5350454e54604482015290519081900360640190fd5b600160a060020a0382811690861614611317576040805160e560020a62461bcd02815260206004820152601f60248201527f696e707574206e6f7465206f776e657220646f6573206e6f74206d6174636800604482015290519081900360640190fd5b505050505050565b6000828152600760205260409020805460014264ffffffffff1660081b605885901b17811783559160ff9091169081156113a3576040805160e560020a62461bcd02815260206004820152601260248201527f6f7574707574206e6f7465206578697374730000000000000000000000000000604482015290519081900360640190fd5b505050505056fe4f776e61626c653a206e6577206f776e657220697320746865207a65726f206164647265737370726f766964656420746f74616c206275726e6564206e6f746520646f6573206e6f74206d6174636861737365742063616e6e6f7420626520636f6e76657274656420696e746f207075626c696320746f6b656e736e6f746520726567697374727920646f6573206e6f7420657869737420666f722074686520676976656e2061646472657373536166654d6174683a206d756c7469706c69636174696f6e206f766572666c6f776f7574707574206e6f7465206f776e65722063616e6e6f74206265206164647265737328307830294f776e61626c653a2063616c6c6572206973206e6f7420746865206f776e6572415a54454320617272617920696e646578206973206f7574206f6620626f756e6473a165627a7a72305820819090985a1569f68cff66c9f24c06b313e090305293f4372199826bc4c966e10029",
  "source": "pragma solidity >=0.5.0 <0.6.0;\n\nimport \"../../../../../interfaces/IAZTEC.sol\";\nimport \"../../../../../libs/NoteUtils.sol\";\nimport \"../Behaviour201907.sol\";\n\n/**\n * @title BehaviourAdjustable201907\n * @author AZTEC\n * @dev This contract extends Behaviour201907, to add methods which enable minting/burning.\n        Methods are documented in interface.\n *\n * Copyright Spilsbury Holdings Ltd 2019. All rights reserved.\n **/\ncontract BehaviourAdjustable201907 is Behaviour201907 {\n    constructor () Behaviour201907() public {}\n\n    function burn(bytes calldata _proofOutputs) external onlyOwner {\n        require(registry.canAdjustSupply == true, \"this asset is not burnable\");\n        // Dealing with notes representing totals\n        (bytes memory oldTotal, // input notes\n        bytes memory newTotal, // output notes\n        ,\n        ) = _proofOutputs.get(0).extractProofOutput();\n\n        // Dealing with burned notes\n        (,\n        bytes memory burnedNotes,\n        ,) = _proofOutputs.get(1).extractProofOutput();\n\n        (, bytes32 oldTotalNoteHash, ) = oldTotal.get(0).extractNote();\n        require(oldTotalNoteHash == registry.confidentialTotalBurned, \"provided total burned note does not match\");\n        (, bytes32 newTotalNoteHash, ) = newTotal.get(0).extractNote();\n        setConfidentialTotalBurned(newTotalNoteHash);\n\n        // Although they are outputNotes, they are due to be destroyed - need removing from the note registry\n        updateInputNotes(burnedNotes);\n    }\n\n    function mint(bytes calldata _proofOutputs) external onlyOwner {\n        require(registry.canAdjustSupply == true, \"this asset is not mintable\");\n        // Dealing with notes representing totals\n        (bytes memory oldTotal, // input notes\n        bytes memory newTotal, // output notes\n        ,\n        ) = _proofOutputs.get(0).extractProofOutput();\n\n        // Dealing with burned notes\n        (,\n        bytes memory mintedNotes,\n        ,) = _proofOutputs.get(1).extractProofOutput();\n\n        (, bytes32 oldTotalNoteHash, ) = oldTotal.get(0).extractNote();\n        require(oldTotalNoteHash == registry.confidentialTotalMinted, \"provided total burned note does not match\");\n        (, bytes32 newTotalNoteHash, ) = newTotal.get(0).extractNote();\n        setConfidentialTotalMinted(newTotalNoteHash);\n\n        updateOutputNotes(mintedNotes);\n    }\n\n    function setConfidentialTotalMinted(bytes32 newTotalNoteHash) internal onlyOwner returns (bytes32) {\n        registry.confidentialTotalMinted = newTotalNoteHash;\n        return newTotalNoteHash;\n    }\n\n    function setConfidentialTotalBurned(bytes32 newTotalNoteHash) internal onlyOwner returns (bytes32) {\n        registry.confidentialTotalBurned = newTotalNoteHash;\n        return newTotalNoteHash;\n    }\n}\n",
  "sourcePath": "@aztec/protocol/contracts/ACE/noteRegistry/epochs/201907/adjustable/BehaviourAdjustable201907.sol",
  "compiler": {
    "name": "solc",
    "version": "0.5.4+commit.9549d8ff.Emscripten.clang"
  },
  "schemaVersion": "3.0.11",
  "updatedAt": "2019-09-06T17:17:03.132Z",
  "devdoc": {
    "author": "AZTEC",
    "details": "This contract extends Behaviour201907, to add methods which enable minting/burning. Methods are documented in interface. * Copyright Spilsbury Holdings Ltd 2019. All rights reserved.*",
    "methods": {
      "isOwner()": {
        "details": "Returns true if the caller is the current owner."
      },
      "owner()": {
        "details": "Returns the address of the current owner."
      },
      "renounceOwnership()": {
        "details": "Leaves the contract without owner. It will not be possible to call `onlyOwner` functions anymore. Can only be called by the current owner.     * > Note: Renouncing ownership will leave the contract without an owner, thereby removing any functionality that is only available to the owner."
      },
      "transferOwnership(address)": {
        "details": "Transfers ownership of the contract to a new account (`newOwner`). Can only be called by the current owner."
      }
    },
    "title": "BehaviourAdjustable201907"
  },
  "userdoc": {
    "methods": {}
  }
}