{
  "contractName": "BehaviourBase201907",
  "abi": [
    {
      "constant": true,
      "inputs": [],
      "name": "JOIN_SPLIT_PROOF",
      "outputs": [
        {
          "name": "",
          "type": "uint24"
        }
      ],
      "payable": false,
      "stateMutability": "view",
      "type": "function"
    },
    {
      "constant": true,
      "inputs": [],
      "name": "dataLocation",
      "outputs": [
        {
          "name": "",
          "type": "address"
        }
      ],
      "payable": false,
      "stateMutability": "view",
      "type": "function"
    },
    {
      "constant": true,
      "inputs": [],
      "name": "initialised",
      "outputs": [
        {
          "name": "",
          "type": "bool"
        }
      ],
      "payable": false,
      "stateMutability": "view",
      "type": "function"
    },
    {
      "constant": true,
      "inputs": [],
      "name": "ZERO_VALUE_NOTE_HASH",
      "outputs": [
        {
          "name": "",
          "type": "bytes32"
        }
      ],
      "payable": false,
      "stateMutability": "view",
      "type": "function"
    },
    {
      "constant": true,
      "inputs": [],
      "name": "PUBLIC_RANGE_PROOF",
      "outputs": [
        {
          "name": "",
          "type": "uint24"
        }
      ],
      "payable": false,
      "stateMutability": "view",
      "type": "function"
    },
    {
      "constant": false,
      "inputs": [
        {
          "name": "",
          "type": "bytes"
        }
      ],
      "name": "burn",
      "outputs": [],
      "payable": false,
      "stateMutability": "nonpayable",
      "type": "function"
    },
    {
      "constant": false,
      "inputs": [
        {
          "name": "_proof",
          "type": "uint24"
        },
        {
          "name": "_proofOutput",
          "type": "bytes"
        }
      ],
      "name": "updateNoteRegistry",
      "outputs": [
        {
          "name": "publicOwner",
          "type": "address"
        },
        {
          "name": "transferValue",
          "type": "uint256"
        },
        {
          "name": "publicValue",
          "type": "int256"
        }
      ],
      "payable": false,
      "stateMutability": "nonpayable",
      "type": "function"
    },
    {
      "constant": true,
      "inputs": [],
      "name": "PRIVATE_RANGE_PROOF",
      "outputs": [
        {
          "name": "",
          "type": "uint24"
        }
      ],
      "payable": false,
      "stateMutability": "view",
      "type": "function"
    },
    {
      "constant": true,
      "inputs": [],
      "name": "getRegistry",
      "outputs": [
        {
          "name": "scalingFactor",
          "type": "uint256"
        },
        {
          "name": "confidentialTotalMinted",
          "type": "bytes32"
        },
        {
          "name": "confidentialTotalBurned",
          "type": "bytes32"
        },
        {
          "name": "canConvert",
          "type": "bool"
        },
        {
          "name": "canAdjustSupply",
          "type": "bool"
        }
      ],
      "payable": false,
      "stateMutability": "view",
      "type": "function"
    },
    {
      "constant": false,
      "inputs": [],
      "name": "renounceOwnership",
      "outputs": [],
      "payable": false,
      "stateMutability": "nonpayable",
      "type": "function"
    },
    {
      "constant": true,
      "inputs": [],
      "name": "registry",
      "outputs": [
        {
          "name": "active",
          "type": "bool"
        },
        {
          "name": "scalingFactor",
          "type": "uint256"
        },
        {
          "name": "confidentialTotalMinted",
          "type": "bytes32"
        },
        {
          "name": "confidentialTotalBurned",
          "type": "bytes32"
        },
        {
          "name": "canConvert",
          "type": "bool"
        },
        {
          "name": "canAdjustSupply",
          "type": "bool"
        }
      ],
      "payable": false,
      "stateMutability": "view",
      "type": "function"
    },
    {
      "constant": false,
      "inputs": [
        {
          "name": "",
          "type": "bytes"
        }
      ],
      "name": "mint",
      "outputs": [],
      "payable": false,
      "stateMutability": "nonpayable",
      "type": "function"
    },
    {
      "constant": true,
      "inputs": [],
      "name": "DIVIDEND_PROOF",
      "outputs": [
        {
          "name": "",
          "type": "uint24"
        }
      ],
      "payable": false,
      "stateMutability": "view",
      "type": "function"
    },
    {
      "constant": true,
      "inputs": [],
      "name": "isActiveBehaviour",
      "outputs": [
        {
          "name": "",
          "type": "bool"
        }
      ],
      "payable": false,
      "stateMutability": "view",
      "type": "function"
    },
    {
      "constant": true,
      "inputs": [],
      "name": "owner",
      "outputs": [
        {
          "name": "",
          "type": "address"
        }
      ],
      "payable": false,
      "stateMutability": "view",
      "type": "function"
    },
    {
      "constant": true,
      "inputs": [],
      "name": "MINT_PROOF",
      "outputs": [
        {
          "name": "",
          "type": "uint24"
        }
      ],
      "payable": false,
      "stateMutability": "view",
      "type": "function"
    },
    {
      "constant": true,
      "inputs": [],
      "name": "isOwner",
      "outputs": [
        {
          "name": "",
          "type": "bool"
        }
      ],
      "payable": false,
      "stateMutability": "view",
      "type": "function"
    },
    {
      "constant": true,
      "inputs": [
        {
          "name": "_noteHash",
          "type": "bytes32"
        }
      ],
      "name": "getNote",
      "outputs": [
        {
          "name": "status",
          "type": "uint8"
        },
        {
          "name": "createdOn",
          "type": "uint40"
        },
        {
          "name": "destroyedOn",
          "type": "uint40"
        },
        {
          "name": "noteOwner",
          "type": "address"
        }
      ],
      "payable": false,
      "stateMutability": "view",
      "type": "function"
    },
    {
      "constant": false,
      "inputs": [
        {
          "name": "_newOwner",
          "type": "address"
        },
        {
          "name": "_scalingFactor",
          "type": "uint256"
        },
        {
          "name": "_canAdjustSupply",
          "type": "bool"
        },
        {
          "name": "_canConvert",
          "type": "bool"
        }
      ],
      "name": "initialise",
      "outputs": [],
      "payable": false,
      "stateMutability": "nonpayable",
      "type": "function"
    },
    {
      "constant": true,
      "inputs": [],
      "name": "BURN_PROOF",
      "outputs": [
        {
          "name": "",
          "type": "uint24"
        }
      ],
      "payable": false,
      "stateMutability": "view",
      "type": "function"
    },
    {
      "constant": false,
      "inputs": [
        {
          "name": "newOwner",
          "type": "address"
        }
      ],
      "name": "transferOwnership",
      "outputs": [],
      "payable": false,
      "stateMutability": "nonpayable",
      "type": "function"
    },
    {
      "inputs": [],
      "payable": false,
      "stateMutability": "nonpayable",
      "type": "constructor"
    },
    {
      "anonymous": false,
      "inputs": [
        {
          "indexed": true,
          "name": "previousOwner",
          "type": "address"
        },
        {
          "indexed": true,
          "name": "newOwner",
          "type": "address"
        }
      ],
      "name": "OwnershipTransferred",
      "type": "event"
    }
  ],
  "bytecode": "0x608060405234801561001057600080fd5b5060008054600160a060020a0319163317808255604051600160a060020a039190911691907f8be0079c531659141344cd1fd0a4f28419497f9722a3daafe3b4186f6b6457e0908290a36000805460a060020a60ff021916740100000000000000000000000000000000000000001790556111f7806100906000396000f3fe608060405234801561001057600080fd5b50600436106101465760003560e01c80637b103999116100c85780638e526d9b1161008c578063ce88434311610066578063ce88434314610492578063df924625146104ce578063f2fde38b146104d657610146565b80638e526d9b146104295780638f32d59b1461043157806398df3d001461043957610146565b80637b103999146103605780637ba0e2e7146103a15780638500e1f81461041157806385c418f3146104195780638da5cb5b1461042157610146565b80632a07b6c71161010f5780632a07b6c7146101cd578063386612381461023f57806349518b28146103195780635ab1bd5314610321578063715018a61461035857610146565b80625bf7321461014b57806303e012e31461016b57806307003bb41461018f57806307616051146101ab57806308ae900a146101c5575b600080fd5b6101536104fc565b6040805162ffffff9092168252519081900360200190f35b610173610503565b60408051600160a060020a039092168252519081900360200190f35b610197610512565b604080519115158252519081900360200190f35b6101b3610534565b60408051918252519081900360200190f35b610153610558565b61023d600480360360208110156101e357600080fd5b8101906020810181356401000000008111156101fe57600080fd5b82018360208201111561021057600080fd5b8035906020019184600183028401116401000000008311171561023257600080fd5b50909250905061055f565b005b6102f16004803603604081101561025557600080fd5b62ffffff823516919081019060408101602082013564010000000081111561027c57600080fd5b82018360208201111561028e57600080fd5b803590602001918460018302840111640100000000831117156102b057600080fd5b91908080601f016020809104026020016040519081016040528093929190818152602001838380828437600092019190915250929550610626945050505050565b60408051600160a060020a039094168452602084019290925282820152519081900360600190f35b610153610791565b610329610798565b604080519586526020860194909452848401929092521515606084015215156080830152519081900360a00190f35b61023d61082a565b6103686108df565b604080519615158752602087019590955285850193909352606085019190915215156080840152151560a0830152519081900360c00190f35b61023d600480360360208110156103b757600080fd5b8101906020810181356401000000008111156103d257600080fd5b8201836020820111156103e457600080fd5b8035906020019184600183028401116401000000008311171561040657600080fd5b509092509050610901565b6101536109c4565b6101976109cb565b6101736109ec565b6101536109fb565b610197610a02565b6104566004803603602081101561044f57600080fd5b5035610a13565b6040805160ff909516855264ffffffffff93841660208601529190921683820152600160a060020a039091166060830152519081900360800190f35b61023d600480360360808110156104a857600080fd5b50600160a060020a03813516906020810135906040810135151590606001351515610ac3565b610153610c31565b61023d600480360360208110156104ec57600080fd5b5035600160a060020a0316610c38565b6201010181565b600154600160a060020a031681565b6000547501000000000000000000000000000000000000000000900460ff1681565b7fcbc417524e52b95c42a4c42d357938497e3d199eb9b4a0139c92551d4000bc3c81565b6201040381565b610567610a02565b15156105bd576040805160e560020a62461bcd02815260206004820181905260248201527f4f776e61626c653a2063616c6c6572206973206e6f7420746865206f776e6572604482015290519081900360640190fd5b60065460ff610100909104161515600114610622576040805160e560020a62461bcd02815260206004820152601a60248201527f74686973206173736574206973206e6f74206275726e61626c65000000000000604482015290519081900360640190fd5b5050565b6000806000610633610a02565b1515610689576040805160e560020a62461bcd02815260206004820181905260248201527f4f776e61626c653a2063616c6c6572206973206e6f7420746865206f776e6572604482015290519081900360640190fd5b60025460ff1615156001146106d25760405160e560020a62461bcd02815260040180806020018281038252603281526020018061112f6032913960400191505060405180910390fd5b6060806106de86610ca2565b909750945090925090506106f182610ccc565b6106fa81610d1d565b82156107885760065460ff1615156001146107495760405160e560020a62461bcd02815260040180806020018281038252602c815260200180611103602c913960400191505060405180910390fd5b60008312156107715760035461076a9060008590039063ffffffff610daf16565b9350610788565b60035461078590849063ffffffff610daf16565b93505b50509250925092565b6201040281565b600254600090819081908190819060ff161515600114610802576040805160e560020a62461bcd02815260206004820152601f60248201527f657870656374656420726567697374727920746f206265206372656174656400604482015290519081900360640190fd5b50506003546004546005546006549296919550935060ff808316935061010090920490911690565b610832610a02565b1515610888576040805160e560020a62461bcd02815260206004820181905260248201527f4f776e61626c653a2063616c6c6572206973206e6f7420746865206f776e6572604482015290519081900360640190fd5b60008054604051600160a060020a03909116907f8be0079c531659141344cd1fd0a4f28419497f9722a3daafe3b4186f6b6457e0908390a36000805473ffffffffffffffffffffffffffffffffffffffff19169055565b60025460035460045460055460065460ff948516948181169161010090041686565b610909610a02565b151561095f576040805160e560020a62461bcd02815260206004820181905260248201527f4f776e61626c653a2063616c6c6572206973206e6f7420746865206f776e6572604482015290519081900360640190fd5b60065460ff610100909104161515600114610622576040805160e560020a62461bcd02815260206004820152601a60248201527f74686973206173736574206973206e6f74206d696e7461626c65000000000000604482015290519081900360640190fd5b6201040181565b60005474010000000000000000000000000000000000000000900460ff1681565b600054600160a060020a031690565b6201020181565b600054600160a060020a0316331490565b60008181526007602052604081205481908190819060ff161515610a81576040805160e560020a62461bcd02815260206004820152601660248201527f6578706563746564206e6f746520746f20657869737400000000000000000000604482015290519081900360640190fd5b5050506000918252506007602052604090205460ff811691600882901c64ffffffffff90811692603081901c9091169160589190911c600160a060020a031690565b6000547501000000000000000000000000000000000000000000900460ff16151560011415610b3c576040805160e560020a62461bcd02815260206004820152601c60248201527f726567697374727920616c726561647920696e697469616c6973656400000000604482015290519081900360640190fd5b610b4584610e18565b600180543373ffffffffffffffffffffffffffffffffffffffff199091161781556040805160c081018252828152602081018690527fcbc417524e52b95c42a4c42d357938497e3d199eb9b4a0139c92551d4000bc3c918101829052606081018290529215156080840181905293151560a09093018390526002805460ff19908116909317905560039490945560048490556005939093556006805490931690911761ff0019166101009091021790555060008054750100000000000000000000000000000000000000000075ff00000000000000000000000000000000000000000019909116179055565b6201030181565b610c40610a02565b1515610c96576040805160e560020a62461bcd02815260206004820181905260248201527f4f776e61626c653a2063616c6c6572206973206e6f7420746865206f776e6572604482015290519081900360640190fd5b610c9f81610e18565b50565b6020810151604082015160608301516080840151928401949190930192600160a060020a03169190565b6000610cd782610eca565b905060005b81811015610d1857600080610cff610cfa868563ffffffff610ed116565b610f2b565b5091509150610d0e8183610f49565b5050600101610cdc565b505050565b6000610d2882610eca565b905060005b81811015610d1857600080610d4b610cfa868563ffffffff610ed116565b509092509050600160a060020a0382161515610d9b5760405160e560020a62461bcd0281526004018080602001828103825260288152602001806111826028913960400191505060405180910390fd5b610da58183611051565b5050600101610d2d565b6000821515610dc057506000610e12565b828202828482811515610dcf57fe5b0414610e0f5760405160e560020a62461bcd0281526004018080602001828103825260218152602001806111616021913960400191505060405180910390fd5b90505b92915050565b600160a060020a0381161515610e625760405160e560020a62461bcd0281526004018080602001828103825260268152602001806110dd6026913960400191505060405180910390fd5b60008054604051600160a060020a03808516939216917f8be0079c531659141344cd1fd0a4f28419497f9722a3daafe3b4186f6b6457e091a36000805473ffffffffffffffffffffffffffffffffffffffff1916600160a060020a0392909216919091179055565b6020015190565b602082810151908202830160400151830190821080610f245760405160e560020a62461bcd0281526004018080602001828103825260228152602001806111aa6022913960400191505060405180910390fd5b5092915050565b60408101516060820151600160a060020a0390911692909160800190565b600082815260076020526040902080546affffffffff0000000000ff1981164264ffffffffff1660301b17600290811783559160ff82169160581c600160a060020a03169060018314610fe6576040805160e560020a62461bcd02815260206004820181905260248201527f696e707574206e6f746520737461747573206973206e6f7420554e5350454e54604482015290519081900360640190fd5b600160a060020a0382811690861614611049576040805160e560020a62461bcd02815260206004820152601f60248201527f696e707574206e6f7465206f776e657220646f6573206e6f74206d6174636800604482015290519081900360640190fd5b505050505050565b6000828152600760205260409020805460014264ffffffffff1660081b605885901b17811783559160ff9091169081156110d5576040805160e560020a62461bcd02815260206004820152601260248201527f6f7574707574206e6f7465206578697374730000000000000000000000000000604482015290519081900360640190fd5b505050505056fe4f776e61626c653a206e6577206f776e657220697320746865207a65726f206164647265737361737365742063616e6e6f7420626520636f6e76657274656420696e746f207075626c696320746f6b656e736e6f746520726567697374727920646f6573206e6f7420657869737420666f722074686520676976656e2061646472657373536166654d6174683a206d756c7469706c69636174696f6e206f766572666c6f776f7574707574206e6f7465206f776e65722063616e6e6f7420626520616464726573732830783029415a54454320617272617920696e646578206973206f7574206f6620626f756e6473a165627a7a723058204698e0a4671bcb2571ae8ca49e9096d414caa1b7528be853f0876fdd7f7bba4d0029",
  "source": "pragma solidity >=0.5.0 <0.6.0;\n\nimport \"../../../../../interfaces/IAZTEC.sol\";\nimport \"../../../../../libs/NoteUtils.sol\";\nimport \"../Behaviour201907.sol\";\n\n/**\n * @title BehaviourBase201907\n * @author AZTEC\n * @dev This contract extends Behaviour201907.\n        Methods are documented in interface.\n *\n * Copyright Spilsbury Holdings Ltd 2019. All rights reserved.\n **/\ncontract BehaviourBase201907 is Behaviour201907 {\n    constructor () Behaviour201907() public {}\n}\n",
  "sourcePath": "@aztec/protocol/contracts/ACE/noteRegistry/epochs/201907/base/BehaviourBase201907.sol",
  "compiler": {
    "name": "solc",
    "version": "0.5.4+commit.9549d8ff.Emscripten.clang"
  },
  "schemaVersion": "3.0.11",
  "updatedAt": "2019-09-06T17:17:03.134Z",
  "devdoc": {
    "author": "AZTEC",
    "details": "This contract extends Behaviour201907. Methods are documented in interface. * Copyright Spilsbury Holdings Ltd 2019. All rights reserved.*",
    "methods": {
      "isOwner()": {
        "details": "Returns true if the caller is the current owner."
      },
      "owner()": {
        "details": "Returns the address of the current owner."
      },
      "renounceOwnership()": {
        "details": "Leaves the contract without owner. It will not be possible to call `onlyOwner` functions anymore. Can only be called by the current owner.     * > Note: Renouncing ownership will leave the contract without an owner, thereby removing any functionality that is only available to the owner."
      },
      "transferOwnership(address)": {
        "details": "Transfers ownership of the contract to a new account (`newOwner`). Can only be called by the current owner."
      }
    },
    "title": "BehaviourBase201907"
  },
  "userdoc": {
    "methods": {}
  }
}