{
  "contractName": "DividendInterface",
  "abi": [
    {
      "constant": true,
      "inputs": [
        {
          "name": "",
          "type": "bytes"
        },
        {
          "name": "",
          "type": "address"
        },
        {
          "name": "",
          "type": "uint256[6]"
        }
      ],
      "name": "validateDividend",
      "outputs": [
        {
          "name": "",
          "type": "bytes"
        }
      ],
      "payable": false,
      "stateMutability": "pure",
      "type": "function"
    }
  ],
  "bytecode": "0x610171610030600b82828239805160001a6073146000811461002057610022565bfe5b5030600052607381538281f3fe73000000000000000000000000000000000000000030146080604052600436106100355760003560e01c8063a2ed4de41461003a575b600080fd5b6100c6600480360361010081101561005157600080fd5b81019060208101813564010000000081111561006c57600080fd5b82018360208201111561007e57600080fd5b803590602001918460018302840111640100000000831117156100a057600080fd5b919350915073ffffffffffffffffffffffffffffffffffffffff8135169060200161013b565b6040805160208082528351818301528351919283929083019185019080838360005b838110156101005781810151838201526020016100e8565b50505050905090810190601f16801561012d5780820380516001836020036101000a031916815260200191505b509250505060405180910390f35b606094935050505056fea165627a7a723058208215e687de1658ee0949b911c068e807bc836d207055317f592f86fcae93eead0029",
  "source": "pragma solidity >=0.5.0 <0.6.0;\n\n/**\n * @title DividendInterface\n * @author AZTEC\n * @dev An interface for the dividend validator contract\n * Copyright Spilsbury Holdings Ltd 2019. All rights reserved.\n **/\nlibrary DividendInterface {\n    function validateDividend(\n        bytes calldata,\n        address,\n        uint[6] calldata\n    )\n        external\n        pure\n        returns (bytes memory)\n    {}\n}\n",
  "sourcePath": "@aztec/protocol/contracts/interfaces/DividendInterface.sol",
  "compiler": {
    "name": "solc",
    "version": "0.5.4+commit.9549d8ff.Emscripten.clang"
  },
  "schemaVersion": "3.0.11",
  "updatedAt": "2019-09-06T17:17:03.208Z",
  "devdoc": {
    "author": "AZTEC",
    "details": "An interface for the dividend validator contract Copyright Spilsbury Holdings Ltd 2019. All rights reserved.*",
    "methods": {},
    "title": "DividendInterface"
  },
  "userdoc": {
    "methods": {}
  }
}