{
  "contractName": "ERC20Mintable",
  "abi": [
    {
      "constant": false,
      "inputs": [
        {
          "name": "spender",
          "type": "address"
        },
        {
          "name": "value",
          "type": "uint256"
        }
      ],
      "name": "approve",
      "outputs": [
        {
          "name": "",
          "type": "bool"
        }
      ],
      "payable": false,
      "stateMutability": "nonpayable",
      "type": "function"
    },
    {
      "constant": true,
      "inputs": [],
      "name": "totalSupply",
      "outputs": [
        {
          "name": "",
          "type": "uint256"
        }
      ],
      "payable": false,
      "stateMutability": "view",
      "type": "function"
    },
    {
      "constant": false,
      "inputs": [
        {
          "name": "sender",
          "type": "address"
        },
        {
          "name": "recipient",
          "type": "address"
        },
        {
          "name": "amount",
          "type": "uint256"
        }
      ],
      "name": "transferFrom",
      "outputs": [
        {
          "name": "",
          "type": "bool"
        }
      ],
      "payable": false,
      "stateMutability": "nonpayable",
      "type": "function"
    },
    {
      "constant": false,
      "inputs": [
        {
          "name": "spender",
          "type": "address"
        },
        {
          "name": "addedValue",
          "type": "uint256"
        }
      ],
      "name": "increaseAllowance",
      "outputs": [
        {
          "name": "",
          "type": "bool"
        }
      ],
      "payable": false,
      "stateMutability": "nonpayable",
      "type": "function"
    },
    {
      "constant": true,
      "inputs": [
        {
          "name": "account",
          "type": "address"
        }
      ],
      "name": "balanceOf",
      "outputs": [
        {
          "name": "",
          "type": "uint256"
        }
      ],
      "payable": false,
      "stateMutability": "view",
      "type": "function"
    },
    {
      "constant": false,
      "inputs": [
        {
          "name": "spender",
          "type": "address"
        },
        {
          "name": "subtractedValue",
          "type": "uint256"
        }
      ],
      "name": "decreaseAllowance",
      "outputs": [
        {
          "name": "",
          "type": "bool"
        }
      ],
      "payable": false,
      "stateMutability": "nonpayable",
      "type": "function"
    },
    {
      "constant": false,
      "inputs": [
        {
          "name": "recipient",
          "type": "address"
        },
        {
          "name": "amount",
          "type": "uint256"
        }
      ],
      "name": "transfer",
      "outputs": [
        {
          "name": "",
          "type": "bool"
        }
      ],
      "payable": false,
      "stateMutability": "nonpayable",
      "type": "function"
    },
    {
      "constant": true,
      "inputs": [
        {
          "name": "owner",
          "type": "address"
        },
        {
          "name": "spender",
          "type": "address"
        }
      ],
      "name": "allowance",
      "outputs": [
        {
          "name": "",
          "type": "uint256"
        }
      ],
      "payable": false,
      "stateMutability": "view",
      "type": "function"
    },
    {
      "anonymous": false,
      "inputs": [
        {
          "indexed": true,
          "name": "from",
          "type": "address"
        },
        {
          "indexed": true,
          "name": "to",
          "type": "address"
        },
        {
          "indexed": false,
          "name": "value",
          "type": "uint256"
        }
      ],
      "name": "Transfer",
      "type": "event"
    },
    {
      "anonymous": false,
      "inputs": [
        {
          "indexed": true,
          "name": "owner",
          "type": "address"
        },
        {
          "indexed": true,
          "name": "spender",
          "type": "address"
        },
        {
          "indexed": false,
          "name": "value",
          "type": "uint256"
        }
      ],
      "name": "Approval",
      "type": "event"
    },
    {
      "constant": false,
      "inputs": [
        {
          "name": "_to",
          "type": "address"
        },
        {
          "name": "_value",
          "type": "uint256"
        }
      ],
      "name": "mint",
      "outputs": [
        {
          "name": "",
          "type": "bool"
        }
      ],
      "payable": false,
      "stateMutability": "nonpayable",
      "type": "function"
    }
  ],
  "bytecode": "0x608060405234801561001057600080fd5b5061086e806100206000396000f3fe608060405234801561001057600080fd5b50600436106100935760003560e01c806340c10f191161006657806340c10f191461015457806370a0823114610180578063a457c2d7146101a6578063a9059cbb146101d2578063dd62ed3e146101fe57610093565b8063095ea7b31461009857806318160ddd146100d857806323b872dd146100f25780633950935114610128575b600080fd5b6100c4600480360360408110156100ae57600080fd5b50600160a060020a03813516906020013561022c565b604080519115158252519081900360200190f35b6100e0610242565b60408051918252519081900360200190f35b6100c46004803603606081101561010857600080fd5b50600160a060020a03813581169160208101359091169060400135610248565b6100c46004803603604081101561013e57600080fd5b50600160a060020a03813516906020013561029f565b6100c46004803603604081101561016a57600080fd5b50600160a060020a0381351690602001356102db565b6100e06004803603602081101561019657600080fd5b5035600160a060020a03166102e7565b6100c4600480360360408110156101bc57600080fd5b50600160a060020a038135169060200135610302565b6100c4600480360360408110156101e857600080fd5b50600160a060020a03813516906020013561033e565b6100e06004803603604081101561021457600080fd5b50600160a060020a038135811691602001351661034b565b6000610239338484610376565b50600192915050565b60025490565b6000610255848484610476565b600160a060020a038416600090815260016020908152604080832033808552925290912054610295918691610290908663ffffffff6105cc16565b610376565b5060019392505050565b336000818152600160209081526040808320600160a060020a03871684529091528120549091610239918590610290908663ffffffff61063116565b6000610239838361069a565b600160a060020a031660009081526020819052604090205490565b336000818152600160209081526040808320600160a060020a03871684529091528120549091610239918590610290908663ffffffff6105cc16565b6000610239338484610476565b600160a060020a03918216600090815260016020908152604080832093909416825291909152205490565b600160a060020a03831615156103c5576040516000805160206107da833981519152815260040180806020018281038252602481526020018061081f6024913960400191505060405180910390fd5b600160a060020a0382161515610414576040516000805160206107da83398151915281526004018080602001828103825260228152602001806107b86022913960400191505060405180910390fd5b600160a060020a03808416600081815260016020908152604080832094871680845294825291829020859055815185815291517f8c5be1e5ebec7d5bd14f71427d1e84f3dd0314c0f7b2291e5b200ac8c7c3b9259281900390910190a3505050565b600160a060020a03831615156104c5576040516000805160206107da83398151915281526004018080602001828103825260258152602001806107fa6025913960400191505060405180910390fd5b600160a060020a0382161515610514576040516000805160206107da83398151915281526004018080602001828103825260238152602001806107956023913960400191505060405180910390fd5b600160a060020a03831660009081526020819052604090205461053d908263ffffffff6105cc16565b600160a060020a038085166000908152602081905260408082209390935590841681522054610572908263ffffffff61063116565b600160a060020a038084166000818152602081815260409182902094909455805185815290519193928716927fddf252ad1be2c89b69c2b068fc378daa952ba7f163c4a11628f55a4df523b3ef92918290030190a3505050565b60008282111561062b57604080516000805160206107da833981519152815260206004820152601e60248201527f536166654d6174683a207375627472616374696f6e206f766572666c6f770000604482015290519081900360640190fd5b50900390565b60008282018381101561069357604080516000805160206107da833981519152815260206004820152601b60248201527f536166654d6174683a206164646974696f6e206f766572666c6f770000000000604482015290519081900360640190fd5b9392505050565b600160a060020a03821615156106ff57604080516000805160206107da833981519152815260206004820152601f60248201527f45524332303a206d696e7420746f20746865207a65726f206164647265737300604482015290519081900360640190fd5b600254610712908263ffffffff61063116565b600255600160a060020a03821660009081526020819052604090205461073e908263ffffffff61063116565b600160a060020a0383166000818152602081815260408083209490945583518581529351929391927fddf252ad1be2c89b69c2b068fc378daa952ba7f163c4a11628f55a4df523b3ef9281900390910190a3505056fe45524332303a207472616e7366657220746f20746865207a65726f206164647265737345524332303a20617070726f766520746f20746865207a65726f206164647265737308c379a00000000000000000000000000000000000000000000000000000000045524332303a207472616e736665722066726f6d20746865207a65726f206164647265737345524332303a20617070726f76652066726f6d20746865207a65726f2061646472657373a165627a7a723058208e59c6ce8f42124ecc4773964ce358f421d6d05117ee24900b138804b82fc7fd0029",
  "source": "pragma solidity >=0.5.0 <0.6.0;\n\nimport \"openzeppelin-solidity/contracts/token/ERC20/ERC20.sol\";\n\n/**\n * @title ERC20Mintable\n * @dev ERC20 minting logic\n * Sourced from OpenZeppelin and thoroughly butchered to remove security guards.\n * Anybody can mint - STRICTLY FOR TEST PURPOSES\n */\ncontract ERC20Mintable is ERC20 {\n    /**\n    * @dev Function to mint tokens\n    * @param _to The address that will receive the minted tokens.\n    * @param _value The amount of tokens to mint.\n    * @return A boolean that indicates if the operation was successful.\n    */\n    function mint(address _to, uint256 _value) public returns (bool) {\n        _mint(_to, _value);\n        return true;\n    }\n}\n",
  "sourcePath": "@aztec/protocol/contracts/ERC20/ERC20Mintable.sol",
  "compiler": {
    "name": "solc",
    "version": "0.5.4+commit.9549d8ff.Emscripten.clang"
  },
  "schemaVersion": "3.0.11",
  "updatedAt": "2019-09-06T17:17:13.250Z",
  "devdoc": {
    "details": "ERC20 minting logic Sourced from OpenZeppelin and thoroughly butchered to remove security guards. Anybody can mint - STRICTLY FOR TEST PURPOSES",
    "methods": {
      "allowance(address,address)": {
        "details": "See `IERC20.allowance`."
      },
      "approve(address,uint256)": {
        "details": "See `IERC20.approve`.     * Requirements:     * - `spender` cannot be the zero address."
      },
      "balanceOf(address)": {
        "details": "See `IERC20.balanceOf`."
      },
      "decreaseAllowance(address,uint256)": {
        "details": "Atomically decreases the allowance granted to `spender` by the caller.     * This is an alternative to `approve` that can be used as a mitigation for problems described in `IERC20.approve`.     * Emits an `Approval` event indicating the updated allowance.     * Requirements:     * - `spender` cannot be the zero address. - `spender` must have allowance for the caller of at least `subtractedValue`."
      },
      "increaseAllowance(address,uint256)": {
        "details": "Atomically increases the allowance granted to `spender` by the caller.     * This is an alternative to `approve` that can be used as a mitigation for problems described in `IERC20.approve`.     * Emits an `Approval` event indicating the updated allowance.     * Requirements:     * - `spender` cannot be the zero address."
      },
      "mint(address,uint256)": {
        "details": "Function to mint tokens",
        "params": {
          "_to": "The address that will receive the minted tokens.",
          "_value": "The amount of tokens to mint."
        },
        "return": "A boolean that indicates if the operation was successful."
      },
      "totalSupply()": {
        "details": "See `IERC20.totalSupply`."
      },
      "transfer(address,uint256)": {
        "details": "See `IERC20.transfer`.     * Requirements:     * - `recipient` cannot be the zero address. - the caller must have a balance of at least `amount`."
      },
      "transferFrom(address,address,uint256)": {
        "details": "See `IERC20.transferFrom`.     * Emits an `Approval` event indicating the updated allowance. This is not required by the EIP. See the note at the beginning of `ERC20`;     * Requirements: - `sender` and `recipient` cannot be the zero address. - `sender` must have a balance of at least `value`. - the caller must have allowance for `sender`'s tokens of at least `amount`."
      }
    },
    "title": "ERC20Mintable"
  },
  "userdoc": {
    "methods": {}
  }
}