{
  "contractName": "LibEIP712",
  "abi": [
    {
      "constant": true,
      "inputs": [],
      "name": "EIP712_DOMAIN_HASH",
      "outputs": [
        {
          "name": "",
          "type": "bytes32"
        }
      ],
      "payable": false,
      "stateMutability": "view",
      "type": "function"
    },
    {
      "inputs": [],
      "payable": false,
      "stateMutability": "nonpayable",
      "type": "constructor"
    }
  ],
  "bytecode": "0x608060405234801561001057600080fd5b50604080517f454950373132446f6d61696e28000000000000000000000000000000000000006020808301919091527f737472696e67206e616d652c0000000000000000000000000000000000000000602d8301527f737472696e672076657273696f6e2c000000000000000000000000000000000060398301527f6164647265737320766572696679696e67436f6e74726163740000000000000060488301527f29000000000000000000000000000000000000000000000000000000000000006061830152825160428184030181526062830180855281519183019190912060a28401855260199091527f415a5445435f43525950544f4752415048595f454e47494e450000000000000060829093019290925282518084018452600181527f3100000000000000000000000000000000000000000000000000000000000000908201528251808201929092527fc8066e2c715ce196630b273cd256d8959d5b9fefc55e9e6d999fb0f08bb7f75f828401527fc89efdaa54c0f20c7adf612882df0950f5a951637e0307cdcb4c672f298b8bc66060830152306080808401919091528351808403909101815260a090920190925280519101206000556077806101dc6000396000f3fe6080604052348015600f57600080fd5b506004361060285760003560e01c8063e306f77914602d575b600080fd5b60336045565b60408051918252519081900360200190f35b6000548156fea165627a7a72305820db88c0dcffea6179051ae87ecb2289282b741c993004671a04e7f0be3eb44a4e0029",
  "source": "pragma solidity >=0.5.0 <0.6.0;\n\n\n/**\n * @title Library of EIP712 utility constants and functions\n * @author AZTEC\n * Copyright Spilsbury Holdings Ltd 2019. All rights reserved.\n **/\ncontract LibEIP712 {\n\n    // EIP712 Domain Name value\n    string constant internal EIP712_DOMAIN_NAME = \"AZTEC_CRYPTOGRAPHY_ENGINE\";\n\n    // EIP712 Domain Version value\n    string constant internal EIP712_DOMAIN_VERSION = \"1\";\n\n    // Hash of the EIP712 Domain Separator Schema\n    bytes32 constant internal EIP712_DOMAIN_SEPARATOR_SCHEMA_HASH = keccak256(abi.encodePacked(\n        \"EIP712Domain(\",\n            \"string name,\",\n            \"string version,\",\n            \"address verifyingContract\",\n        \")\"\n    ));\n\n    // Hash of the EIP712 Domain Separator data\n    // solhint-disable-next-line var-name-mixedcase\n    bytes32 public EIP712_DOMAIN_HASH;\n\n    constructor ()\n        public\n    {\n        EIP712_DOMAIN_HASH = keccak256(abi.encode(\n            EIP712_DOMAIN_SEPARATOR_SCHEMA_HASH,\n            keccak256(bytes(EIP712_DOMAIN_NAME)),\n            keccak256(bytes(EIP712_DOMAIN_VERSION)),\n            address(this)\n        ));\n    }\n\n    /// @dev Calculates EIP712 encoding for a hash struct in this EIP712 Domain.\n    /// @param _hashStruct The EIP712 hash struct.\n    /// @return EIP712 hash applied to this EIP712 Domain.\n    function hashEIP712Message(bytes32 _hashStruct)\n        internal\n        view\n        returns (bytes32 _result)\n    {\n        bytes32 eip712DomainHash = EIP712_DOMAIN_HASH;\n\n        // Assembly for more efficient computing:\n        // keccak256(abi.encodePacked(\n        //     EIP191_HEADER,\n        //     EIP712_DOMAIN_HASH,\n        //     hashStruct\n        // ));\n\n        assembly {\n            // Load free memory pointer. We're not going to use it - we're going to overwrite it!\n            // We need 0x60 bytes of memory for this hash,\n            // cheaper to overwrite the free memory pointer at 0x40, and then replace it, than allocating free memory\n            let memPtr := mload(0x40)\n            mstore(0x00, 0x1901)               // EIP191 header\n            mstore(0x20, eip712DomainHash)     // EIP712 domain hash\n            mstore(0x40, _hashStruct)          // Hash of struct\n            _result := keccak256(0x1e, 0x42)   // compute hash\n            // replace memory pointer\n            mstore(0x40, memPtr)\n        }\n    }\n\n    /// @dev Extracts the address of the signer with ECDSA.\n    /// @param _message The EIP712 message.\n    /// @param _signature The ECDSA values, v, r and s.\n    /// @return The address of the message signer.\n    function recoverSignature(\n        bytes32 _message,\n        bytes memory _signature\n    ) internal view returns (address _signer) {\n        bool result;\n        assembly {\n            // Here's a little trick we can pull. We expect `_signature` to be a byte array, of length 0x60, with\n            // 'v', 'r' and 's' located linearly in memory. Preceeding this is the length parameter of `_signature`.\n            // We *replace* the length param with the signature msg to get a memory block formatted for the precompile\n\n            // load length as a temporary variable\n            let byteLength := mload(_signature)\n\n            // store the signature message\n            mstore(_signature, _message)\n\n            // load 'v' - we need it for a condition check\n            let v := mload(add(_signature, 0x20))\n\n            result := and(\n                and(\n                    // validate signature length == 0x60 bytes\n                    eq(byteLength, 0x60),\n                    // validate v == 27 or v == 28\n                    or(eq(v, 27), eq(v, 28))\n                ),\n                // validate call to precompile succeeds\n                staticcall(gas, 0x01, _signature, 0x80, _signature, 0x20)\n            )\n            // save the _signer only if the first word in _signature is not `_message` anymore\n            switch eq(_message, mload(_signature))\n            case 0 {\n                _signer := mload(_signature)\n            }\n            mstore(_signature, byteLength) // and put the byte length back where it belongs\n        }\n        // wrap Failure States in a single if test, so that happy path only has 1 conditional jump\n        if (!(result && (_signer == address(0x0)))) {\n            require(_signer != address(0x0), \"signer address cannot be 0\");\n            require(result, \"signature recovery failed\");\n        }\n    }\n}\n\n",
  "sourcePath": "@aztec/protocol/contracts/libs/LibEIP712.sol",
  "compiler": {
    "name": "solc",
    "version": "0.5.4+commit.9549d8ff.Emscripten.clang"
  },
  "schemaVersion": "3.0.11",
  "updatedAt": "2019-09-06T13:05:39.490Z",
  "devdoc": {
    "author": "AZTEC Copyright Spilsbury Holdings Ltd 2019. All rights reserved.*",
    "methods": {},
    "title": "Library of EIP712 utility constants and functions"
  },
  "userdoc": {
    "methods": {}
  }
}