{
  "contractName": "PrivateRangeInterface",
  "abi": [
    {
      "constant": true,
      "inputs": [
        {
          "name": "",
          "type": "bytes"
        },
        {
          "name": "",
          "type": "address"
        },
        {
          "name": "",
          "type": "uint256[6]"
        }
      ],
      "name": "validatePrivateRange",
      "outputs": [
        {
          "name": "",
          "type": "bytes"
        }
      ],
      "payable": false,
      "stateMutability": "pure",
      "type": "function"
    }
  ],
  "bytecode": "0x608060405234801561001057600080fd5b50610167806100206000396000f3fe608060405234801561001057600080fd5b506004361061002b5760003560e01c80631fa23f2714610030575b600080fd5b6100bc600480360361010081101561004757600080fd5b81019060208101813564010000000081111561006257600080fd5b82018360208201111561007457600080fd5b8035906020019184600183028401116401000000008311171561009657600080fd5b919350915073ffffffffffffffffffffffffffffffffffffffff81351690602001610131565b6040805160208082528351818301528351919283929083019185019080838360005b838110156100f65781810151838201526020016100de565b50505050905090810190601f1680156101235780820380516001836020036101000a031916815260200191505b509250505060405180910390f35b606094935050505056fea165627a7a7230582055249cad3759eebcfaefd16195f89b44236f861d523f7fcc3dec69d623e7158b0029",
  "source": "pragma solidity >=0.5.0 <0.6.0;\n\n\n/**\n * @title PrivateRangeInterface\n * @author AZTEC\n * @dev An interface for the PrivateRange validator contract\n * Copyright Spilsbury Holdings Ltd 2019. All rights reserved.\n **/\ncontract PrivateRangeInterface {\n    function validatePrivateRange(\n        bytes calldata,\n        address,\n        uint[6] calldata\n    )\n        external\n        pure\n        returns (bytes memory)\n    {}\n}",
  "sourcePath": "@aztec/protocol/contracts/interfaces/PrivateRangeInterface.sol",
  "compiler": {
    "name": "solc",
    "version": "0.5.4+commit.9549d8ff.Emscripten.clang"
  },
  "schemaVersion": "3.0.11",
  "updatedAt": "2019-09-06T17:17:03.218Z",
  "devdoc": {
    "author": "AZTEC",
    "details": "An interface for the PrivateRange validator contract Copyright Spilsbury Holdings Ltd 2019. All rights reserved.*",
    "methods": {},
    "title": "PrivateRangeInterface"
  },
  "userdoc": {
    "methods": {}
  }
}