{
  "contractName": "ZkAssetMintable",
  "abi": [
    {
      "constant": true,
      "inputs": [],
      "name": "JOIN_SPLIT_PROOF",
      "outputs": [
        {
          "name": "",
          "type": "uint24"
        }
      ],
      "payable": false,
      "stateMutability": "view",
      "type": "function"
    },
    {
      "constant": true,
      "inputs": [],
      "name": "ZERO_VALUE_NOTE_HASH",
      "outputs": [
        {
          "name": "",
          "type": "bytes32"
        }
      ],
      "payable": false,
      "stateMutability": "view",
      "type": "function"
    },
    {
      "constant": true,
      "inputs": [
        {
          "name": "",
          "type": "bytes32"
        },
        {
          "name": "",
          "type": "address"
        }
      ],
      "name": "confidentialApproved",
      "outputs": [
        {
          "name": "",
          "type": "bool"
        }
      ],
      "payable": false,
      "stateMutability": "view",
      "type": "function"
    },
    {
      "constant": false,
      "inputs": [
        {
          "name": "_proof",
          "type": "uint24"
        },
        {
          "name": "_proofData",
          "type": "bytes"
        }
      ],
      "name": "confidentialMint",
      "outputs": [],
      "payable": false,
      "stateMutability": "nonpayable",
      "type": "function"
    },
    {
      "constant": false,
      "inputs": [
        {
          "name": "_noteHash",
          "type": "bytes32"
        },
        {
          "name": "_spender",
          "type": "address"
        },
        {
          "name": "_status",
          "type": "bool"
        },
        {
          "name": "_signature",
          "type": "bytes"
        }
      ],
      "name": "confidentialApprove",
      "outputs": [],
      "payable": false,
      "stateMutability": "nonpayable",
      "type": "function"
    },
    {
      "constant": false,
      "inputs": [
        {
          "name": "noteHash",
          "type": "bytes32"
        },
        {
          "name": "metadata",
          "type": "bytes"
        }
      ],
      "name": "updateNoteMetaData",
      "outputs": [],
      "payable": false,
      "stateMutability": "nonpayable",
      "type": "function"
    },
    {
      "constant": true,
      "inputs": [],
      "name": "PRIVATE_RANGE_PROOF",
      "outputs": [
        {
          "name": "",
          "type": "uint24"
        }
      ],
      "payable": false,
      "stateMutability": "view",
      "type": "function"
    },
    {
      "constant": false,
      "inputs": [],
      "name": "renounceOwnership",
      "outputs": [],
      "payable": false,
      "stateMutability": "nonpayable",
      "type": "function"
    },
    {
      "constant": true,
      "inputs": [
        {
          "name": "",
          "type": "uint8"
        }
      ],
      "name": "proofs",
      "outputs": [
        {
          "name": "",
          "type": "uint256"
        }
      ],
      "payable": false,
      "stateMutability": "view",
      "type": "function"
    },
    {
      "constant": false,
      "inputs": [
        {
          "name": "_epoch",
          "type": "uint8"
        },
        {
          "name": "_proofs",
          "type": "uint256"
        }
      ],
      "name": "setProofs",
      "outputs": [],
      "payable": false,
      "stateMutability": "nonpayable",
      "type": "function"
    },
    {
      "constant": true,
      "inputs": [
        {
          "name": "_proof",
          "type": "uint24"
        }
      ],
      "name": "supportsProof",
      "outputs": [
        {
          "name": "",
          "type": "bool"
        }
      ],
      "payable": false,
      "stateMutability": "view",
      "type": "function"
    },
    {
      "constant": true,
      "inputs": [],
      "name": "DIVIDEND_PROOF",
      "outputs": [
        {
          "name": "",
          "type": "uint24"
        }
      ],
      "payable": false,
      "stateMutability": "view",
      "type": "function"
    },
    {
      "constant": true,
      "inputs": [],
      "name": "owner",
      "outputs": [
        {
          "name": "",
          "type": "address"
        }
      ],
      "payable": false,
      "stateMutability": "view",
      "type": "function"
    },
    {
      "constant": true,
      "inputs": [],
      "name": "MINT_PROOF",
      "outputs": [
        {
          "name": "",
          "type": "uint24"
        }
      ],
      "payable": false,
      "stateMutability": "view",
      "type": "function"
    },
    {
      "constant": true,
      "inputs": [],
      "name": "isOwner",
      "outputs": [
        {
          "name": "",
          "type": "bool"
        }
      ],
      "payable": false,
      "stateMutability": "view",
      "type": "function"
    },
    {
      "constant": false,
      "inputs": [
        {
          "name": "_proofData",
          "type": "bytes"
        },
        {
          "name": "_signatures",
          "type": "bytes"
        }
      ],
      "name": "confidentialTransfer",
      "outputs": [],
      "payable": false,
      "stateMutability": "nonpayable",
      "type": "function"
    },
    {
      "constant": true,
      "inputs": [],
      "name": "ace",
      "outputs": [
        {
          "name": "",
          "type": "address"
        }
      ],
      "payable": false,
      "stateMutability": "view",
      "type": "function"
    },
    {
      "constant": false,
      "inputs": [
        {
          "name": "_proof",
          "type": "uint24"
        },
        {
          "name": "_proofOutput",
          "type": "bytes"
        }
      ],
      "name": "confidentialTransferFrom",
      "outputs": [],
      "payable": false,
      "stateMutability": "nonpayable",
      "type": "function"
    },
    {
      "constant": true,
      "inputs": [],
      "name": "BURN_PROOF",
      "outputs": [
        {
          "name": "",
          "type": "uint24"
        }
      ],
      "payable": false,
      "stateMutability": "view",
      "type": "function"
    },
    {
      "constant": true,
      "inputs": [],
      "name": "EIP712_DOMAIN_HASH",
      "outputs": [
        {
          "name": "",
          "type": "bytes32"
        }
      ],
      "payable": false,
      "stateMutability": "view",
      "type": "function"
    },
    {
      "constant": true,
      "inputs": [],
      "name": "linkedToken",
      "outputs": [
        {
          "name": "",
          "type": "address"
        }
      ],
      "payable": false,
      "stateMutability": "view",
      "type": "function"
    },
    {
      "constant": true,
      "inputs": [],
      "name": "scalingFactor",
      "outputs": [
        {
          "name": "",
          "type": "uint256"
        }
      ],
      "payable": false,
      "stateMutability": "view",
      "type": "function"
    },
    {
      "constant": false,
      "inputs": [
        {
          "name": "newOwner",
          "type": "address"
        }
      ],
      "name": "transferOwnership",
      "outputs": [],
      "payable": false,
      "stateMutability": "nonpayable",
      "type": "function"
    },
    {
      "inputs": [
        {
          "name": "_aceAddress",
          "type": "address"
        },
        {
          "name": "_linkedTokenAddress",
          "type": "address"
        },
        {
          "name": "_scalingFactor",
          "type": "uint256"
        }
      ],
      "payable": false,
      "stateMutability": "nonpayable",
      "type": "constructor"
    },
    {
      "anonymous": false,
      "inputs": [
        {
          "indexed": false,
          "name": "noteHash",
          "type": "bytes32"
        },
        {
          "indexed": false,
          "name": "noteData",
          "type": "bytes"
        }
      ],
      "name": "UpdateTotalMinted",
      "type": "event"
    },
    {
      "anonymous": false,
      "inputs": [
        {
          "indexed": true,
          "name": "previousOwner",
          "type": "address"
        },
        {
          "indexed": true,
          "name": "newOwner",
          "type": "address"
        }
      ],
      "name": "OwnershipTransferred",
      "type": "event"
    },
    {
      "anonymous": false,
      "inputs": [
        {
          "indexed": true,
          "name": "aceAddress",
          "type": "address"
        },
        {
          "indexed": true,
          "name": "linkedTokenAddress",
          "type": "address"
        },
        {
          "indexed": false,
          "name": "scalingFactor",
          "type": "uint256"
        },
        {
          "indexed": true,
          "name": "_canAdjustSupply",
          "type": "bool"
        },
        {
          "indexed": false,
          "name": "_canConvert",
          "type": "bool"
        }
      ],
      "name": "CreateZkAsset",
      "type": "event"
    },
    {
      "anonymous": false,
      "inputs": [
        {
          "indexed": false,
          "name": "noteRegistryId",
          "type": "uint256"
        }
      ],
      "name": "CreateNoteRegistry",
      "type": "event"
    },
    {
      "anonymous": false,
      "inputs": [
        {
          "indexed": true,
          "name": "owner",
          "type": "address"
        },
        {
          "indexed": true,
          "name": "noteHash",
          "type": "bytes32"
        },
        {
          "indexed": false,
          "name": "metadata",
          "type": "bytes"
        }
      ],
      "name": "CreateNote",
      "type": "event"
    },
    {
      "anonymous": false,
      "inputs": [
        {
          "indexed": true,
          "name": "owner",
          "type": "address"
        },
        {
          "indexed": true,
          "name": "noteHash",
          "type": "bytes32"
        },
        {
          "indexed": false,
          "name": "metadata",
          "type": "bytes"
        }
      ],
      "name": "DestroyNote",
      "type": "event"
    },
    {
      "anonymous": false,
      "inputs": [
        {
          "indexed": true,
          "name": "owner",
          "type": "address"
        },
        {
          "indexed": false,
          "name": "value",
          "type": "uint256"
        }
      ],
      "name": "ConvertTokens",
      "type": "event"
    },
    {
      "anonymous": false,
      "inputs": [
        {
          "indexed": true,
          "name": "owner",
          "type": "address"
        },
        {
          "indexed": false,
          "name": "value",
          "type": "uint256"
        }
      ],
      "name": "RedeemTokens",
      "type": "event"
    },
    {
      "anonymous": false,
      "inputs": [
        {
          "indexed": true,
          "name": "owner",
          "type": "address"
        },
        {
          "indexed": true,
          "name": "noteHash",
          "type": "bytes32"
        },
        {
          "indexed": false,
          "name": "metadata",
          "type": "bytes"
        }
      ],
      "name": "UpdateNoteMetadata",
      "type": "event"
    }
  ],
  "bytecode": "0x60806040523480156200001157600080fd5b50604051606080620028fa833981018060405260608110156200003357600080fd5b50805160208083015160409384015184517f454950373132446f6d61696e2800000000000000000000000000000000000000818501527f737472696e67206e616d652c0000000000000000000000000000000000000000602d8201527f737472696e672076657273696f6e2c000000000000000000000000000000000060398201527f6164647265737320766572696679696e67436f6e74726163740000000000000060488201527f29000000000000000000000000000000000000000000000000000000000000006061820152855160428183030181526062820180885281519186019190912060a28301885260199091527f415a5445435f43525950544f4752415048595f454e47494e45000000000000006082909201919091528551808701875260018082527f3100000000000000000000000000000000000000000000000000000000000000918601919091528651808601929092527fc8066e2c715ce196630b273cd256d8959d5b9fefc55e9e6d999fb0f08bb7f75f82880152600080516020620028da8339815191526060830152306080808401919091528751808403909101815260a09092019096528051930192909220600090815592939092849184918491908490849084908490600160a060020a038416156200021b5760016200021e565b60005b604080517f454950373132446f6d61696e28000000000000000000000000000000000000006020808301919091527f737472696e67206e616d652c0000000000000000000000000000000000000000602d8301527f737472696e672076657273696f6e2c000000000000000000000000000000000060398301527f6164647265737320766572696679696e67436f6e74726163740000000000000060488301527f29000000000000000000000000000000000000000000000000000000000000006061830152825160428184030181526062830180855281519183019190912060a28401855260089091527f5a4b5f41535345540000000000000000000000000000000000000000000000006082909301929092528251808401845260018082527f3100000000000000000000000000000000000000000000000000000000000000918301919091528351808301939093527f34a1782c7b6da6ed013d1c63b38e9a7204574db51f6df9ff13aa1786590013fd83850152600080516020620028da833981519152606084015230600090811b6080808601919091528551808603909101815260a085018087528151919094012081558154600160a060020a038c8116600160a060020a03199283161793849055600280548d831693168317905560038b90557fa5468ca20000000000000000000000000000000000000000000000000000000090945260a485015260c4840189905287151560e48501528515156101048501529351949550169263a5468ca2926101248084019391929182900301818387803b1580156200047157600080fd5b505af115801562000486573d6000803e3d6000fd5b505060408051868152841515602082015281518615159450600160a060020a03808a1694508a16927fca576e79bcb5c4a0045d9d596a80c733c3997559f688f69e5c03bd737d885b86928290030190a4505060058054600160a060020a031916331790819055604051600160a060020a03919091169350600092507f8be0079c531659141344cd1fd0a4f28419497f9722a3daafe3b4186f6b6457e091508290a35050505050505061239c806200053e6000396000f3fe608060405234801561001057600080fd5b506004361061017c5760003560e01c80638500e1f8116100e3578063cdfea90e1161008c578063ea12489f11610066578063ea12489f1461065f578063ed3437f814610667578063f2fde38b1461066f5761017c565b8063cdfea90e1461059d578063df9246251461064f578063e306f779146106575761017c565b80638f32d59b116100bd5780638f32d59b146104605780639698849814610468578063a5c8fa84146105955761017c565b80638500e1f81461042c5780638da5cb5b146104345780638e526d9b146104585761017c565b80632e3b9a3b11610145578063764481181161011f57806376448118146103c457806376ae6bee146103e45780637f08dede1461040a5761017c565b80632e3b9a3b1461033d57806349518b28146103b4578063715018a6146103bc5761017c565b80625bf7321461018157806307616051146101a15780630f4a80fe146101bb5780631b50a074146101fb5780631f2ac16a14610279575b600080fd5b610189610695565b6040805162ffffff9092168252519081900360200190f35b6101a961069c565b60408051918252519081900360200190f35b6101e7600480360360408110156101d157600080fd5b5080359060200135600160a060020a03166106c0565b604080519115158252519081900360200190f35b6102776004803603604081101561021157600080fd5b62ffffff823516919081019060408101602082013564010000000081111561023857600080fd5b82018360208201111561024a57600080fd5b8035906020019184600183028401116401000000008311171561026c57600080fd5b5090925090506106e0565b005b6102776004803603608081101561028f57600080fd5b813591600160a060020a03602082013516916040820135151591908101906080810160608201356401000000008111156102c857600080fd5b8201836020820111156102da57600080fd5b803590602001918460018302840111640100000000831117156102fc57600080fd5b91908080601f01602080910402602001604051908101604052809392919081815260200183838082843760009201919091525092955061099e945050505050565b6102776004803603604081101561035357600080fd5b8135919081019060408101602082013564010000000081111561037557600080fd5b82018360208201111561038757600080fd5b803590602001918460018302840111640100000000831117156103a957600080fd5b509092509050610bdf565b610189610d43565b610277610d4a565b6101a9600480360360208110156103da57600080fd5b503560ff16610db4565b610277600480360360408110156103fa57600080fd5b5060ff8135169060200135610dc6565b6101e76004803603602081101561042057600080fd5b503562ffffff16610def565b610189610e93565b61043c610e9a565b60408051600160a060020a039092168252519081900360200190f35b610189610ea9565b6101e7610eb0565b6102776004803603604081101561047e57600080fd5b81019060208101813564010000000081111561049957600080fd5b8201836020820111156104ab57600080fd5b803590602001918460018302840111640100000000831117156104cd57600080fd5b91908080601f016020809104026020016040519081016040528093929190818152602001838380828437600092019190915250929594936020810193503591505064010000000081111561052057600080fd5b82018360208201111561053257600080fd5b8035906020019184600183028401116401000000008311171561055457600080fd5b91908080601f016020809104026020016040519081016040528093929190818152602001838380828437600092019190915250929550610ec1945050505050565b61043c611349565b610277600480360360408110156105b357600080fd5b62ffffff82351691908101906040810160208201356401000000008111156105da57600080fd5b8201836020820111156105ec57600080fd5b8035906020019184600183028401116401000000008311171561060e57600080fd5b91908080601f016020809104026020016040519081016040528093929190818152602001838380828437600092019190915250929550611358945050505050565b610189611848565b6101a961184f565b61043c611855565b6101a9611864565b6102776004803603602081101561068557600080fd5b5035600160a060020a031661186a565b6201010181565b7fcbc417524e52b95c42a4c42d357938497e3d199eb9b4a0139c92551d4000bc3c81565b600460209081526000928352604080842090915290825290205460ff1681565b6106e8610eb0565b15156106f357600080fd5b80151561074f57604080516000805160206122d9833981519152815260206004820152600d60248201527f70726f6f6620696e76616c696400000000000000000000000000000000000000604482015290519081900360640190fd5b6001546040517f80037eeb00000000000000000000000000000000000000000000000000000000815262ffffff8516600482019081523060448301819052606060248401818152606485018790529094600160a060020a0316936380037eeb93899389938993919291608401858580828437600081840152601f19601f82011690508083019250505095505050505050600060405180830381600087803b1580156107f957600080fd5b505af115801561080d573d6000803e3d6000fd5b505050506040513d6000823e601f3d908101601f19168201604052602081101561083657600080fd5b81019080805164010000000081111561084e57600080fd5b8201602081018481111561086157600080fd5b815164010000000081118282018710171561087b57600080fd5b50909450606093506108a2925061089d9150849050600063ffffffff61188916565b6118e8565b505091505060606108c061089d60018561188990919063ffffffff16565b5050915050600060606108e56108e060008661188990919063ffffffff16565b611912565b92509250506108f383611930565b7f6bc2dccbfc40ed5201f2896c7bc80fa4529202979a6c4195e7c95548b7bdedcb82826040518083815260200180602001828103825283818151815260200191508051906020019080838360005b83811015610959578181015183820152602001610941565b50505050905090810190601f1680156109865780820380516001836020036101000a031916815260200191505b50935050505060405180910390a15050505050505050565b600154604080517ffedee266000000000000000000000000000000000000000000000000000000008152306004820152602481018790529051600092600160a060020a03169163fedee266916044808301926080929190829003018186803b158015610a0957600080fd5b505afa158015610a1d573d6000803e3d6000fd5b505050506040513d6080811015610a3357600080fd5b50519050600160ff821614610a81576040516000805160206122d9833981519152815260040180806020018281038252602281526020018061228f6022913960400191505060405180910390fd5b604080517f4e6f74655369676e6174757265280000000000000000000000000000000000006020808301919091527f62797465733332206e6f7465486173682c000000000000000000000000000000602e8301527f61646472657373207370656e6465722c00000000000000000000000000000000603f8301527f626f6f6c20737461747573000000000000000000000000000000000000000000604f8301527f2900000000000000000000000000000000000000000000000000000000000000605a8301528251603b818403018152605b83018452805190820120607b830152609b8201889052600160a060020a03871660bb83015260ff841660db808401919091528351808403909101815260fb9092019092528051910120610ba7818785611a14565b5050506000928352600460209081526040808520600160a060020a039490941685529290529120805460ff1916911515919091179055565b600154604080517ffedee2660000000000000000000000000000000000000000000000000000000081523060048201526024810186905290516000928392600160a060020a039091169163fedee26691604480820192608092909190829003018186803b158015610c4f57600080fd5b505afa158015610c63573d6000803e3d6000fd5b505050506040513d6080811015610c7957600080fd5b5080516060909101519092509050600160ff831614610cd1576040516000805160206122d9833981519152815260040180806020018281038252602281526020018061228f6022913960400191505060405180910390fd5b8481600160a060020a03167f5c5b88831bccbd4efdc04b97a0bcb2a743b216c3cc74b4520ca833778ec87dfb868660405180806020018281038252848482818152602001925080828437600083820152604051601f909101601f19169092018290039550909350505050a35050505050565b6201040281565b610d52610eb0565b1515610d5d57600080fd5b600554604051600091600160a060020a0316907f8be0079c531659141344cd1fd0a4f28419497f9722a3daafe3b4186f6b6457e0908390a36005805473ffffffffffffffffffffffffffffffffffffffff19169055565b60066020526000908152604090205481565b610dce610eb0565b1515610dd957600080fd5b60ff909116600090815260066020526040902055565b600080600080610e038562ffffff16611b36565b9194509250905060ff8216600114610e54576040516000805160206122d983398151915281526004018080602001828103825260288152602001806122676028913960400191505060405180910390fd5b6000610e6a60ff8316600163ffffffff611b5016565b60ff94851660009081526006602052604090205494169390931c60019081161495945050505050565b6201040181565b600554600160a060020a031690565b6201020181565b600554600160a060020a0316331490565b6001546040517fa2866ea3000000000000000000000000000000000000000000000000000000008152620101016004820181815233602484018190526060604485018181528851606487015288519196600160a060020a03169563a2866ea395948a9390929160840190602085019080838360005b83811015610f4e578181015183820152602001610f36565b50505050905090810190601f168015610f7b5780820380516001836020036101000a031916815260200191505b50945050505050600060405180830381600087803b158015610f9c57600080fd5b505af1158015610fb0573d6000803e3d6000fd5b505050506040513d6000823e601f3d908101601f191682016040526020811015610fd957600080fd5b810190808051640100000000811115610ff157600080fd5b8201602081018481111561100457600080fd5b815164010000000081118282018710171561101e57600080fd5b505080519094501515925061108591505057604080516000805160206122d9833981519152815260206004820152600d60248201527f70726f6f6620696e76616c696400000000000000000000000000000000000000604482015290519081900360640190fd5b606061109882600063ffffffff61188916565b905060006110a5826118e8565b600154604080517ff971d77c000000000000000000000000000000000000000000000000000000008152306004820152905192965060009550859450600160a060020a03909116925063f971d77c9160248083019260e0929190829003018186803b15801561111357600080fd5b505afa158015611127573d6000803e3d6000fd5b505050506040513d60e081101561113d57600080fd5b506020810151604090910151909250905060008313156113355782811015611335576000611171848363ffffffff611baa16565b600254909150600160a060020a03166340c10f1930611196848763ffffffff611bb916565b6040518363ffffffff1660e01b81526004018083600160a060020a0316600160a060020a0316815260200182815260200192505050602060405180830381600087803b1580156111e557600080fd5b505af11580156111f9573d6000803e3d6000fd5b505050506040513d602081101561120f57600080fd5b5050600254600154600160a060020a039182169163095ea7b3911661123a848763ffffffff611bb916565b6040518363ffffffff1660e01b81526004018083600160a060020a0316600160a060020a0316815260200182815260200192505050602060405180830381600087803b15801561128957600080fd5b505af115801561129d573d6000803e3d6000fd5b505050506040513d60208110156112b357600080fd5b5050600154604080517f43b54208000000000000000000000000000000000000000000000000000000008152600481018490529051600160a060020a03909216916343b542089160248082019260009290919082900301818387803b15801561131b57600080fd5b505af115801561132f573d6000803e3d6000fd5b50505050505b611340858789611beb565b50505050505050565b600154600160a060020a031681565b606080600080611367856118e8565b9350935093509350600061137a85611f84565b905060005b8181101561141057600061139c6108e0888463ffffffff61188916565b50600081815260046020908152604080832033845290915290205490925060ff1615156001149050611407576040516000805160206122d983398151915281526004018080602001828103825260318152602001806122f96031913960400191505060405180910390fd5b5060010161137f565b50600154604080517ff971d77c00000000000000000000000000000000000000000000000000000000815230600482015290516000928392600160a060020a039091169163f971d77c9160248082019260e092909190829003018186803b15801561147a57600080fd5b505afa15801561148e573d6000803e3d6000fd5b505050506040513d60e08110156114a457600080fd5b5060208101516040909101519092509050600084131561169c578381101561169c5760006114d8858363ffffffff611baa16565b600254909150600160a060020a03166340c10f19306114fd848763ffffffff611bb916565b6040518363ffffffff1660e01b81526004018083600160a060020a0316600160a060020a0316815260200182815260200192505050602060405180830381600087803b15801561154c57600080fd5b505af1158015611560573d6000803e3d6000fd5b505050506040513d602081101561157657600080fd5b5050600254600154600160a060020a039182169163095ea7b391166115a1848763ffffffff611bb916565b6040518363ffffffff1660e01b81526004018083600160a060020a0316600160a060020a0316815260200182815260200192505050602060405180830381600087803b1580156115f057600080fd5b505af1158015611604573d6000803e3d6000fd5b505050506040513d602081101561161a57600080fd5b5050600154604080517f43b54208000000000000000000000000000000000000000000000000000000008152600481018490529051600160a060020a03909216916343b542089160248082019260009290919082900301818387803b15801561168257600080fd5b505af1158015611696573d6000803e3d6000fd5b50505050505b6001546040517f977796d200000000000000000000000000000000000000000000000000000000815262ffffff8b166004820190815233604483018190526060602484019081528c5160648501528c51600160a060020a039095169463977796d2948f948f94939092909160840190602086019080838360005b8381101561172e578181015183820152602001611716565b50505050905090810190601f16801561175b5780820380516001836020036101000a031916815260200191505b50945050505050600060405180830381600087803b15801561177c57600080fd5b505af1158015611790573d6000803e3d6000fd5b5050505061179d87611f8b565b6117a686611930565b60008412156117f45784600160a060020a03167ffed3b27b73d78d9d1f344bbbf25f7af35e0ac4d6cf8193604ce18082168e461a856000036040518082815260200191505060405180910390a25b600084131561183d57604080518581529051600160a060020a038716917f60213c45c34d8b94e495fd5871fdea7a7511f659e884ea25a0c8843b7f98bfad919081900360200190a25b505050505050505050565b6201030181565b60005481565b600254600160a060020a031681565b60035481565b611872610eb0565b151561187d57600080fd5b6118868161206b565b50565b6020828101519082028301604001518301908210806118e1576040516000805160206122d9833981519152815260040180806020018281038252602281526020018061234f6022913960400191505060405180910390fd5b5092915050565b6020810151604082015160608301516080840151928401949190930192600160a060020a03169190565b60408101516060820151600160a060020a0390911692909160800190565b60005b61193c82611f84565b811015611a1057600080606061195b6108e0868663ffffffff61188916565b9250925092508183600160a060020a03167f5ffb3072e4515cf3bfae8b16be9dff6313cf7c313a0c26faafe6971d8c7585f1836040518080602001828103825283818151815260200191508051906020019080838360005b838110156119cb5781810151838201526020016119b3565b50505050905090810190601f1680156119f85780820380516001836020036101000a031916815260200191505b509250505060405180910390a3505050600101611933565b5050565b600154604080517ffedee266000000000000000000000000000000000000000000000000000000008152306004820152602481018590529051600092600160a060020a03169163fedee266916044808301926080929190829003018186803b158015611a7f57600080fd5b505afa158015611a93573d6000803e3d6000fd5b505050506040513d6080811015611aa957600080fd5b5060600151825190915060009015611ada576000611ac6866120e9565b9050611ad2818561210a565b915050611add565b50335b600160a060020a0381811690831614611b2f576040516000805160206122d983398151915281526004018080602001828103825260288152602001806122b16028913960400191505060405180910390fd5b5050505050565b60ff62010000820481169261010083048216929190911690565b600060ff8084169083161115611b9f576040516000805160206122d9833981519152815260040180806020018281038252602581526020018061232a6025913960400191505060405180910390fd5b508082035b92915050565b600082821115611b9f57600080fd5b6000821515611bca57506000611ba4565b828202828482811515611bd957fe5b0414611be457600080fd5b9392505050565b604081015160005b611bfc85611f84565b811015611b2f576060611c15868363ffffffff61188916565b6001546040517f977796d200000000000000000000000000000000000000000000000000000000815262010101600482018181523060448401819052606060248501908152865160648601528651969750600160a060020a039095169563977796d2959394889492939291608490910190602086019080838360005b83811015611ca9578181015183820152602001611c91565b50505050905090810190601f168015611cd65780820380516001836020036101000a031916815260200191505b50945050505050600060405180830381600087803b158015611cf757600080fd5b505af1158015611d0b573d6000803e3d6000fd5b50505050606080600080611d1e856118e8565b93509350935093506000611d3185611f84565b1115611ecb5760005b611d4385611f84565b811015611ec9576060611d568b83612227565b90506000611d6d6108e0888563ffffffff61188916565b50604080517f4a6f696e53706c69745369676e617475726528000000000000000000000000006020808301919091527f75696e7432342070726f6f662c0000000000000000000000000000000000000060338301527f62797465733332206e6f7465486173682c000000000000000000000000000000828401527f75696e74323536206368616c6c656e67652c000000000000000000000000000060518301527f616464726573732073656e64657200000000000000000000000000000000000060638301527f290000000000000000000000000000000000000000000000000000000000000060718301528251605281840301815260728301845280519082012060928301526201010160b283015260d2820184905260f282018f905233610112808401919091528351808403909101815261013290920190925280519101209092509050611ebe818385611a14565b505050600101611d3a565b505b611ed484611f8b565b611edd83611930565b6000811215611f2b5781600160a060020a03167ffed3b27b73d78d9d1f344bbbf25f7af35e0ac4d6cf8193604ce18082168e461a826000036040518082815260200191505060405180910390a25b6000811315611f7457604080518281529051600160a060020a038416917f60213c45c34d8b94e495fd5871fdea7a7511f659e884ea25a0c8843b7f98bfad919081900360200190a25b5050505050600181019050611bf3565b6020015190565b60005b611f9782611f84565b811015611a10576000806060611fb66108e0868663ffffffff61188916565b9250925092508183600160a060020a03167febd4bb7b61198df63305dd538f077db9df9b14339d8a6221e301487770d79227836040518080602001828103825283818151815260200191508051906020019080838360005b8381101561202657818101518382015260200161200e565b50505050905090810190601f1680156120535780820380516001836020036101000a031916815260200191505b509250505060405180910390a3505050600101611f8e565b600160a060020a038116151561208057600080fd5b600554604051600160a060020a038084169216907f8be0079c531659141344cd1fd0a4f28419497f9722a3daafe3b4186f6b6457e090600090a36005805473ffffffffffffffffffffffffffffffffffffffff1916600160a060020a0392909216919091179055565b60008054604080516119019093526020919091529182526042601e20915290565b6000808251848452602084015160208560808760015afa601c8214601b8314176060841416169250845186146000811461214357612148565b855194505b505083528080156121605750600160a060020a038216155b15156118e157600160a060020a03821615156121cb57604080516000805160206122d9833981519152815260206004820152601a60248201527f7369676e657220616464726573732063616e6e6f742062652030000000000000604482015290519081900360640190fd5b8015156118e157604080516000805160206122d9833981519152815260206004820152601960248201527f7369676e6174757265207265636f76657279206661696c656400000000000000604482015290519081900360640190fd5b6060908102919091016020818101516040808401519385015181519384019290925282810193909352818401528151808203909301835260800190529056fe74686973206173736574206f6e6c7920737570706f7274732062616c616e6365642070726f6f66736f6e6c7920756e7370656e74206e6f7465732063616e20626520617070726f766564746865206e6f7465206f776e657220646964206e6f74207369676e2074686973206d65737361676508c379a00000000000000000000000000000000000000000000000000000000073656e64657220646f6573206e6f74206861766520617070726f76616c20746f207370656e6420696e707574206e6f746575696e7438207375622074726967676572656420696e746567657220756e646572666c6f77415a54454320617272617920696e646578206973206f7574206f6620626f756e6473a165627a7a723058207c834bd73925d847f9ebc8ae2e7950a5d96d5a910f34b0bf67ec401ad7bff4e30029c89efdaa54c0f20c7adf612882df0950f5a951637e0307cdcb4c672f298b8bc6",
  "source": "\n\npragma solidity >=0.5.0 <0.6.0;\n\nimport \"openzeppelin-solidity/contracts/math/SafeMath.sol\";\n\nimport \"../ACE/ACE.sol\";\nimport \"../ERC20/ERC20Mintable.sol\";\nimport \"../libs/LibEIP712.sol\";\nimport \"../libs/ProofUtils.sol\";\nimport \"./base/ZkAssetMintableBase.sol\";\n\n/**\n * @title ZkAssetMintable\n * @author AZTEC\n * @dev A contract defining the standard interface and behaviours of a mintable confidential asset.\n * The ownership values and transfer values are encrypted.\n * Copyright Spilsbury Holdings Ltd 2019. All rights reserved.\n**/\ncontract ZkAssetMintable is ZkAssetMintableBase {\n    constructor(\n        address _aceAddress,\n        address _linkedTokenAddress,\n        uint256 _scalingFactor\n    ) public ZkAssetOwnableBase(\n        _aceAddress,\n        _linkedTokenAddress,\n        _scalingFactor,\n        true // canAdjustSupply\n    ) {\n    }\n}\n\n",
  "sourcePath": "@aztec/protocol/contracts/ERC1724/ZkAssetMintable.sol",
  "compiler": {
    "name": "solc",
    "version": "0.5.4+commit.9549d8ff.Emscripten.clang"
  },
  "schemaVersion": "3.0.11",
  "updatedAt": "2019-08-02T10:33:30.849Z",
  "devdoc": {
    "author": "AZTEC",
    "details": "A contract defining the standard interface and behaviours of a mintable confidential asset. The ownership values and transfer values are encrypted. Copyright Spilsbury Holdings Ltd 2019. All rights reserved.*",
    "methods": {
      "confidentialApprove(bytes32,address,bool,bytes)": {
        "details": "Note owner approving a third party, another address, to spend the note on owner's behalf. This is necessary to allow the confidentialTransferFrom() method to be called",
        "params": {
          "_noteHash": "- keccak256 hash of the note coordinates (gamma and sigma)",
          "_signature": "- ECDSA signature from the note owner that validates the confidentialApprove() instruction",
          "_spender": "- address being approved to spend the note",
          "_status": "- defines whether the _spender address is being approved to spend the note, or if permission is being revoked"
        }
      },
      "confidentialMint(uint24,bytes)": {
        "details": "Executes a confidential minting procedure, dependent on the provided proofData being succesfully validated by the zero-knowledge validator",
        "params": {
          "_proof": "- uint24 variable which acts as a unique identifier for the proof which _proofOutput is being submitted. _proof contains three concatenated uint8 variables: 1) epoch number 2) category number 3) ID number for the proof",
          "_proofData": "- bytes array of proof data, outputted from a proof construction"
        }
      },
      "confidentialTransfer(bytes,bytes)": {
        "details": "Executes a basic unilateral, confidential transfer of AZTEC notes adapted for use with a mintable ZkAsset.    * Will submit _proofData to the validateProof() function of the Cryptography Engine.    * If public value is being transferred out of the ACE, and the minted value is greater than ACE's token balance, then tokens will be minted from the linked ERC20 token using supplementTokens()    * Upon successfull verification, it will update note registry state - creating output notes and destroying input notes.",
        "params": {
          "_proofData": "bytes variable outputted from proof construction",
          "_signatures": "ECDSA signatures over all input notes involved in the confidentialTransfer()"
        }
      },
      "confidentialTransferFrom(uint24,bytes)": {
        "details": "Executes a value transfer mediated by smart contracts. The method is supplied with transfer instructions represented by a bytes _proofOutput argument that was outputted from a proof verification contract. Adapted for use with a mintable ZkAsset. If public value is being transferred out of the ACE, and the minted value is greater than ACE's token balance, then tokens will be minted from the linked ERC20 token using supplementTokens() ",
        "params": {
          "_proof": "- uint24 variable which acts as a unique identifier for the proof which _proofOutput is being submitted. _proof contains three concatenated uint8 variables: 1) epoch number 2) category number 3) ID number for the proof",
          "_proofOutput": "- output of a zero-knowledge proof validation contract. Represents transfer instructions for the ACE"
        }
      },
      "isOwner()": {
        "return": "true if `msg.sender` is the owner of the contract."
      },
      "owner()": {
        "return": "the address of the owner."
      },
      "renounceOwnership()": {
        "details": "Allows the current owner to relinquish control of the contract. It will not be possible to call the functions with the `onlyOwner` modifier anymore."
      },
      "transferOwnership(address)": {
        "details": "Allows the current owner to transfer control of the contract to a newOwner.",
        "params": {
          "newOwner": "The address to transfer ownership to."
        }
      },
      "updateNoteMetaData(bytes32,bytes)": {
        "details": "Update the metadata of a note that already exists in storage. ",
        "params": {
          "metadata": "- metadata to update the note with. This should be the length of an IES encrypted viewing key, 0x177",
          "noteHash": "- hash of a note, used as a unique identifier for the note"
        }
      }
    },
    "title": "ZkAssetMintable"
  },
  "userdoc": {
    "methods": {
      "renounceOwnership()": {
        "notice": "Renouncing ownership will leave the contract without an owner, thereby removing any functionality that is only available to the owner."
      }
    }
  }
}