{
  "contractName": "ZkAssetOwnable",
  "abi": [
    {
      "constant": true,
      "inputs": [],
      "name": "JOIN_SPLIT_PROOF",
      "outputs": [
        {
          "name": "",
          "type": "uint24"
        }
      ],
      "payable": false,
      "stateMutability": "view",
      "type": "function"
    },
    {
      "constant": true,
      "inputs": [],
      "name": "ZERO_VALUE_NOTE_HASH",
      "outputs": [
        {
          "name": "",
          "type": "bytes32"
        }
      ],
      "payable": false,
      "stateMutability": "view",
      "type": "function"
    },
    {
      "constant": true,
      "inputs": [
        {
          "name": "",
          "type": "bytes32"
        },
        {
          "name": "",
          "type": "address"
        }
      ],
      "name": "confidentialApproved",
      "outputs": [
        {
          "name": "",
          "type": "bool"
        }
      ],
      "payable": false,
      "stateMutability": "view",
      "type": "function"
    },
    {
      "constant": false,
      "inputs": [
        {
          "name": "_noteHash",
          "type": "bytes32"
        },
        {
          "name": "_spender",
          "type": "address"
        },
        {
          "name": "_status",
          "type": "bool"
        },
        {
          "name": "_signature",
          "type": "bytes"
        }
      ],
      "name": "confidentialApprove",
      "outputs": [],
      "payable": false,
      "stateMutability": "nonpayable",
      "type": "function"
    },
    {
      "constant": false,
      "inputs": [
        {
          "name": "noteHash",
          "type": "bytes32"
        },
        {
          "name": "metadata",
          "type": "bytes"
        }
      ],
      "name": "updateNoteMetaData",
      "outputs": [],
      "payable": false,
      "stateMutability": "nonpayable",
      "type": "function"
    },
    {
      "constant": true,
      "inputs": [],
      "name": "PRIVATE_RANGE_PROOF",
      "outputs": [
        {
          "name": "",
          "type": "uint24"
        }
      ],
      "payable": false,
      "stateMutability": "view",
      "type": "function"
    },
    {
      "constant": false,
      "inputs": [],
      "name": "renounceOwnership",
      "outputs": [],
      "payable": false,
      "stateMutability": "nonpayable",
      "type": "function"
    },
    {
      "constant": true,
      "inputs": [
        {
          "name": "",
          "type": "uint8"
        }
      ],
      "name": "proofs",
      "outputs": [
        {
          "name": "",
          "type": "uint256"
        }
      ],
      "payable": false,
      "stateMutability": "view",
      "type": "function"
    },
    {
      "constant": false,
      "inputs": [
        {
          "name": "_epoch",
          "type": "uint8"
        },
        {
          "name": "_proofs",
          "type": "uint256"
        }
      ],
      "name": "setProofs",
      "outputs": [],
      "payable": false,
      "stateMutability": "nonpayable",
      "type": "function"
    },
    {
      "constant": true,
      "inputs": [
        {
          "name": "_proof",
          "type": "uint24"
        }
      ],
      "name": "supportsProof",
      "outputs": [
        {
          "name": "",
          "type": "bool"
        }
      ],
      "payable": false,
      "stateMutability": "view",
      "type": "function"
    },
    {
      "constant": true,
      "inputs": [],
      "name": "DIVIDEND_PROOF",
      "outputs": [
        {
          "name": "",
          "type": "uint24"
        }
      ],
      "payable": false,
      "stateMutability": "view",
      "type": "function"
    },
    {
      "constant": true,
      "inputs": [],
      "name": "owner",
      "outputs": [
        {
          "name": "",
          "type": "address"
        }
      ],
      "payable": false,
      "stateMutability": "view",
      "type": "function"
    },
    {
      "constant": true,
      "inputs": [],
      "name": "MINT_PROOF",
      "outputs": [
        {
          "name": "",
          "type": "uint24"
        }
      ],
      "payable": false,
      "stateMutability": "view",
      "type": "function"
    },
    {
      "constant": true,
      "inputs": [],
      "name": "isOwner",
      "outputs": [
        {
          "name": "",
          "type": "bool"
        }
      ],
      "payable": false,
      "stateMutability": "view",
      "type": "function"
    },
    {
      "constant": false,
      "inputs": [
        {
          "name": "_proofData",
          "type": "bytes"
        },
        {
          "name": "_signatures",
          "type": "bytes"
        }
      ],
      "name": "confidentialTransfer",
      "outputs": [],
      "payable": false,
      "stateMutability": "nonpayable",
      "type": "function"
    },
    {
      "constant": true,
      "inputs": [],
      "name": "ace",
      "outputs": [
        {
          "name": "",
          "type": "address"
        }
      ],
      "payable": false,
      "stateMutability": "view",
      "type": "function"
    },
    {
      "constant": false,
      "inputs": [
        {
          "name": "_proof",
          "type": "uint24"
        },
        {
          "name": "_proofOutput",
          "type": "bytes"
        }
      ],
      "name": "confidentialTransferFrom",
      "outputs": [],
      "payable": false,
      "stateMutability": "nonpayable",
      "type": "function"
    },
    {
      "constant": true,
      "inputs": [],
      "name": "BURN_PROOF",
      "outputs": [
        {
          "name": "",
          "type": "uint24"
        }
      ],
      "payable": false,
      "stateMutability": "view",
      "type": "function"
    },
    {
      "constant": true,
      "inputs": [],
      "name": "EIP712_DOMAIN_HASH",
      "outputs": [
        {
          "name": "",
          "type": "bytes32"
        }
      ],
      "payable": false,
      "stateMutability": "view",
      "type": "function"
    },
    {
      "constant": true,
      "inputs": [],
      "name": "linkedToken",
      "outputs": [
        {
          "name": "",
          "type": "address"
        }
      ],
      "payable": false,
      "stateMutability": "view",
      "type": "function"
    },
    {
      "constant": true,
      "inputs": [],
      "name": "scalingFactor",
      "outputs": [
        {
          "name": "",
          "type": "uint256"
        }
      ],
      "payable": false,
      "stateMutability": "view",
      "type": "function"
    },
    {
      "constant": false,
      "inputs": [
        {
          "name": "newOwner",
          "type": "address"
        }
      ],
      "name": "transferOwnership",
      "outputs": [],
      "payable": false,
      "stateMutability": "nonpayable",
      "type": "function"
    },
    {
      "inputs": [
        {
          "name": "_aceAddress",
          "type": "address"
        },
        {
          "name": "_linkedTokenAddress",
          "type": "address"
        },
        {
          "name": "_scalingFactor",
          "type": "uint256"
        }
      ],
      "payable": false,
      "stateMutability": "nonpayable",
      "type": "constructor"
    },
    {
      "anonymous": false,
      "inputs": [
        {
          "indexed": true,
          "name": "previousOwner",
          "type": "address"
        },
        {
          "indexed": true,
          "name": "newOwner",
          "type": "address"
        }
      ],
      "name": "OwnershipTransferred",
      "type": "event"
    },
    {
      "anonymous": false,
      "inputs": [
        {
          "indexed": true,
          "name": "aceAddress",
          "type": "address"
        },
        {
          "indexed": true,
          "name": "linkedTokenAddress",
          "type": "address"
        },
        {
          "indexed": false,
          "name": "scalingFactor",
          "type": "uint256"
        },
        {
          "indexed": true,
          "name": "_canAdjustSupply",
          "type": "bool"
        },
        {
          "indexed": false,
          "name": "_canConvert",
          "type": "bool"
        }
      ],
      "name": "CreateZkAsset",
      "type": "event"
    },
    {
      "anonymous": false,
      "inputs": [
        {
          "indexed": false,
          "name": "noteRegistryId",
          "type": "uint256"
        }
      ],
      "name": "CreateNoteRegistry",
      "type": "event"
    },
    {
      "anonymous": false,
      "inputs": [
        {
          "indexed": true,
          "name": "owner",
          "type": "address"
        },
        {
          "indexed": true,
          "name": "noteHash",
          "type": "bytes32"
        },
        {
          "indexed": false,
          "name": "metadata",
          "type": "bytes"
        }
      ],
      "name": "CreateNote",
      "type": "event"
    },
    {
      "anonymous": false,
      "inputs": [
        {
          "indexed": true,
          "name": "owner",
          "type": "address"
        },
        {
          "indexed": true,
          "name": "noteHash",
          "type": "bytes32"
        },
        {
          "indexed": false,
          "name": "metadata",
          "type": "bytes"
        }
      ],
      "name": "DestroyNote",
      "type": "event"
    },
    {
      "anonymous": false,
      "inputs": [
        {
          "indexed": true,
          "name": "owner",
          "type": "address"
        },
        {
          "indexed": false,
          "name": "value",
          "type": "uint256"
        }
      ],
      "name": "ConvertTokens",
      "type": "event"
    },
    {
      "anonymous": false,
      "inputs": [
        {
          "indexed": true,
          "name": "owner",
          "type": "address"
        },
        {
          "indexed": false,
          "name": "value",
          "type": "uint256"
        }
      ],
      "name": "RedeemTokens",
      "type": "event"
    },
    {
      "anonymous": false,
      "inputs": [
        {
          "indexed": true,
          "name": "owner",
          "type": "address"
        },
        {
          "indexed": true,
          "name": "noteHash",
          "type": "bytes32"
        },
        {
          "indexed": false,
          "name": "metadata",
          "type": "bytes"
        }
      ],
      "name": "UpdateNoteMetadata",
      "type": "event"
    }
  ],
  "bytecode": "0x608060405234801561001057600080fd5b506040516060806200202f8339810180604052606081101561003157600080fd5b50805160208083015160409384015184517f454950373132446f6d61696e2800000000000000000000000000000000000000818501527f737472696e67206e616d652c0000000000000000000000000000000000000000602d8201527f737472696e672076657273696f6e2c000000000000000000000000000000000060398201527f6164647265737320766572696679696e67436f6e74726163740000000000000060488201527f29000000000000000000000000000000000000000000000000000000000000006061820152855160428183030181526062820180885281519186019190912060a28301885260199091527f415a5445435f43525950544f4752415048595f454e47494e450000000000000060829092019190915285518087018752600181527f3100000000000000000000000000000000000000000000000000000000000000908501528551808501919091527fc8066e2c715ce196630b273cd256d8959d5b9fefc55e9e6d999fb0f08bb7f75f818701526000805160206200200f8339815191526060820152306080808301919091528651808303909101815260a09091019095528451949092019390932060009081559192918390839083908383838380600160a060020a03841615610210576001610213565b60005b604080517f454950373132446f6d61696e28000000000000000000000000000000000000006020808301919091527f737472696e67206e616d652c0000000000000000000000000000000000000000602d8301527f737472696e672076657273696f6e2c000000000000000000000000000000000060398301527f6164647265737320766572696679696e67436f6e74726163740000000000000060488301527f29000000000000000000000000000000000000000000000000000000000000006061830152825160428184030181526062830180855281519183019190912060a28401855260089091527f5a4b5f41535345540000000000000000000000000000000000000000000000006082909301929092528251808401845260018082527f3100000000000000000000000000000000000000000000000000000000000000918301919091528351808301939093527f34a1782c7b6da6ed013d1c63b38e9a7204574db51f6df9ff13aa1786590013fd838501526000805160206200200f833981519152606084015230600090811b6080808601919091528551808603909101815260a085018087528151919094012081558154600160a060020a038c8116600160a060020a03199283161793849055600280548d831693168317905560038b90557fa5468ca20000000000000000000000000000000000000000000000000000000090945260a485015260c4840189905287151560e48501528515156101048501529351949550169263a5468ca2926101248084019391929182900301818387803b15801561046557600080fd5b505af1158015610479573d6000803e3d6000fd5b505060408051868152841515602082015281518615159450600160a060020a03808a1694508a16927fca576e79bcb5c4a0045d9d596a80c733c3997559f688f69e5c03bd737d885b86928290030190a4505060058054600160a060020a031916331790819055604051600160a060020a03919091169350600092507f8be0079c531659141344cd1fd0a4f28419497f9722a3daafe3b4186f6b6457e091508290a350505050505050611ade80620005316000396000f3fe608060405234801561001057600080fd5b50600436106101615760003560e01c80638da5cb5b116100c8578063cdfea90e1161008c578063ea12489f11610066578063ea12489f146105c8578063ed3437f8146105d0578063f2fde38b146105d857610161565b8063cdfea90e14610506578063df924625146105b8578063e306f779146105c057610161565b80638da5cb5b1461039d5780638e526d9b146103c15780638f32d59b146103c957806396988498146103d1578063a5c8fa84146104fe57610161565b806349518b281161012a57806376ae6bee1161010457806376ae6bee1461034d5780637f08dede146103735780638500e1f81461039557610161565b806349518b281461031d578063715018a614610325578063764481181461032d57610161565b80625bf7321461016657806307616051146101865780630f4a80fe146101a05780631f2ac16a146101e05780632e3b9a3b146102a6575b600080fd5b61016e6105fe565b6040805162ffffff9092168252519081900360200190f35b61018e610605565b60408051918252519081900360200190f35b6101cc600480360360408110156101b657600080fd5b5080359060200135600160a060020a0316610629565b604080519115158252519081900360200190f35b6102a4600480360360808110156101f657600080fd5b813591600160a060020a036020820135169160408201351515919081019060808101606082013564010000000081111561022f57600080fd5b82018360208201111561024157600080fd5b8035906020019184600183028401116401000000008311171561026357600080fd5b91908080601f016020809104026020016040519081016040528093929190818152602001838380828437600092019190915250929550610649945050505050565b005b6102a4600480360360408110156102bc57600080fd5b813591908101906040810160208201356401000000008111156102de57600080fd5b8201836020820111156102f057600080fd5b8035906020019184600183028401116401000000008311171561031257600080fd5b50909250905061088a565b61016e6109ee565b6102a46109f5565b61018e6004803603602081101561034357600080fd5b503560ff16610a5f565b6102a46004803603604081101561036357600080fd5b5060ff8135169060200135610a71565b6101cc6004803603602081101561038957600080fd5b503562ffffff16610a9a565b61016e610b3e565b6103a5610b45565b60408051600160a060020a039092168252519081900360200190f35b61016e610b54565b6101cc610b5b565b6102a4600480360360408110156103e757600080fd5b81019060208101813564010000000081111561040257600080fd5b82018360208201111561041457600080fd5b8035906020019184600183028401116401000000008311171561043657600080fd5b91908080601f016020809104026020016040519081016040528093929190818152602001838380828437600092019190915250929594936020810193503591505064010000000081111561048957600080fd5b82018360208201111561049b57600080fd5b803590602001918460018302840111640100000000831117156104bd57600080fd5b91908080601f016020809104026020016040519081016040528093929190818152602001838380828437600092019190915250929550610b6c945050505050565b6103a5610ce3565b6102a46004803603604081101561051c57600080fd5b62ffffff823516919081019060408101602082013564010000000081111561054357600080fd5b82018360208201111561055557600080fd5b8035906020019184600183028401116401000000008311171561057757600080fd5b91908080601f016020809104026020016040519081016040528093929190818152602001838380828437600092019190915250929550610cf2945050505050565b61016e610d68565b61018e610d6f565b6103a5610d75565b61018e610d84565b6102a4600480360360208110156105ee57600080fd5b5035600160a060020a0316610d8a565b6201010181565b7fcbc417524e52b95c42a4c42d357938497e3d199eb9b4a0139c92551d4000bc3c81565b600460209081526000928352604080842090915290825290205460ff1681565b600154604080517ffedee266000000000000000000000000000000000000000000000000000000008152306004820152602481018790529051600092600160a060020a03169163fedee266916044808301926080929190829003018186803b1580156106b457600080fd5b505afa1580156106c8573d6000803e3d6000fd5b505050506040513d60808110156106de57600080fd5b50519050600160ff82161461072c57604051600080516020611a1b83398151915281526004018080602001828103825260228152602001806119d16022913960400191505060405180910390fd5b604080517f4e6f74655369676e6174757265280000000000000000000000000000000000006020808301919091527f62797465733332206e6f7465486173682c000000000000000000000000000000602e8301527f61646472657373207370656e6465722c00000000000000000000000000000000603f8301527f626f6f6c20737461747573000000000000000000000000000000000000000000604f8301527f2900000000000000000000000000000000000000000000000000000000000000605a8301528251603b818403018152605b83018452805190820120607b830152609b8201889052600160a060020a03871660bb83015260ff841660db808401919091528351808403909101815260fb9092019092528051910120610852818785610da9565b5050506000928352600460209081526040808520600160a060020a039490941685529290529120805460ff1916911515919091179055565b600154604080517ffedee2660000000000000000000000000000000000000000000000000000000081523060048201526024810186905290516000928392600160a060020a039091169163fedee26691604480820192608092909190829003018186803b1580156108fa57600080fd5b505afa15801561090e573d6000803e3d6000fd5b505050506040513d608081101561092457600080fd5b5080516060909101519092509050600160ff83161461097c57604051600080516020611a1b83398151915281526004018080602001828103825260228152602001806119d16022913960400191505060405180910390fd5b8481600160a060020a03167f5c5b88831bccbd4efdc04b97a0bcb2a743b216c3cc74b4520ca833778ec87dfb868660405180806020018281038252848482818152602001925080828437600083820152604051601f909101601f19169092018290039550909350505050a35050505050565b6201040281565b6109fd610b5b565b1515610a0857600080fd5b600554604051600091600160a060020a0316907f8be0079c531659141344cd1fd0a4f28419497f9722a3daafe3b4186f6b6457e0908390a36005805473ffffffffffffffffffffffffffffffffffffffff19169055565b60066020526000908152604090205481565b610a79610b5b565b1515610a8457600080fd5b60ff909116600090815260066020526040902055565b600080600080610aae8562ffffff16610ecb565b9194509250905060ff8216600114610aff57604051600080516020611a1b83398151915281526004018080602001828103825260288152602001806119a96028913960400191505060405180910390fd5b6000610b1560ff8316600163ffffffff610ee516565b60ff94851660009081526006602052604090205494169390931c60019081161495945050505050565b6201040181565b600554600160a060020a031690565b6201020181565b600554600160a060020a0316331490565b6001546040517fa2866ea3000000000000000000000000000000000000000000000000000000008152620101016004820181815233602484018190526060604485018181528851606487015288519196600160a060020a03169563a2866ea395948a9390929160840190602085019080838360005b83811015610bf9578181015183820152602001610be1565b50505050905090810190601f168015610c265780820380516001836020036101000a031916815260200191505b50945050505050600060405180830381600087803b158015610c4757600080fd5b505af1158015610c5b573d6000803e3d6000fd5b505050506040513d6000823e601f3d908101601f191682016040526020811015610c8457600080fd5b810190808051640100000000811115610c9c57600080fd5b82016020810184811115610caf57600080fd5b8151640100000000811182820187101715610cc957600080fd5b50509291905050509050610cde818385610f3a565b505050565b600154600160a060020a031681565b6000610cfd83610a9a565b9050600181151514610d5e5760408051600080516020611a1b833981519152815260206004820152601e60248201527f65787065637465642070726f6f6620746f20626520737570706f727465640000604482015290519081900360640190fd5b610cde83836112d8565b6201030181565b60005481565b600254600160a060020a031681565b60035481565b610d92610b5b565b1515610d9d57600080fd5b610da68161153b565b50565b600154604080517ffedee266000000000000000000000000000000000000000000000000000000008152306004820152602481018590529051600092600160a060020a03169163fedee266916044808301926080929190829003018186803b158015610e1457600080fd5b505afa158015610e28573d6000803e3d6000fd5b505050506040513d6080811015610e3e57600080fd5b5060600151825190915060009015610e6f576000610e5b866115b9565b9050610e6781856115da565b915050610e72565b50335b600160a060020a0381811690831614610ec457604051600080516020611a1b83398151915281526004018080602001828103825260288152602001806119f36028913960400191505060405180910390fd5b5050505050565b60ff62010000820481169261010083048216929190911690565b600060ff8084169083161115610f3457604051600080516020611a1b8339815191528152600401808060200182810382526025815260200180611a6c6025913960400191505060405180910390fd5b50900390565b604081015160005b610f4b856116fe565b811015610ec4576060610f64868363ffffffff61170516565b6001546040517f977796d200000000000000000000000000000000000000000000000000000000815262010101600482018181523060448401819052606060248501908152865160648601528651969750600160a060020a039095169563977796d2959394889492939291608490910190602086019080838360005b83811015610ff8578181015183820152602001610fe0565b50505050905090810190601f1680156110255780820380516001836020036101000a031916815260200191505b50945050505050600060405180830381600087803b15801561104657600080fd5b505af115801561105a573d6000803e3d6000fd5b5050505060608060008061106d8561175d565b93509350935093506000611080856116fe565b111561121f5760005b611092856116fe565b81101561121d5760606110a58b83611787565b905060006110c16110bc888563ffffffff61170516565b6117c6565b50604080517f4a6f696e53706c69745369676e617475726528000000000000000000000000006020808301919091527f75696e7432342070726f6f662c0000000000000000000000000000000000000060338301527f62797465733332206e6f7465486173682c000000000000000000000000000000828401527f75696e74323536206368616c6c656e67652c000000000000000000000000000060518301527f616464726573732073656e64657200000000000000000000000000000000000060638301527f290000000000000000000000000000000000000000000000000000000000000060718301528251605281840301815260728301845280519082012060928301526201010160b283015260d2820184905260f282018f905233610112808401919091528351808403909101815261013290920190925280519101209092509050611212818385610da9565b505050600101611089565b505b611228846117e4565b611231836118c8565b600081121561127f5781600160a060020a03167ffed3b27b73d78d9d1f344bbbf25f7af35e0ac4d6cf8193604ce18082168e461a826000036040518082815260200191505060405180910390a25b60008113156112c857604080518281529051600160a060020a038416917f60213c45c34d8b94e495fd5871fdea7a7511f659e884ea25a0c8843b7f98bfad919081900360200190a25b5050505050600181019050610f42565b6060806000806112e78561175d565b935093509350935060006112fa856116fe565b905060005b8181101561139057600061131c6110bc888463ffffffff61170516565b50600081815260046020908152604080832033845290915290205490925060ff161515600114905061138757604051600080516020611a1b8339815191528152600401808060200182810382526031815260200180611a3b6031913960400191505060405180910390fd5b506001016112ff565b506001546040517f977796d200000000000000000000000000000000000000000000000000000000815262ffffff89166004820190815233604483018190526060602484019081528a5160648501528a51600160a060020a039095169463977796d2948d948d94939092909160840190602086019080838360005b8381101561142357818101518382015260200161140b565b50505050905090810190601f1680156114505780820380516001836020036101000a031916815260200191505b50945050505050600060405180830381600087803b15801561147157600080fd5b505af1158015611485573d6000803e3d6000fd5b50505050611492856117e4565b61149b846118c8565b60008212156114e95782600160a060020a03167ffed3b27b73d78d9d1f344bbbf25f7af35e0ac4d6cf8193604ce18082168e461a836000036040518082815260200191505060405180910390a25b600082131561153257604080518381529051600160a060020a038516917f60213c45c34d8b94e495fd5871fdea7a7511f659e884ea25a0c8843b7f98bfad919081900360200190a25b50505050505050565b600160a060020a038116151561155057600080fd5b600554604051600160a060020a038084169216907f8be0079c531659141344cd1fd0a4f28419497f9722a3daafe3b4186f6b6457e090600090a36005805473ffffffffffffffffffffffffffffffffffffffff1916600160a060020a0392909216919091179055565b60008054604080516119019093526020919091529182526042601e20915290565b6000808251848452602084015160208560808760015afa601c8214601b8314176060841416169250845186146000811461161357611618565b855194505b505083528080156116305750600160a060020a038216155b15156116f757600160a060020a038216151561169b5760408051600080516020611a1b833981519152815260206004820152601a60248201527f7369676e657220616464726573732063616e6e6f742062652030000000000000604482015290519081900360640190fd5b8015156116f75760408051600080516020611a1b833981519152815260206004820152601960248201527f7369676e6174757265207265636f76657279206661696c656400000000000000604482015290519081900360640190fd5b5092915050565b6020015190565b6020828101519082028301604001518301908210806116f757604051600080516020611a1b8339815191528152600401808060200182810382526022815260200180611a916022913960400191505060405180910390fd5b6020810151604082015160608301516080840151928401949190930192600160a060020a03169190565b60609081029190910160208181015160408084015193850151815193840192909252828101939093528184015281518082039093018352608001905290565b60408101516060820151600160a060020a0390911692909160800190565b60005b6117f0826116fe565b8110156118c457600080606061180f6110bc868663ffffffff61170516565b9250925092508183600160a060020a03167febd4bb7b61198df63305dd538f077db9df9b14339d8a6221e301487770d79227836040518080602001828103825283818151815260200191508051906020019080838360005b8381101561187f578181015183820152602001611867565b50505050905090810190601f1680156118ac5780820380516001836020036101000a031916815260200191505b509250505060405180910390a35050506001016117e7565b5050565b60005b6118d4826116fe565b8110156118c45760008060606118f36110bc868663ffffffff61170516565b9250925092508183600160a060020a03167f5ffb3072e4515cf3bfae8b16be9dff6313cf7c313a0c26faafe6971d8c7585f1836040518080602001828103825283818151815260200191508051906020019080838360005b8381101561196357818101518382015260200161194b565b50505050905090810190601f1680156119905780820380516001836020036101000a031916815260200191505b509250505060405180910390a35050506001016118cb56fe74686973206173736574206f6e6c7920737570706f7274732062616c616e6365642070726f6f66736f6e6c7920756e7370656e74206e6f7465732063616e20626520617070726f766564746865206e6f7465206f776e657220646964206e6f74207369676e2074686973206d65737361676508c379a00000000000000000000000000000000000000000000000000000000073656e64657220646f6573206e6f74206861766520617070726f76616c20746f207370656e6420696e707574206e6f746575696e7438207375622074726967676572656420696e746567657220756e646572666c6f77415a54454320617272617920696e646578206973206f7574206f6620626f756e6473a165627a7a723058208a02af06ce74b40721eef29fe92f945861e4d440d1e7ab38687cd78d43c2144f0029c89efdaa54c0f20c7adf612882df0950f5a951637e0307cdcb4c672f298b8bc6",
  "source": "pragma solidity >=0.5.0 <0.6.0;\n\nimport \"./base/ZkAssetOwnableBase.sol\";\nimport \"../libs/ProofUtils.sol\";\nimport \"../libs/SafeMath8.sol\";\n\nimport \"openzeppelin-solidity/contracts/ownership/Ownable.sol\";\n\n/**\n * @title ZkAssetOwnable\n * @author AZTEC\n * @dev A contract which inherits from ZkAsset and includes the definition\n * of the contract owner\n * Copyright Spilsbury Holdings Ltd 2019. All rights reserved.\n **/\n\ncontract ZkAssetOwnable is ZkAssetOwnableBase {\n    constructor(\n        address _aceAddress,\n        address _linkedTokenAddress,\n        uint256 _scalingFactor\n    ) public ZkAssetOwnableBase(\n        _aceAddress,\n        _linkedTokenAddress,\n        _scalingFactor,\n        false // canAdjustSupply\n    ) {\n    }\n}\n",
  "sourcePath": "@aztec/protocol/contracts/ERC1724/ZkAssetOwnable.sol",
  "compiler": {
    "name": "solc",
    "version": "0.5.4+commit.9549d8ff.Emscripten.clang"
  },
  "schemaVersion": "3.0.11",
  "updatedAt": "2019-09-06T13:05:47.958Z",
  "devdoc": {
    "author": "AZTEC",
    "details": "A contract which inherits from ZkAsset and includes the definition of the contract owner Copyright Spilsbury Holdings Ltd 2019. All rights reserved.*",
    "methods": {
      "confidentialApprove(bytes32,address,bool,bytes)": {
        "details": "Note owner approving a third party, another address, to spend the note on owner's behalf. This is necessary to allow the confidentialTransferFrom() method to be called",
        "params": {
          "_noteHash": "- keccak256 hash of the note coordinates (gamma and sigma)",
          "_signature": "- ECDSA signature from the note owner that validates the confidentialApprove() instruction",
          "_spender": "- address being approved to spend the note",
          "_status": "- defines whether the _spender address is being approved to spend the note, or if permission is being revoked"
        }
      },
      "confidentialTransfer(bytes,bytes)": {
        "details": "Executes a basic unilateral, confidential transfer of AZTEC notes Will submit _proofData to the validateProof() function of the Cryptography Engine.    * Upon successfull verification, it will update note registry state - creating output notes and destroying input notes.",
        "params": {
          "_proofData": "- bytes variable outputted from a proof verification contract, representing transfer instructions for the ACE",
          "_signatures": "- array of the ECDSA signatures over all inputNotes "
        }
      },
      "isOwner()": {
        "return": "true if `msg.sender` is the owner of the contract."
      },
      "owner()": {
        "return": "the address of the owner."
      },
      "renounceOwnership()": {
        "details": "Allows the current owner to relinquish control of the contract. It will not be possible to call the functions with the `onlyOwner` modifier anymore."
      },
      "transferOwnership(address)": {
        "details": "Allows the current owner to transfer control of the contract to a newOwner.",
        "params": {
          "newOwner": "The address to transfer ownership to."
        }
      },
      "updateNoteMetaData(bytes32,bytes)": {
        "details": "Update the metadata of a note that already exists in storage. ",
        "params": {
          "metadata": "- metadata to update the note with. This should be the length of an IES encrypted viewing key, 0x177",
          "noteHash": "- hash of a note, used as a unique identifier for the note"
        }
      }
    },
    "title": "ZkAssetOwnable"
  },
  "userdoc": {
    "methods": {
      "renounceOwnership()": {
        "notice": "Renouncing ownership will leave the contract without an owner, thereby removing any functionality that is only available to the owner."
      }
    }
  }
}