{
  "contractName": "ACETest",
  "abi": [
    {
      "constant": true,
      "inputs": [],
      "name": "ace",
      "outputs": [
        {
          "name": "",
          "type": "address"
        }
      ],
      "payable": false,
      "stateMutability": "view",
      "type": "function"
    },
    {
      "anonymous": false,
      "inputs": [
        {
          "indexed": false,
          "name": "proofOutputs",
          "type": "bytes"
        }
      ],
      "name": "DebugValidateProofs",
      "type": "event"
    },
    {
      "constant": false,
      "inputs": [
        {
          "name": "_aceAddress",
          "type": "address"
        }
      ],
      "name": "setACEAddress",
      "outputs": [],
      "payable": false,
      "stateMutability": "nonpayable",
      "type": "function"
    },
    {
      "constant": false,
      "inputs": [
        {
          "name": "_proof",
          "type": "uint24"
        },
        {
          "name": "_sender",
          "type": "address"
        },
        {
          "name": "_proofData",
          "type": "bytes"
        }
      ],
      "name": "validateProof",
      "outputs": [
        {
          "name": "",
          "type": "bytes"
        }
      ],
      "payable": false,
      "stateMutability": "nonpayable",
      "type": "function"
    }
  ],
  "bytecode": "0x608060405234801561001057600080fd5b50610422806100206000396000f3fe608060405234801561001057600080fd5b50600436106100415760003560e01c80631a3b4dfe14610046578063a2866ea31461006e578063a5c8fa84146101a3575b600080fd5b61006c6004803603602081101561005c57600080fd5b50356001600160a01b03166101c7565b005b61012e6004803603606081101561008457600080fd5b62ffffff823516916001600160a01b03602082013516918101906060810160408201356401000000008111156100b957600080fd5b8201836020820111156100cb57600080fd5b803590602001918460018302840111640100000000831117156100ed57600080fd5b91908080601f0160208091040260200160405190810160405280939291908181526020018383808284376000920191909152509295506101e9945050505050565b6040805160208082528351818301528351919283929083019185019080838360005b83811015610168578181015183820152602001610150565b50505050905090810190601f1680156101955780820380516001836020036101000a031916815260200191505b509250505060405180910390f35b6101ab6103e7565b604080516001600160a01b039092168252519081900360200190f35b600080546001600160a01b0319166001600160a01b0392909216919091179055565b60008054604051600160e01b63a2866ea302815262ffffff8616600482019081526001600160a01b03868116602484015260606044840181815287516064860152875191968796939093169463a2866ea3948b948b948b949293608401916020860191908190849084905b8381101561026c578181015183820152602001610254565b50505050905090810190601f1680156102995780820380516001836020036101000a031916815260200191505b50945050505050600060405180830381600087803b1580156102ba57600080fd5b505af11580156102ce573d6000803e3d6000fd5b505050506040513d6000823e601f3d908101601f1916820160405260208110156102f757600080fd5b81019080805164010000000081111561030f57600080fd5b8201602081018481111561032257600080fd5b815164010000000081118282018710171561033c57600080fd5b505092919050505090507fda862b89d9be885b0c99f8ca3083e06c0dbab94477d868c210ca5c65dcf70a5a816040518080602001828103825283818151815260200191508051906020019080838360005b838110156103a557818101518382015260200161038d565b50505050905090810190601f1680156103d25780820380516001836020036101000a031916815260200191505b509250505060405180910390a1509392505050565b6000546001600160a01b03168156fea165627a7a72305820d990594b047e413522d542c40cf7c4d726638ac79d3166f68062e02846cf893a0029",
  "source": "pragma solidity >=0.5.0 <0.6.0;\n\nimport \"../../ACE/ACE.sol\";\n\ncontract ACETest {\n    event DebugValidateProofs(bytes proofOutputs);\n\n    ACE public ace;\n\n    function setACEAddress(address _aceAddress) public {\n        ace = ACE(_aceAddress);\n    }\n\n    function validateProof(\n        uint24 _proof,\n        address _sender,\n        bytes memory _proofData\n    ) public returns (bytes memory) {\n        bytes memory proofOutputs = ace.validateProof(_proof, _sender, _proofData);\n        emit DebugValidateProofs(proofOutputs);\n    }\n}\n",
  "sourcePath": "/Users/joeandrews/Documents/Code/AZTEC/packages/protocol/contracts/test/ACE/ACETest.sol",
  "compiler": {
    "name": "solc",
    "version": "0.5.7+commit.6da8b019.Emscripten.clang"
  },
  "schemaVersion": "3.0.11",
  "updatedAt": "2019-08-01T10:46:36.053Z",
  "devdoc": {
    "methods": {}
  },
  "userdoc": {
    "methods": {}
  }
}