{
  "contractName": "BilateralSwapABIEncoderTest",
  "abi": [
    {
      "constant": true,
      "inputs": [
        {
          "name": "",
          "type": "bytes"
        },
        {
          "name": "",
          "type": "address"
        },
        {
          "name": "",
          "type": "uint256[6]"
        }
      ],
      "name": "validateBilateralSwap",
      "outputs": [
        {
          "name": "",
          "type": "bytes"
        }
      ],
      "payable": false,
      "stateMutability": "pure",
      "type": "function"
    }
  ],
  "bytecode": "0x608060405234801561001057600080fd5b50610435806100206000396000f3fe608060405234801561001057600080fd5b506004361061002b5760003560e01c80636b9cc11d14610030575b600080fd5b6100af600480360361010081101561004757600080fd5b81019060208101813564010000000081111561006257600080fd5b82018360208201111561007457600080fd5b8035906020019184600183028401116401000000008311171561009657600080fd5b91935091506001600160a01b0381351690602001610124565b6040805160208082528351818301528351919283929083019185019080838360005b838110156100e95781810151838201526020016100d1565b50505050905090810190601f1680156101165780820380516001836020036101000a031916815260200191505b509250505060405180910390f35b606061012e610136565b949350505050565b610144356101040161016435610124016101843561014401602082033560041460208203356002141661016857600080fd5b60206101605260026101a05260806101c05260c06102205261020061024052600061026052600061028052610124356102a0526101206102c05260016102e052606061030052600160005260806060840160203760c06103205260016103405281356103605260a06000206103805260406103a052600160ff1b60016040511602602051176103c052600160ff1b60016080511602606051176103e05260016104205260606104405260806101e0840160203760016104805260408201356104a05260a06000206104c052803580604083030135806040016104e052600160ff1b600160405116026020511761050052600160ff1b60016080511602606051176105205280602084038301610540378060c00161046052806101200161040052806103200161020052806103c0016101e052806105400160c06020820152610200604082015260006060820152600060808201526101243560e052602060e02060a082015261012060c0820152600160e0820152606061010082015260806102a0870160203760c06101208201526001610140820152606085013561016082015260a060002061018082015260406101a0820152600160ff1b60016040511602602051176101c0820152600160ff1b60016080511602606051176101e08201526001610220820152606061024082015260806101208701602037600161028082015260208501356102a082015260a06000206102c082015260208401359250826040850301359150816040016102e0820152600160ff1b6001604051160260205117610300820152600160ff1b6001608051160260605117610320820152816020850384016103408301378160c00161026082015281610120016102008201528161032001815261020051826103c001016101805260406101805101610160f3fea165627a7a7230582042a63205e9622d6b1f5e3fa180807b23d3ff26042550dda7c013ae191e0caf980029",
  "source": "pragma solidity >=0.5.0 <0.6.0;\n\nimport \"../../../../ACE/validators/bilateralSwap/BilateralSwapABIEncoder.sol\";\n\n/**\n * @title Bilateral Swap ABI Encoder Test\n * @author AZTEC\n * @dev Don't include this as an internal library. This contract uses a static memory table to cache\n * elliptic curve primitives and hashes.\n * Calling this internally from another function will lead to memory mutation and undefined behaviour.\n * The intended use case is to call this externally via `staticcall`.\n * External calls to OptimizedAZTEC can be treated as pure functions as this contract contains no\n * storage and makes no external calls (other than to precompiles)\n * Copyright Spilsbury Holdings Ltd 2019. All rights reserved.\n **/\ncontract BilateralSwapABIEncoderTest {\n    function validateBilateralSwap(\n        bytes calldata, \n        address, \n        uint[6] calldata\n    ) \n        external \n        pure \n        returns (bytes memory) \n    {\n        BilateralSwapABIEncoder.encodeAndExit();\n    }\n}\n",
  "sourcePath": "/Users/joeandrews/Documents/Code/AZTEC/packages/protocol/contracts/test/ACE/validators/bilateralSwap/BilateralSwapABIEncoderTest.sol",
  "compiler": {
    "name": "solc",
    "version": "0.5.7+commit.6da8b019.Emscripten.clang"
  },
  "schemaVersion": "3.0.9",
  "updatedAt": "2019-07-22T16:28:22.522Z",
  "devdoc": {
    "author": "AZTEC",
    "details": "Don't include this as an internal library. This contract uses a static memory table to cache elliptic curve primitives and hashes. Calling this internally from another function will lead to memory mutation and undefined behaviour. The intended use case is to call this externally via `staticcall`. External calls to OptimizedAZTEC can be treated as pure functions as this contract contains no storage and makes no external calls (other than to precompiles) Copyright Spilsbury Holdings Ltd 2019. All rights reserved.*",
    "methods": {},
    "title": "Bilateral Swap ABI Encoder Test"
  },
  "userdoc": {
    "methods": {}
  }
}