{
  "contractName": "DividendComputation",
  "abi": [
    {
      "payable": false,
      "stateMutability": "pure",
      "type": "function",
      "constant": true,
      "inputs": [
        {
          "name": "",
          "type": "bytes"
        },
        {
          "name": "",
          "type": "address"
        },
        {
          "name": "",
          "type": "uint256[6]"
        }
      ],
      "name": "validateDividendComputation",
      "outputs": [
        {
          "name": "",
          "type": "bytes"
        }
      ]
    }
  ],
  "bytecode": "0x608060405234801561001057600080fd5b5061076b806100206000396000f3fe608060405234801561001057600080fd5b50610019610023565b6060604052610278565b60443560805260643560a052610184356101040180357f30644e72e131a029b85045b68181585d2833e84879b9709143e1f593f0000001806101243506816101443506826101643506621000008211156100835761019060005260206000fd5b6210000081111561009a5761019060005260206000fd5b6024356102a052816102c052806102e0526100b585876104fb565b608085026103000160005b60038110156102455760c081026020890101600060208201358760018511600181146100f157801561010e57610113565b8a8b8a60c08803358e03098c8a61017f1989013509089350610113565b843593505b5089600051068a81850993508a81840992508a818b099150602060002060005261013e83858761044e565b60406080860160e0376040808601602037818b0361012052836060528260c05260406101a0606060e060075afa60406101206060602060075afa1660406101606060608060075afa166040610160608061012060065afa16604088608061016060065afa16866101e857602051610260526040516102805260e0516101e052610100517f30644e72e131a029b85045b68181585d97816a916871ca8d3c208c16d87cfd4703610200525b861561021f578260605260406102206060602060075afa166040610260608061022060065afa1660406101e060806101a060065afa165b806102305761019060005260206000fd5b505050604094909401935050506001016100c0565b50610250608461027d565b846102a082036102a0200684811461026e5761019460005260206000fd5b5050505050505050565b610449565b7f30644e72e131a029b85045b68181585d97816a916871ca8d3c208c16d87cfd4781356020830135604084013560608501357f090689d0585ff075ec9e99ad690c3395bc4b313370b38ef355acdadcd122975b81147f12c85ea5db8c6deb4aab71808dcb408fe3d1e7690c43d37b4ce6cc0166fa7daa83147f198e9393920d483a7260bfb731fb5d25f1aa493335a9e71297e485b7aef312c285147f1800deef121f1e76426a00665e5c4479674322d4f75edadd46debd5cd992f6ed87148415861588158a15171717171717171561035b5761019060005260206000fd5b6101e051602052610200516040527f1800deef121f1e76426a00665e5c4479674322d4f75edadd46debd5cd992f6ed6080527f198e9393920d483a7260bfb731fb5d25f1aa493335a9e71297e485b7aef312c26060527f12c85ea5db8c6deb4aab71808dcb408fe3d1e7690c43d37b4ce6cc0166fa7daa60c0527f090689d0585ff075ec9e99ad690c3395bc4b313370b38ef355acdadcd122975b60a0526102605160e05261028051610100528361014052826101205281610180528061016052602080610180602060085afa60205115811517156104405761019060005260206000fd5b50505050505050565b6104f6565b7f30644e72e131a029b85045b68181585d2833e84879b9709143e1f593f00000017f30644e72e131a029b85045b68181585d97816a916871ca8d3c208c16d87cfd4760408301356060840135608085013560a086013584838409856003878789898a090908148582830986600388868a888909090814166001891189888b06141660018b118b898d06141616166104eb5761019060005260206000fd5b505050505050505050565b610532565b60005b8281101561052457606060c08202830101608081608084026103000137506001016104fe565b505060800261030020600052565b61053a61053c565b005b6101843561010401803560016101a435610124016101c435610124016101e4356101440160016101a05260606101c05260c0610200526000610240526000806102605261012435610280526102a0856020820152602086026102e00160005b8781101561062e5760c0810260208b0101600160005260806040820160203760c08352600160208401528735604084015260a0600020606084015260406080840152600160ff1b60016060830135160260408201351760a0840152600160ff1b600160a0830135160260808201351760c08401528383036020830260408601015260e0830192505060018101905061059b565b50601f1982820390810190925260c0909101610220528587036020828101829052028101604001865b888110156107105760c0810260208b01016020898303028601358060408803013560016000526080604084016020378060c00185526001602086015260208b850302890135604086015260a06000206060860152806040016080860152600160ff1b600160405116026020511760a0860152600160ff1b600160805116026060511760c08601528060208903830160e087013785850360208c860302604088010152602085510185019450505050600181019050610657565b5060208282030382526102a081038060a0016101e0528061010001610180526020610160528061014001610160f3fea165627a7a72305820dc20029598a6e4cecac73624bb9b2c16e962b640b046c33fdcc761c48f39edb00029",
  "source": "pragma solidity >=0.5.0 <0.6.0;\n\nimport \"./DividendComputationABIEncoder.sol\";\nimport \"../../../interfaces/DividendComputationInterface.sol\";\n\n/**\n * @title Library to validate AZTEC dividend computation proofs\n * @author AZTEC\n * @dev Don't include this as an internal library. This contract uses a static memory table \n * to cache elliptic curve primitives and hashes.\n * Calling this internally from another function will lead to memory mutation and undefined behaviour.\n * The intended use case is to call this externally via `staticcall`. External calls to OptimizedAZTEC \n * can be treated as pure functions as this contract contains no storage and makes no external calls \n * (other than to precompiles).\n * Copyright Spilbury Holdings Ltd 2019. All rights reserved.\n **/\ncontract DividendComputation {\n    /**\n     * @dev This will take any dividend calculation proof data and attempt to verify it in zero-knowledge\n     * If the proof is not valid, the transaction throws.\n     * @notice See DividendComputationInterface for how method calls should be constructed.\n     * DividendComputation is written in YUL to enable manual memory management and for other efficiency savings.\n     **/\n    // solhint-disable payable-fallback\n    function() external {\n        assembly {\n\n            // We don't check for function signatures, there's only one function \n            // that ever gets called: validateDividendComputation()\n            // We still assume calldata is offset by 4 bytes so that we can \n            // represent this contract through a compatible ABI\n            validateDividendComputation()\n\n            // if we get to here, the proof is valid. We now 'fall through' the assembly block\n            // and into DividendComputationABIEncoder.encodeAndExit()\n            // reset the free memory pointer because we're touching Solidity code again\n            mstore(0x40, 0x60)\n\n            /**\n             * New calldata map\n             * 0x04:0x24      = calldata location of proofData byte array  // proof data byte array\n             * 0x24:0x44      = message sender // address\n             * 0x44:0x64      = h_x     // crs\n             * 0x64:0x84      = h_y     // crs\n             * 0x84:0xa4      = t2_x0   // crs\n             * 0xa4:0xc4      = t2_x1   // crs\n             * 0xc4:0xe4      = t2_y0   // crs\n             * 0xe4:0x104     = t2_y1   // crs\n             * 0x104:0x124    = length of proofData byte array\n             * 0x124:0x144    = challenge\n             * 0x144:0x164    = za\n             * 0x164:0x184    = zb\n             * 0x184:0x1a4    = offset in byte array to notes\n             * 0x1a4:0x1c4    = offset in byte array to inputOwners\n             * 0x1c4:0x1e4    = offset in byte array to outputOwners\n             * 0x1e4:0x204    = offset in byte array to metadata\n             */ \n\n            function validateDividendComputation() {\n                \n                /*\n                ///////////////////////////////////////////  SETUP  //////////////////////////////////////////////\n                */\n                mstore(0x80, calldataload(0x44))\n                mstore(0xa0, calldataload(0x64))\n                let notes := add(0x104, calldataload(0x184))\n                let n := calldataload(notes)\n                let gen_order := 0x30644e72e131a029b85045b68181585d2833e84879b9709143e1f593f0000001                \n                let challenge := mod(calldataload(0x124), gen_order)\n\n                let za := mod(calldataload(0x144), gen_order)\n                let zb := mod(calldataload(0x164), gen_order)\n\n\n                // Check that za < kMax\n                if gt(za, 1048576) {\n                    mstore(0x00, 400)\n                    revert(0x00, 0x20)\n                }\n\n                // Check that zb < kMax\n                if gt(zb, 1048576) {\n                    mstore(0x00, 400)\n                    revert(0x00, 0x20)\n                }\n\n                /*\n                m is the deliminator between input and output notes. \n                We only have one input note, and then the next two are output notes.\n\n                m = 0 and n = 3\n\n                Variables not defined and instead hard-coded, to save on stack depth\n                */\n\n                // add caller, za and zb to final hash table\n                mstore(0x2a0, calldataload(0x24))\n                mstore(0x2c0, za)\n                mstore(0x2e0, zb)\n\n                hashCommitments(notes, n) \n                let b := add(0x300, mul(n, 0x80)) \n\n                /*\n                ///////////////////////////  CALCULATE BLINDING FACTORS  /////////////////////////////////////\n                */\n\n                // Iterate over every note and calculate the blinding factor B_i = \\gamma_i^{kBar}h^{aBar}\\sigma_i^{-c}.\n                // We use the AZTEC protocol pairing optimization to reduce the number of pairing comparisons to 1.\n                // This adds some minor alterations\n                for { let i := 0 } lt(i, 3) { i := add(i, 0x01) } {\n\n                    // Get the calldata index of this note - call data location of start of note\n                    let noteIndex := add(add(notes, 0x20), mul(i, 0xc0))\n\n                    // Define variables k, a and c.\n                    // If i <= m then - input notes\n                    //   k = kBar_i\n                    //   a = aBar_i\n                    //   c = challenge\n                    // If i > m then we add a modification for the pairing optimization\n                    //   k = kBar_i * x_i\n                    //   a = aBar_i * x_i\n                    //   c = challenge * x_i\n                    // Set j = i - (m + 1). - index to count the output commitment\n                    // x_0 = 1\n                    // x_1 = keccak256(input string)\n                    // all other x_{j} = keccak256(x_{j-1})\n                    // The reason for doing this is that the point  \\sigma_i^{-cx_j} can be re-used in the pairing check\n                    // Instead of validating e(\\gamma_i, t_2) == e(\\sigma_i, g_2) for all i = [m+1,\\ldots,n]\n                    // We instead validate:\n                    // e(\\Pi_{i=m+1}^{n}\\gamma_i^{-cx_j}, t_2) == e(\\Pi_{i=m+1}^{n}\\sigma_i^{cx_j}, g_2).\n                    // x_j is a pseudorandom variable whose entropy source is the input string, allowing for\n                    // a sum of commitment points to be evaluated in one pairing comparison\n\n                    let k\n                    let a := calldataload(add(noteIndex, 0x20))\n                    let c := challenge\n\n                    switch gt(i, 1)\n                    case 1 { // output note\n                        /*\n                        Enforce the condition k_3 = (k_1)(z_b) - (k_2)(z_a)\n                        */\n                        k := addmod(\n                                    mulmod(\n                                        calldataload(sub(noteIndex, add(0xc0, 0xc0))),\n                                        zb,\n                                        gen_order), // k_1 * z_b\n                                    mulmod(\n                                        sub(gen_order, calldataload(sub(noteIndex, 0xc0))),\n                                        za,\n                                        gen_order), //-(k_2 * z_a)\n                                    gen_order)       \n                    }\n\n                    case 0 { // input note\n                        /*\n                        Input commitments just have the k factors as according to the note data\n                        */  \n                        k := calldataload(noteIndex)\n                    }\n\n\n                    // Set k = kx_j, a = ax_j, c = cx_j, where j = i - (m+1)\n                    let x := mod(mload(0x00), gen_order) // x is the kecca hash of the input commitments\n                    k := mulmod(k, x, gen_order) // kx\n                    a := mulmod(a, x, gen_order) // ax\n                    c := mulmod(challenge, x, gen_order) // cx\n                    // calculate x_{j+1}\n                    mstore(0x00, keccak256(0x00, 0x20)) // rehashing the kecca hash, for use in the next x\n\n\n                    // Check this commitment is well formed\n                    validateCommitment(noteIndex, k, a)\n\n                    // Calculate the G1 element \\gamma_i^{k}h^{a}\\sigma_i^{-c} = B_i - already has all x stuff\n                    // Memory map:\n                    // 0x20: \\gamma_iX\n                    // 0x40: \\gamma_iY\n                    // 0x60: k_i\n                    // 0x80: hX\n                    // 0xa0: hY\n                    // 0xc0: a_i\n                    // 0xe0: \\sigma_iX\n                    // 0x100: \\sigma_iY\n                    // 0x120: -c\n\n                    // loading key variables into memory to be operated on later\n                    calldatacopy(0xe0, add(noteIndex, 0x80), 0x40)  \n                    calldatacopy(0x20, add(noteIndex, 0x40), 0x40)\n                    mstore(0x120, sub(gen_order, c))\n                    mstore(0x60, k) \n                    mstore(0xc0, a)\n\n                    // Call bn128 scalar multiplication precompiles\n                    // Represent point + multiplication scalar in 3 consecutive blocks of memory\n                    // Store \\sigma_i^{-c} at 0x1a0:0x200\n                    // Store \\gamma_i^{k} at 0x120:0x160\n                    // Store h^{a} at 0x160:0x1a0\n                    \n                    // result is a boolean. It keeps track of whether the call to the pre-compile was \n                    // successful. True if it was, False if it wasn't\n                    let result := staticcall(gas, 7, 0xe0, 0x60, 0x1a0, 0x40) // sigma_i^{-c}\n                    result := and(result, staticcall(gas, 7, 0x20, 0x60, 0x120, 0x40)) // gamma_i^{k}\n                    result := and(result, staticcall(gas, 7, 0x80, 0x60, 0x160, 0x40)) // h^{a}\n\n                    // Call bn128 group addition precompiles\n                    // \\gamma_i^{k} and h^{a} in memory block 0x120:0x1a0\n                    // Store result of addition at 0x160:0x1a0\n                    result := and(result, staticcall(gas, 6, 0x120, 0x80, 0x160, 0x40))\n\n                    // \\gamma_i^{k}h^{a} and \\sigma^{-c} in memory block 0x160:0x1e0\n                    // Store resulting point B at memory index b\n                    // index b points to the end of the block of memory containing commitments\n                    // we're appending blinding factors to the end of the commitment block\n                    result := and(result, staticcall(gas, 6, 0x160, 0x80, b, 0x40))\n\n                    // We have \\sigma^{-c} at 0x1a0:0x200\n                    // And \\sigma_{acc} at 0x1e0:0x200\n                    // If i = m + 1 (i.e. first output note)\n                    // then we set \\gamma_{acc} and \\sigma_{acc} to \\gamma_i, -\\sigma_i\n                    // the accumulator is the variable that is used to condense the various pairing\n                    // comparisons into a single one\n                    if eq(i, 0) { // m = 0\n                        mstore(0x260, mload(0x20))\n                        mstore(0x280, mload(0x40))\n                        mstore(0x1e0, mload(0xe0))\n                        mstore(\n                            0x200,\n                            sub(0x30644e72e131a029b85045b68181585d97816a916871ca8d3c208c16d87cfd47, mload(0x100))\n                            )\n                    }\n\n                    // If i > m + 1 (i.e. subsequent output notes)\n                    // then we add \\sigma^{-c} and \\sigma_{acc} and store result at \\sigma_{acc} (0x1e0:0x200)\n                    // we then calculate \\gamma^{cx} and add into \\gamma_{acc}\n                    if gt(i, 0) { // m = 0\n                        mstore(0x60, c)\n                        result := and(result, staticcall(gas, 7, 0x20, 0x60, 0x220, 0x40))\n\n                       // \\gamma_i^{cx} now at 0x220:0x260, \\gamma_{acc} is at 0x260:0x2a0\n                        result := and(result, staticcall(gas, 6, 0x220, 0x80, 0x260, 0x40))\n\n                       // add \\sigma_i^{-cx} and \\sigma_{acc} into \\sigma_{acc} at 0x1e0\n                        result := and(result, staticcall(gas, 6, 0x1a0, 0x80, 0x1e0, 0x40))\n                    }\n\n                    // throw transaction if any calls to precompiled contracts failed\n                    if iszero(result) { mstore(0x00, 400) revert(0x00, 0x20) }\n                    b := add(b, 0x40) // increase B pointer by 2 words\n                }\n                \n\n                    validatePairing(0x84)\n\n                // We now have the message sender, z_a, z_b, note commitments and the \n                // calculated blinding factors in a block of memory starting at 0x2a0, of size (b - 0x2a0).\n                // Hash this block to reconstruct the initial challenge and validate that they match\n                let expected := mod(keccak256(0x2a0, sub(b, 0x2a0)), gen_order)\n\n\n                if iszero(eq(expected, challenge)) {\n                    \n                    // Proof failed\n                    mstore(0x00, 404)\n                    revert(0x00, 0x20)\n                }\n            }\n\n            /**        \n             * @dev evaluate if e(P1, t2) . e(P2, g2) == 0.\n             * @notice we don't hard-code t2 so that contracts that call this library can use different trusted setups.\n             **/\n            function validatePairing(t2) {\n                let field_order := 0x30644e72e131a029b85045b68181585d97816a916871ca8d3c208c16d87cfd47\n                let t2_x_1 := calldataload(t2)\n                let t2_x_2 := calldataload(add(t2, 0x20))\n                let t2_y_1 := calldataload(add(t2, 0x40))\n                let t2_y_2 := calldataload(add(t2, 0x60))\n\n                // check provided setup pubkey is not zero or g2\n                if or(or(or(or(or(or(or(\n                    iszero(t2_x_1),\n                    iszero(t2_x_2)),\n                    iszero(t2_y_1)),\n                    iszero(t2_y_2)),\n                    eq(t2_x_1, 0x1800deef121f1e76426a00665e5c4479674322d4f75edadd46debd5cd992f6ed)),\n                    eq(t2_x_2, 0x198e9393920d483a7260bfb731fb5d25f1aa493335a9e71297e485b7aef312c2)),\n                    eq(t2_y_1, 0x12c85ea5db8c6deb4aab71808dcb408fe3d1e7690c43d37b4ce6cc0166fa7daa)),\n                    eq(t2_y_2, 0x90689d0585ff075ec9e99ad690c3395bc4b313370b38ef355acdadcd122975b))\n                {\n                    mstore(0x00, 400)\n                    revert(0x00, 0x20)\n                }\n\n                // store coords in memory\n                // indices are a bit off, scipr lab's libff limb ordering (c0, c1) is opposite\n                // to what precompile expects. We can overwrite the memory we used previously as this function\n                // is called at the end of the validation routine.\n                mstore(0x20, mload(0x1e0)) // sigma accumulator x\n                mstore(0x40, mload(0x200)) // sigma accumulator y\n                mstore(0x80, 0x1800deef121f1e76426a00665e5c4479674322d4f75edadd46debd5cd992f6ed)\n                mstore(0x60, 0x198e9393920d483a7260bfb731fb5d25f1aa493335a9e71297e485b7aef312c2)\n                mstore(0xc0, 0x12c85ea5db8c6deb4aab71808dcb408fe3d1e7690c43d37b4ce6cc0166fa7daa)\n                mstore(0xa0, 0x90689d0585ff075ec9e99ad690c3395bc4b313370b38ef355acdadcd122975b)\n                mstore(0xe0, mload(0x260)) // gamma accumulator x\n                mstore(0x100, mload(0x280)) // gamma accumulator y\n                mstore(0x140, t2_x_1)\n                mstore(0x120, t2_x_2)\n                mstore(0x180, t2_y_1)\n                mstore(0x160, t2_y_2)\n\n                let success := staticcall(gas, 8, 0x20, 0x180, 0x20, 0x20)\n\n                if or(iszero(success), iszero(mload(0x20))) {\n                    mstore(0x00, 400)\n                    revert(0x00, 0x20)\n                }\n            }\n\n            /**\n             * @dev check that this note's points are on the altbn128 curve(y^2 = x^3 + 3)\n             * and that signatures 'k' and 'a' are modulo the order of the curve. \n             * Transaction throws if this is not the case.\n             * @param note the calldata loation of the note\n             **/\n            function validateCommitment(note, k, a) {\n                let gen_order := 0x30644e72e131a029b85045b68181585d2833e84879b9709143e1f593f0000001\n                let field_order := 0x30644e72e131a029b85045b68181585d97816a916871ca8d3c208c16d87cfd47\n                let gammaX := calldataload(add(note, 0x40))\n                let gammaY := calldataload(add(note, 0x60))\n                let sigmaX := calldataload(add(note, 0x80))\n                let sigmaY := calldataload(add(note, 0xa0))\n                if iszero(\n                    and(\n                        and(\n                            and(\n                                eq(mod(a, gen_order), a), // a is modulo generator order?\n                                gt(a, 1)                  // can't be 0 or 1 either!\n                            ),\n                            and(\n                                eq(mod(k, gen_order), k), // k is modulo generator order?\n                                gt(k, 1)                  // and not 0 or 1\n                            )\n                        ),\n                        and(\n                            eq( // y^2 ?= x^3 + 3\n                                addmod(\n                                    mulmod(mulmod(sigmaX, sigmaX, field_order), sigmaX, field_order), \n                                    3, \n                                    field_order),\n                                mulmod(sigmaY, sigmaY, field_order)\n                            ),\n                            eq( // y^2 ?= x^3 + 3\n                                addmod(\n                                    mulmod(mulmod(gammaX, gammaX, field_order), gammaX, field_order),\n                                    3,\n                                    field_order),\n                                mulmod(gammaY, gammaY, field_order)\n                            )\n                        )\n                    )\n                ) {\n                    mstore(0x00, 400)\n                    revert(0x00, 0x20)\n                }\n            }\n\n            /**\n             * @dev Calculate the keccak256 hash of the commitments for both input notes and output notes.\n             * This is used both as an input to validate the challenge `c` and also \n             * to generate pseudorandom relationships between commitments for different outputNotes, so \n             * that we can combine them into a single multi-exponentiation for the purposes of \n             * validating the bilinear pairing relationships.\n             * @param notes calldata location of notes\n             * @param n number of notes\n             * \n             * @notice\n             */\n\n            function hashCommitments(notes, n) {\n                for { let i := 0 } lt(i, n) { i := add(i, 0x01) } { \n                    let index := add(add(notes, mul(i, 0xc0)), 0x60) \n                    calldatacopy(add(0x300, mul(i, 0x80)), index, 0x80)\n                }\n                mstore(0x00, keccak256(0x300, mul(n, 0x80)))\n            }\n        }\n\n        DividendComputationABIEncoder.encodeAndExit();\n    }\n}\n",
  "sourcePath": "/Users/joeandrews/Documents/Code/AZTEC/packages/protocol/contracts/ACE/validators/dividendComputation/DividendComputation.sol",
  "compiler": {
    "name": "solc",
    "version": "0.5.7+commit.6da8b019.Emscripten.clang"
  },
  "schemaVersion": "3.0.9",
  "updatedAt": "2019-07-22T18:42:37.404Z",
  "devdoc": {
    "author": "AZTEC",
    "details": "Don't include this as an internal library. This contract uses a static memory table  to cache elliptic curve primitives and hashes. Calling this internally from another function will lead to memory mutation and undefined behaviour. The intended use case is to call this externally via `staticcall`. External calls to OptimizedAZTEC  can be treated as pure functions as this contract contains no storage and makes no external calls  (other than to precompiles). Copyright Spilbury Holdings Ltd 2019. All rights reserved.*",
    "methods": {},
    "title": "Library to validate AZTEC dividend computation proofs"
  },
  "userdoc": {
    "methods": {}
  }
}