{
  "contractName": "GenericABIEncoder",
  "abi": [
    {
      "constant": true,
      "inputs": [
        {
          "name": "noteInfo",
          "type": "uint256"
        },
        {
          "name": "publicOwner",
          "type": "uint256"
        },
        {
          "name": "publicValue",
          "type": "uint256"
        }
      ],
      "name": "encodeProofOutputsOne",
      "outputs": [
        {
          "name": "",
          "type": "bytes"
        }
      ],
      "payable": false,
      "stateMutability": "pure",
      "type": "function"
    }
  ],
  "bytecode": "0x61035e610026600b82828239805160001a60731461001957fe5b30600052607381538281f3fe73000000000000000000000000000000000000000030146080604052600436106100355760003560e01c80634bcc8a021461003a575b600080fd5b6100636004803603606081101561005057600080fd5b50803590602081013590604001356100d8565b6040805160208082528351818301528351919283929083019185019080838360005b8381101561009d578181015183820152602001610085565b50505050905090810190601f1680156100ca5780820380516001836020036101000a031916815260200191505b509250505060405180910390f35b606060206101605260016101a05260606101c05260006101226101e08660ff16600888901c60ff16601089901c61ffff1660208a901c61ffff1660308b901c61ffff168a8a610135565b6080019050604081036101805280610160f35b600060a060208a01528260608a01528160808a015261015c85602088018960a08d01610199565b905060a0810160408a015261018a60208802850160208902870160c08a0289018a8c038560a08f0101610252565b0160808101895260a00161024d565b60006001600052826020830152602083026040018201935060005b83811015610239578285036020820284016040015260c08102850160808160203760c086526001602087015260c08202870135604087015260a0600020606087015260406080870152600160ff1b600160405116026020511760a0870152600160ff1b600160805116026060511760c087015260e086019550506001810190506101b4565b5050601f1992819003928301905250919050565b610326565b60006001600052826020830152602083026040018201935060005b83811015610311578285036020820284016040015260c081028501602082026020018801358060408a03013560808360203760c088526001602089015260c08402890135604089015260a06000206060890152806040016080890152600160ff1b600160405116026020511760a0890152600160ff1b600160805116026060511760c08901528060208b03830160e08a01379690960160e00195505060010161026d565b5050601f199281900392830190525092915050565b9897505050505050505056fea165627a7a72305820838f790c5b6c3199db550e0d41772fd128c135544d937c7676e64f81e1db64630029",
  "source": "pragma solidity >=0.5.0 <0.6.0;\n\nlibrary GenericABIEncoder {\n\n    uint private constant NOTE_TYPE = 1;\n\n\n    function encodeProofOutputsOne(\n        uint noteInfo,\n        uint publicOwner,\n        uint publicValue\n    ) public pure returns (bytes memory) {\n        assembly {\n            mstore(0x160, 0x20)\n            // 0x180 = size of proofOutputs in bytes\n            mstore(0x1a0, 0x01) // number of proof outputs\n            mstore(0x1c0, 0x60) // relative offset to start of proofOutputs\n        }\n        uint size = 0x80 + encodeProofOutput(\n            0x1e0,\n            (noteInfo & 0xff),\n            (noteInfo >> 8) & 0xff,\n            (noteInfo >> 16) & 0xffff,\n            (noteInfo >> 32) & 0xffff,\n            (noteInfo >> 48) & 0xffff,\n            publicOwner,\n            publicValue\n        );\n        assembly {\n            mstore(0x180, sub(size, 0x40))\n            return(0x160, size)\n        }\n    }\n\n    function encodeProofOutput(\n        uint freePtr,\n        uint numNotes,\n        uint numInputNotes,\n        uint offsetToNotes,\n        uint ownerPtr,\n        uint metadataPtr,\n        uint publicOwner,\n        uint publicValue\n    ) internal pure returns (uint proofOutputSize) {\n        assembly {\n            // memory map of proofOutput\n            // 0x00 - 0x20 - byte length\n            // 0x20 - 0x40 - offset to inputNotes\n            // 0x40 - 0x60 - offset to outputNotes\n            // 0x60 - 0x80 - publicOnwner\n            // 0x80 - 0xa0 - publicValue\n            mstore(add(freePtr, 0x20), 0xa0)\n            mstore(add(freePtr, 0x60), publicOwner)\n            mstore(add(freePtr, 0x80), publicValue)\n            proofOutputSize := encodeInputNotes(\n                add(freePtr, 0xa0),\n                numInputNotes,\n                add(offsetToNotes, 0x20),\n                ownerPtr\n            )\n           \n            mstore(add(freePtr, 0x40), add(proofOutputSize, 0xa0))\n\n            proofOutputSize := add(\n                proofOutputSize,\n                encodeOutputNotes(\n                    add(add(freePtr, 0xa0), proofOutputSize),\n                    sub(numNotes, numInputNotes),\n                    add(offsetToNotes, mul(numInputNotes, 0xc0)),\n                    add(ownerPtr, mul(numInputNotes, 0x20)),\n                    add(metadataPtr, mul(numInputNotes, 0x20))\n                )\n            )\n            proofOutputSize := add(proofOutputSize, 0xa0)\n            mstore(freePtr, sub(proofOutputSize, 0x20))\n\n            function encodeInputNotes(memPtr, len, notePtr, ownerPtr) -> inputNotesLength {\n                mstore(0x00, 0x01)\n                // memory map for input notes\n                // 0x00 - 0x20 - byte length\n                // 0x20 - 0x40 - number of notes\n                // 0x40 - xxxx - offsets to note entries\n                mstore(add(memPtr, 0x20), len) // length of input notes\n                \n                notePtr := add(memPtr, add(0x40, mul(len, 0x20)))\n                for { let i := 0 } lt(i, len) { i := add(i, 0x01) } {\n                    // write the relative offset to this note entry\n                    mstore(add(0x40, add(memPtr, mul(i, 0x20))), sub(notePtr, memPtr))\n\n                    let noteIndex := add(notePtr, mul(i, 0xc0))\n                    // copy notes\n                    calldatacopy(0x20, noteIndex, 0x80)\n\n                    mstore(notePtr, 0xc0) // length of note\n                    mstore(add(notePtr, 0x20), 0x01) // note type\n                    mstore(add(notePtr, 0x40), calldataload(add(ownerPtr, mul(i, 0xc0)))) // note owner\n                    mstore(add(notePtr, 0x60), keccak256(0x00, 0xa0)) // note hash\n                    mstore(add(notePtr, 0x80), 0x40) // metadata length\n                    mstore(             // gamma\n                        add(notePtr, 0xa0),\n                        or(\n                            mload(0x20),\n                            mul(\n                            and(mload(0x40), 0x01),\n                            0x8000000000000000000000000000000000000000000000000000000000000000\n                            )\n                        )\n                    )\n                    // store compressed note coordinate sigma in `s + 0xa0`\n                    mstore(\n                        add(notePtr, 0xc0),\n                        or(\n                            mload(0x60),\n                            mul(\n                            and(mload(0x80), 0x01),\n                            0x8000000000000000000000000000000000000000000000000000000000000000\n                            )\n                        )\n                    )\n\n                    notePtr := add(notePtr, 0xe0)\n                }\n\n                mstore(memPtr, sub(sub(notePtr, memPtr), 0x20)) // store input note length at memPtr\n                inputNotesLength := sub(notePtr, memPtr)\n            }\n\n            function encodeOutputNotes(memPtr, len, notePtr, ownerPtr, metadataPtr) -> outputNotesLength {\n                mstore(0x00, 0x01)\n                // memory map for input notes\n                // 0x00 - 0x20 - byte length\n                // 0x20 - 0x40 - number of notes\n                // 0x40 - xxxx - offsets to note entries\n                mstore(add(memPtr, 0x20), len) // length of output notes\n                \n                notePtr := add(memPtr, add(0x40, mul(len, 0x20)))\n                for { let i := 0 } lt(i, len) { i := add(i, 0x01) } {\n                    // write the relative offset to this note entry\n                    mstore(add(0x40, add(memPtr, mul(i, 0x20))), sub(notePtr, memPtr))\n\n                    let noteIndex := add(notePtr, mul(i, 0xc0))\n                    let metadataIndex := calldataload(add(metadataPtr, add(0x20, mul(i, 0x20))))\n                    let metadataLength := calldataload(add(sub(metadataPtr, 0x40), metadataIndex))\n\n                    // copy notes\n                    calldatacopy(0x20, noteIndex, 0x80)\n\n                    mstore(notePtr, 0xc0) // length of note\n                    mstore(add(notePtr, 0x20), 0x01) // note type\n                    mstore(add(notePtr, 0x40), calldataload(add(ownerPtr, mul(i, 0xc0)))) // note owner\n                    mstore(add(notePtr, 0x60), keccak256(0x00, 0xa0)) // note hash\n                    mstore(add(notePtr, 0x80), add(0x40, metadataLength)) // metadata length\n                    mstore(             // gamma\n                        add(notePtr, 0xa0),\n                        or(\n                            mload(0x20),\n                            mul(\n                            and(mload(0x40), 0x01),\n                            0x8000000000000000000000000000000000000000000000000000000000000000\n                            )\n                        )\n                    )\n                    // store compressed note coordinate sigma in `s + 0xa0`\n                    mstore(\n                        add(notePtr, 0xc0),\n                        or(\n                            mload(0x60),\n                            mul(\n                            and(mload(0x80), 0x01),\n                            0x8000000000000000000000000000000000000000000000000000000000000000\n                            )\n                        )\n                    )\n                    calldatacopy(\n                        add(notePtr, 0xe0),\n                        add(metadataIndex, sub(metadataPtr, 0x20)),\n                        metadataLength\n                    )\n\n                    notePtr := add(notePtr, add(0xe0, metadataLength))\n                }\n\n                mstore(memPtr, sub(sub(notePtr, memPtr), 0x20)) // store input note length at memPtr\n                outputNotesLength := sub(notePtr, memPtr)\n            }\n\n        }\n    }\n}\n",
  "sourcePath": "/Users/joeandrews/Documents/Code/AZTEC/packages/protocol/contracts/libs/GenericABIEncoder.sol",
  "compiler": {
    "name": "solc",
    "version": "0.5.7+commit.6da8b019.Emscripten.clang"
  },
  "schemaVersion": "3.0.11",
  "updatedAt": "2019-07-30T13:09:11.347Z",
  "devdoc": {
    "methods": {}
  },
  "userdoc": {
    "methods": {}
  }
}