{
  "contractName": "IAZTEC",
  "abi": [
    {
      "constant": true,
      "inputs": [],
      "name": "JOIN_SPLIT_PROOF",
      "outputs": [
        {
          "name": "",
          "type": "uint24"
        }
      ],
      "payable": false,
      "stateMutability": "view",
      "type": "function"
    },
    {
      "constant": true,
      "inputs": [],
      "name": "ZERO_VALUE_NOTE_HASH",
      "outputs": [
        {
          "name": "",
          "type": "bytes32"
        }
      ],
      "payable": false,
      "stateMutability": "view",
      "type": "function"
    },
    {
      "constant": true,
      "inputs": [],
      "name": "PRIVATE_RANGE_PROOF",
      "outputs": [
        {
          "name": "",
          "type": "uint24"
        }
      ],
      "payable": false,
      "stateMutability": "view",
      "type": "function"
    },
    {
      "constant": true,
      "inputs": [],
      "name": "DIVIDEND_PROOF",
      "outputs": [
        {
          "name": "",
          "type": "uint24"
        }
      ],
      "payable": false,
      "stateMutability": "view",
      "type": "function"
    },
    {
      "constant": true,
      "inputs": [],
      "name": "MINT_PROOF",
      "outputs": [
        {
          "name": "",
          "type": "uint24"
        }
      ],
      "payable": false,
      "stateMutability": "view",
      "type": "function"
    },
    {
      "constant": true,
      "inputs": [],
      "name": "BURN_PROOF",
      "outputs": [
        {
          "name": "",
          "type": "uint24"
        }
      ],
      "payable": false,
      "stateMutability": "view",
      "type": "function"
    },
    {
      "anonymous": false,
      "inputs": [
        {
          "indexed": false,
          "name": "zkAssetAddress",
          "type": "address"
        },
        {
          "indexed": false,
          "name": "linkedTokenAddress",
          "type": "address"
        },
        {
          "indexed": false,
          "name": "scalingFactor",
          "type": "uint256"
        },
        {
          "indexed": false,
          "name": "canAdjustSupply",
          "type": "bool"
        },
        {
          "indexed": false,
          "name": "canConvert",
          "type": "bool"
        }
      ],
      "name": "CreateNoteRegistry",
      "type": "event"
    }
  ],
  "bytecode": "0x608060405234801561001057600080fd5b5061011f806100206000396000f3fe6080604052348015600f57600080fd5b506004361060595760003560e01c80625bf73214605e5780630761605114607c57806349518b281460945780638500e1f814609a5780638e526d9b1460a0578063df9246251460a6575b600080fd5b606460ac565b6040805162ffffff9092168252519081900360200190f35b608260b3565b60408051918252519081900360200190f35b606460d7565b606460de565b606460e5565b606460ec565b6201010181565b7fcbc417524e52b95c42a4c42d357938497e3d199eb9b4a0139c92551d4000bc3c81565b6201040281565b6201040181565b6201020181565b620103018156fea165627a7a7230582000fabd0dc6f81b2a594c7e4416342afc5c12d8fc169d09ff9ced098abc555dc70029",
  "source": "pragma solidity >=0.5.0 <0.6.0;\n\ncontract IAZTEC {\n    event CreateNoteRegistry(\n        address zkAssetAddress,\n        address linkedTokenAddress,\n        uint256 scalingFactor,\n        bool canAdjustSupply,\n        bool canConvert\n    );\n\n    enum ProofCategory {\n        NULL,\n        BALANCED,\n        MINT,\n        BURN,\n        UTILITY\n    }\n\n    enum NoteStatus {\n        DOES_NOT_EXIST,\n        UNSPENT,\n        SPENT\n    }\n    // proofEpoch = 1 | proofCategory = 1 | proofId = 1\n    // 1 * 256**(2) + 1 * 256**(1) ++ 1 * 256**(0)\n    uint24 public constant JOIN_SPLIT_PROOF = 65793;\n\n    // proofEpoch = 1 | proofCategory = 2 | proofId = 1\n    // (1 * 256**(2)) + (2 * 256**(1)) + (1 * 256**(0))\n    uint24 public constant MINT_PROOF = 66049;\n\n    // proofEpoch = 1 | proofCategory = 3 | proofId = 1\n    // (1 * 256**(2)) + (3 * 256**(1)) + (1 * 256**(0))\n    uint24 public constant BURN_PROOF = 66305;\n\n    // proofEpoch = 1 | proofCategory = 4 | proofId = 2\n    // (1 * 256**(2)) + (4 * 256**(1)) + (2 * 256**(0))\n    uint24 public constant PRIVATE_RANGE_PROOF = 66562;\n\n    // proofEpoch = 1 | proofCategory = 4 | proofId = 1\n    // (1 * 256**(2)) + (4 * 256**(1)) + (2 * 256**(0))\n    uint24 public constant DIVIDEND_PROOF = 66561;\n\n\n    // Hash of a dummy AZTEC note with k = 0 and a = 1\n    bytes32 public constant ZERO_VALUE_NOTE_HASH = 0xcbc417524e52b95c42a4c42d357938497e3d199eb9b4a0139c92551d4000bc3c;\n}\n",
  "sourcePath": "/Users/joeandrews/Documents/Code/AZTEC/packages/protocol/contracts/interfaces/IAZTEC.sol",
  "compiler": {
    "name": "solc",
    "version": "0.5.7+commit.6da8b019.Emscripten.clang"
  },
  "schemaVersion": "3.0.11",
  "updatedAt": "2019-08-01T10:46:36.048Z",
  "devdoc": {
    "methods": {}
  },
  "userdoc": {
    "methods": {}
  }
}