{
  "contractName": "JoinSplitFluidABIEncoderTest",
  "abi": [
    {
      "constant": true,
      "inputs": [
        {
          "name": "",
          "type": "bytes"
        },
        {
          "name": "",
          "type": "address"
        },
        {
          "name": "",
          "type": "uint256[6]"
        }
      ],
      "name": "validateJoinSplitFluid",
      "outputs": [
        {
          "name": "",
          "type": "bytes"
        }
      ],
      "payable": false,
      "stateMutability": "pure",
      "type": "function"
    }
  ],
  "bytecode": "0x608060405234801561001057600080fd5b506103f8806100206000396000f3fe608060405234801561001057600080fd5b506004361061002b5760003560e01c8063482b03a614610030575b600080fd5b6100af600480360361010081101561004757600080fd5b81019060208101813564010000000081111561006257600080fd5b82018360208201111561007457600080fd5b8035906020019184600183028401116401000000008311171561009657600080fd5b91935091506001600160a01b0381351690602001610124565b6040805160208082528351818301528351919283929083019185019080838360005b838110156100e95781810151838201526020016100d1565b50505050905090810190601f1680156101165780820380516001836020036101000a031916815260200191505b509250505060405180910390f35b606061012e610136565b949350505050565b61014435610104018035610164356101240161018435610124016101a4356101440160026101a05260806101c05260c061022052600061026052600061028052610124356102a05260016102e0526060610300528035604082038101356001600052608061012088016020378060c0016103205260016103405283356103605260a060002061038052806040016103a05260016040511660ff1b602051176103c05260016080511660ff1b606051176103e052806020840383016104003780610200016102405280610120016102c0526101208161040001526001816104200152606081610440015260806060880160203760c081610460015260018161048001528435816104a0015260a0600020816104c001526040816104e0015260016040511660ff1b6020511781610500015260016080511660ff1b6060511781610520015260608161044001528061054001816103200161020052816103c0016101e0528060c0602082015261010060408201526000606082015260006080820152610124356020526020802060a0820152602060c0820152600060e0820152610100810160028903602082015260028903602002610140830101915060025b898110156103a1576020600182030287013595508560408803013594506001600052608060c0820260608d01016020378460c00183526001602084015260206001820302880135604084015260a0600020606084015284604001608084015260016040511660ff1b6020511760a084015260016080511660ff1b6060511760c08401528460208803870160e0850137818303602082028301526020835101830192506001810190506102f4565b5060208183030381528282036020810384526101a08303610180526020610160526101608303610160f3fea165627a7a72305820f02e267fd9159d03c5fd1213cc63f26aaff1462bbc1ba886822a84055cc889a50029",
  "source": "pragma solidity >=0.5.0 <0.6.0;\n\nimport \"../../../../ACE/validators/joinSplitFluid/JoinSplitFluidABIEncoder.sol\";\n\ncontract JoinSplitFluidABIEncoderTest {\n\n    function validateJoinSplitFluid(\n        bytes calldata,\n        address,\n        uint[6] calldata\n    )\n        external\n        pure\n        returns (bytes memory)\n    {\n        JoinSplitFluidABIEncoder.encodeAndExit();\n    }\n}\n",
  "sourcePath": "/Users/joeandrews/Documents/Code/AZTEC/packages/protocol/contracts/test/ACE/validators/joinSplitFluid/JoinSplitFluidABIEncoderTest.sol",
  "compiler": {
    "name": "solc",
    "version": "0.5.7+commit.6da8b019.Emscripten.clang"
  },
  "schemaVersion": "3.0.11",
  "updatedAt": "2019-07-30T13:09:11.355Z",
  "devdoc": {
    "methods": {}
  },
  "userdoc": {
    "methods": {}
  }
}