{
  "contractName": "JoinSplitABIEncoderTest",
  "abi": [
    {
      "constant": true,
      "inputs": [
        {
          "name": "",
          "type": "bytes"
        },
        {
          "name": "",
          "type": "address"
        },
        {
          "name": "",
          "type": "uint256[6]"
        }
      ],
      "name": "validateJoinSplit",
      "outputs": [
        {
          "name": "",
          "type": "bytes"
        }
      ],
      "payable": false,
      "stateMutability": "pure",
      "type": "function"
    }
  ],
  "bytecode": "0x608060405234801561001057600080fd5b506103e8806100206000396000f3fe608060405234801561001057600080fd5b506004361061002b5760003560e01c80637a26becd14610030575b600080fd5b6100af600480360361010081101561004757600080fd5b81019060208101813564010000000081111561006257600080fd5b82018360208201111561007457600080fd5b8035906020019184600183028401116401000000008311171561009657600080fd5b91935091506001600160a01b0381351690602001610124565b6040805160208082528351818301528351919283929083019185019080838360005b838110156100e95781810151838201526020016100d1565b50505050905090810190601f1680156101165780820380516001836020036101000a031916815260200191505b509250505060405180910390f35b606061012e610136565b949350505050565b61018435610104018035610124356101a435610124016101c435610124016101e4356101440160016101a05260606101c05260c061020052610164356102405260a060c0873502870103357f183227397098d014dc2822db40c0ac2e9419f4243cdcb848a1f0fac9f80000008111600181146101b75780156101e3576101e9565b7f30644e72e131a029b85045b68181585d2833e84879b9709143e1f593f00000018203610260526101e9565b81610260525b5061014435610280526102c08590526102a06102e0602087020160005b878110156102ab5760c0810260208b0101600160005260806040820160203760a060002060c05260c08352600160208401526201010160a05260208202880135604084015260c051606084015260406080840152600160ff1b60016060830135160260408201351760a0840152600160ff1b600160a0830135160260808201351760c08401528383036020830260408601015260e08301925050600181019050610206565b50601f1982820390810190925260c0909101610220528587036020828101829052028101604001865b8881101561038d5760c0810260208b01016020898303028601358060408803013560016000526080604084016020378060c00185526001602086015260208b850302890135604086015260a06000206060860152806040016080860152600160ff1b600160405116026020511760a0860152600160ff1b600160805116026060511760c08601528060208903830160e087013785850360208c8603026040880101526020855101850194505050506001810190506102d4565b5060208282030382526102a081038060a0016101e0528061010001610180526020610160528061014001610160f3fea165627a7a723058207a3d707860b6e0d57a3dbfe6d5700f953c23c971b134ab617752a1f23fca2f010029",
  "source": "pragma solidity >=0.5.0 <0.6.0;\n\nimport \"../../../../ACE/validators/joinSplit/JoinSplitABIEncoder.sol\";\nimport \"../../../../libs/LibEIP712.sol\";\n\ncontract JoinSplitABIEncoderTest {\n    function validateJoinSplit(\n        bytes calldata,\n        address,\n        uint[6] calldata\n    )\n        external pure\n        returns (bytes memory)\n    {\n        JoinSplitABIEncoder.encodeAndExit();\n    }\n}\n",
  "sourcePath": "/Users/joeandrews/Documents/Code/AZTEC/packages/protocol/contracts/test/ACE/validators/joinSplit/JoinSplitABIEncoderTest.sol",
  "compiler": {
    "name": "solc",
    "version": "0.5.7+commit.6da8b019.Emscripten.clang"
  },
  "schemaVersion": "3.0.11",
  "updatedAt": "2019-07-30T19:04:03.766Z",
  "devdoc": {
    "methods": {}
  },
  "userdoc": {
    "methods": {}
  }
}