{
  "contractName": "LibEIP712Test",
  "abi": [
    {
      "constant": true,
      "inputs": [],
      "name": "EIP712_DOMAIN_HASH",
      "outputs": [
        {
          "name": "",
          "type": "bytes32"
        }
      ],
      "payable": false,
      "stateMutability": "view",
      "type": "function"
    },
    {
      "constant": true,
      "inputs": [
        {
          "name": "_hashStruct",
          "type": "bytes32"
        }
      ],
      "name": "_hashEIP712Message",
      "outputs": [
        {
          "name": "_result",
          "type": "bytes32"
        }
      ],
      "payable": false,
      "stateMutability": "view",
      "type": "function"
    },
    {
      "constant": true,
      "inputs": [
        {
          "name": "_message",
          "type": "bytes32"
        },
        {
          "name": "_signature",
          "type": "bytes"
        }
      ],
      "name": "_recoverSignature",
      "outputs": [
        {
          "name": "_signer",
          "type": "address"
        }
      ],
      "payable": false,
      "stateMutability": "view",
      "type": "function"
    }
  ],
  "bytecode": "0x7f454950373132446f6d61696e280000000000000000000000000000000000000060a09081527f737472696e67206e616d652c000000000000000000000000000000000000000060ad527f737472696e672076657273696f6e2c000000000000000000000000000000000060b9527f6164647265737320766572696679696e67436f6e74726163740000000000000060c8527f290000000000000000000000000000000000000000000000000000000000000060e152604260808181529120601960e2527f415a5445435f43525950544f4752415048595f454e47494e4500000000000000610102526001610122527f3100000000000000000000000000000000000000000000000000000000000000610142526101829081527fc8066e2c715ce196630b273cd256d8959d5b9fefc55e9e6d999fb0f08bb7f75f6101a2527fc89efdaa54c0f20c7adf612882df0950f5a951637e0307cdcb4c672f298b8bc66101c252306101e252610162829052610202604052206000556102d1806101876000396000f3fe608060405234801561001057600080fd5b50600436106100415760003560e01c8063312d839b14610046578063e306f77914610075578063f7cc53f91461007d575b600080fd5b6100636004803603602081101561005c57600080fd5b5035610146565b60408051918252519081900360200190f35b610063610157565b61012a6004803603604081101561009357600080fd5b813591908101906040810160208201356401000000008111156100b557600080fd5b8201836020820111156100c757600080fd5b803590602001918460018302840111640100000000831117156100e957600080fd5b91908080601f01602080910402602001604051908101604052809392919081815260200183838082843760009201919091525092955061015d945050505050565b604080516001600160a01b039092168252519081900360200190f35b600061015182610170565b92915050565b60005481565b60006101698383610191565b9392505050565b60008054604080516119019093526020919091529182526042601e20915290565b6000808251848452602084015160208560808760015afa601c8214601b831417606084141616925084518614600081146101ca576101cf565b855194505b505083528080156101e757506001600160a01b038216155b61029e576001600160a01b0382166102495760408051600160e51b62461bcd02815260206004820152601a60248201527f7369676e657220616464726573732063616e6e6f742062652030000000000000604482015290519081900360640190fd5b8061029e5760408051600160e51b62461bcd02815260206004820152601960248201527f7369676e6174757265207265636f76657279206661696c656400000000000000604482015290519081900360640190fd5b509291505056fea165627a7a7230582086afb90060092229b87a334e40edcb84aa70309f8702a3ec8d0218eb0bdddd2d0029",
  "source": "pragma solidity >=0.5.0 <0.6.0;\n\nimport \"../../libs/LibEIP712.sol\";\n\n/**\n * @title Library of EIP712 utility constants and functions\n * @author AZTEC\n * Copyright Spilsbury Holdings Ltd 2019. All rights reserved.\n **/\ncontract LibEIP712Test is LibEIP712 {\n\n    /// @dev Calculates EIP712 encoding for a hash struct in this EIP712 Domain.\n    /// @param _hashStruct The EIP712 hash struct.\n    /// @return EIP712 hash applied to this EIP712 Domain.\n    function _hashEIP712Message(bytes32 _hashStruct)\n        public\n        view\n        returns (bytes32 _result)\n    {\n        _result = super.hashEIP712Message(_hashStruct);\n    }\n\n    /// @dev Extracts the address of the signer with ECDSA.\n    /// @param _message The EIP712 message.\n    /// @param _signature The ECDSA values, v, r and s.\n    /// @return The address of the message signer.\n    function _recoverSignature(\n        bytes32 _message,\n        bytes memory _signature\n    ) public view returns (address _signer) {\n        _signer = super.recoverSignature(_message, _signature);\n    }\n}\n",
  "sourcePath": "/Users/joeandrews/Documents/Code/AZTEC/packages/protocol/contracts/test/libs/LibEIP712Test.sol",
  "compiler": {
    "name": "solc",
    "version": "0.5.7+commit.6da8b019.Emscripten.clang"
  },
  "schemaVersion": "3.0.11",
  "updatedAt": "2019-07-30T19:04:03.770Z",
  "devdoc": {
    "author": "AZTEC Copyright Spilsbury Holdings Ltd 2019. All rights reserved.*",
    "methods": {
      "_hashEIP712Message(bytes32)": {
        "details": "Calculates EIP712 encoding for a hash struct in this EIP712 Domain.",
        "params": {
          "_hashStruct": "The EIP712 hash struct."
        },
        "return": "EIP712 hash applied to this EIP712 Domain."
      },
      "_recoverSignature(bytes32,bytes)": {
        "details": "Extracts the address of the signer with ECDSA.",
        "params": {
          "_message": "The EIP712 message.",
          "_signature": "The ECDSA values, v, r and s."
        },
        "return": "The address of the message signer."
      }
    },
    "title": "Library of EIP712 utility constants and functions"
  },
  "userdoc": {
    "methods": {}
  }
}