{
  "contractName": "NoteUtilsTest",
  "abi": [
    {
      "constant": true,
      "inputs": [
        {
          "name": "_proofOutputsOrNotes",
          "type": "bytes"
        }
      ],
      "name": "getLength",
      "outputs": [
        {
          "name": "len",
          "type": "uint256"
        }
      ],
      "payable": false,
      "stateMutability": "pure",
      "type": "function"
    },
    {
      "constant": true,
      "inputs": [
        {
          "name": "_proofOutputsOrNotes",
          "type": "bytes"
        },
        {
          "name": "_i",
          "type": "uint256"
        }
      ],
      "name": "get",
      "outputs": [
        {
          "name": "out",
          "type": "bytes"
        }
      ],
      "payable": false,
      "stateMutability": "pure",
      "type": "function"
    },
    {
      "constant": true,
      "inputs": [
        {
          "name": "_proofOutput",
          "type": "bytes"
        }
      ],
      "name": "extractProofOutput",
      "outputs": [
        {
          "name": "inputNotes",
          "type": "bytes"
        },
        {
          "name": "outputNotes",
          "type": "bytes"
        },
        {
          "name": "publicOwner",
          "type": "address"
        },
        {
          "name": "publicValue",
          "type": "int256"
        }
      ],
      "payable": false,
      "stateMutability": "pure",
      "type": "function"
    },
    {
      "constant": true,
      "inputs": [
        {
          "name": "_proofOutput",
          "type": "bytes"
        }
      ],
      "name": "extractChallenge",
      "outputs": [
        {
          "name": "challenge",
          "type": "bytes32"
        }
      ],
      "payable": false,
      "stateMutability": "pure",
      "type": "function"
    },
    {
      "constant": true,
      "inputs": [
        {
          "name": "_note",
          "type": "bytes"
        }
      ],
      "name": "extractNote",
      "outputs": [
        {
          "name": "owner",
          "type": "address"
        },
        {
          "name": "noteHash",
          "type": "bytes32"
        },
        {
          "name": "metadata",
          "type": "bytes"
        }
      ],
      "payable": false,
      "stateMutability": "pure",
      "type": "function"
    },
    {
      "constant": true,
      "inputs": [
        {
          "name": "_note",
          "type": "bytes"
        }
      ],
      "name": "getNoteType",
      "outputs": [
        {
          "name": "noteType",
          "type": "uint256"
        }
      ],
      "payable": false,
      "stateMutability": "pure",
      "type": "function"
    }
  ],
  "bytecode": "0x608060405234801561001057600080fd5b50610726806100206000396000f3fe608060405234801561001057600080fd5b50600436106100625760003560e01c80633af1626e1461006757806342514aa01461011d5780634dd49ab4146101c15780636114ceca1461011d578063733bb7f8146102dc5780639cd5e9cf14610418575b600080fd5b61010b6004803603602081101561007d57600080fd5b810190602081018135600160201b81111561009757600080fd5b8201836020820111156100a957600080fd5b803590602001918460018302840111600160201b831117156100ca57600080fd5b91908080601f0160208091040260200160405190810160405280939291908181526020018383808284376000920191909152509295506105ba945050505050565b60408051918252519081900360200190f35b61010b6004803603602081101561013357600080fd5b810190602081018135600160201b81111561014d57600080fd5b82018360208201111561015f57600080fd5b803590602001918460018302840111600160201b8311171561018057600080fd5b91908080601f0160208091040260200160405190810160405280939291908181526020018383808284376000920191909152509295506105cb945050505050565b610267600480360360408110156101d757600080fd5b810190602081018135600160201b8111156101f157600080fd5b82018360208201111561020357600080fd5b803590602001918460018302840111600160201b8311171561022457600080fd5b91908080601f01602080910402602001604051908101604052809392919081815260200183838082843760009201919091525092955050913592506105d6915050565b6040805160208082528351818301528351919283929083019185019080838360005b838110156102a1578181015183820152602001610289565b50505050905090810190601f1680156102ce5780820380516001836020036101000a031916815260200191505b509250505060405180910390f35b610380600480360360208110156102f257600080fd5b810190602081018135600160201b81111561030c57600080fd5b82018360208201111561031e57600080fd5b803590602001918460018302840111600160201b8311171561033f57600080fd5b91908080601f0160208091040260200160405190810160405280939291908181526020018383808284376000920191909152509295506105ef945050505050565b60405180846001600160a01b03166001600160a01b0316815260200183815260200180602001828103825283818151815260200191508051906020019080838360005b838110156103db5781810151838201526020016103c3565b50505050905090810190601f1680156104085780820380516001836020036101000a031916815260200191505b5094505050505060405180910390f35b6104bc6004803603602081101561042e57600080fd5b810190602081018135600160201b81111561044857600080fd5b82018360208201111561045a57600080fd5b803590602001918460018302840111600160201b8311171561047b57600080fd5b91908080601f01602080910402602001604051908101604052809392919081815260200183838082843760009201919091525092955061060a945050505050565b604051808060200180602001856001600160a01b03166001600160a01b03168152602001848152602001838103835287818151815260200191508051906020019080838360005b8381101561051b578181015183820152602001610503565b50505050905090810190601f1680156105485780820380516001836020036101000a031916815260200191505b50838103825286518152865160209182019188019080838360005b8381101561057b578181015183820152602001610563565b50505050905090810190601f1680156105a85780820380516001836020036101000a031916815260200191505b50965050505050505060405180910390f35b60006105c582610628565b92915050565b60006105c58261062f565b60606105e8838363ffffffff61063616565b9392505050565b60008060606105fd84610690565b9250925092509193909250565b606080600080610619856106ae565b93509350935093509193509193565b60a0015190565b6020015190565b60208281015190820283016040015183019082108061068957604051600160e51b62461bcd0281526004018080602001828103825260228152602001806106d96022913960400191505060405180910390fd5b5092915050565b604081015160608201516001600160a01b0390911692909160800190565b60208101516040820151606083015160808401519284019491909301926001600160a01b0316919056fe415a54454320617272617920696e646578206973206f7574206f6620626f756e6473a165627a7a72305820a88b6de2ff7f2906dc7d6a529ca57d7ce42c11a68d7de85f018df7375d1c03710029",
  "source": "pragma solidity >=0.5.0 <0.6.0;\n\nimport \"../../libs/NoteUtils.sol\";\n\n/**\n * @title NoteUtils\n * @author AZTEC\n * @dev NoteUtils is a utility library that extracts user-readable information from AZTEC proof outputs.\n *      Specifically, `bytes proofOutput` objects can be extracted from `bytes proofOutputs`,\n *      `bytes proofOutput` and `bytes note` can be extracted into their constituent components,\n **/\ncontract NoteUtilsTest {\n    using NoteUtils for bytes;\n\n    /**\n    * @dev Get the number of entries in an AZTEC-ABI array (bytes proofOutputs, bytes inputNotes, bytes outputNotes)\n    *      All 3 are rolled into a single function to eliminate 'wet' code - the implementations are identical\n    * @param _proofOutputsOrNotes `proofOutputs`, `inputNotes` or `outputNotes`\n    * @return number of entries in the pseudo dynamic array\n    */\n    function getLength(bytes memory _proofOutputsOrNotes) public pure returns (\n        uint len\n    ) {\n        return _proofOutputsOrNotes.getLength();\n    }\n\n    /**\n    * @dev Get a bytes object out of a dynamic AZTEC-ABI array\n    * @param _proofOutputsOrNotes `proofOutputs`, `inputNotes` or `outputNotes`\n    * @param _i the desired entry\n    * @return number of entries in the pseudo dynamic array\n    */\n    function get(bytes memory _proofOutputsOrNotes, uint _i) public pure returns (\n        bytes memory out\n    ) {\n        return _proofOutputsOrNotes.get(_i);\n    }\n\n    /**\n    * @dev Extract constituent elements of a `bytes _proofOutput` object\n    * @param _proofOutput an AZTEC proof output\n    * @return inputNotes, AZTEC-ABI dynamic array of input AZTEC notes\n    * @return outputNotes, AZTEC-ABI dynamic array of output AZTEC notes\n    * @return publicOwner, the Ethereum address of the owner of any public tokens involved in the proof\n    * @return publicValue, the amount of public tokens involved in the proof\n    *         if (publicValue > 0), this represents a transfer of tokens from ACE to publicOwner\n    *         if (publicValue < 0), this represents a transfer of tokens from publicOwner to ACE\n    */\n    function extractProofOutput(bytes memory _proofOutput) public pure returns (\n        bytes memory inputNotes,\n        bytes memory outputNotes,\n        address publicOwner,\n        int256 publicValue\n    ) {\n        return _proofOutput.extractProofOutput();\n    }\n\n    /**\n    * @dev Extract the challenge from a bytes proofOutput variable\n    * @param _proofOutput bytes proofOutput, outputted from a proof validation smart contract\n    * @return bytes32 challenge - cryptographic variable that is part of the sigma protocol\n    */\n    function extractChallenge(bytes memory _proofOutput) public pure returns (\n        bytes32 challenge\n    ) {\n        return _proofOutput.extractChallenge();\n    }\n\n    /**\n    * @dev Extract constituent elements of an AZTEC note\n    * @param _note an AZTEC note\n    * @return owner, Ethereum address of note owner\n    * @return noteHash, the hash of the note's public key\n    * @return metadata, note-specific metadata (contains public key and any extra data needed by note owner)\n    */\n    function extractNote(bytes memory _note) public pure returns (\n        address owner,\n        bytes32 noteHash,\n        bytes memory metadata\n    ) {\n        return _note.extractNote();\n    }\n    \n    /**\n    * @dev Get the note type\n    * @param _note an AZTEC note\n    * @return noteType\n    */\n    function getNoteType(bytes memory _note) public pure returns (\n        uint256 noteType\n    ) {\n        return _note.getNoteType();\n    }\n}\n",
  "sourcePath": "/Users/joeandrews/Documents/Code/AZTEC/packages/protocol/contracts/test/libs/NoteUtilsTest.sol",
  "compiler": {
    "name": "solc",
    "version": "0.5.7+commit.6da8b019.Emscripten.clang"
  },
  "schemaVersion": "3.0.11",
  "updatedAt": "2019-07-30T13:09:11.358Z",
  "devdoc": {
    "author": "AZTEC",
    "details": "NoteUtils is a utility library that extracts user-readable information from AZTEC proof outputs.     Specifically, `bytes proofOutput` objects can be extracted from `bytes proofOutputs`,     `bytes proofOutput` and `bytes note` can be extracted into their constituent components,*",
    "methods": {
      "extractChallenge(bytes)": {
        "details": "Extract the challenge from a bytes proofOutput variable",
        "params": {
          "_proofOutput": "bytes proofOutput, outputted from a proof validation smart contract"
        },
        "return": "bytes32 challenge - cryptographic variable that is part of the sigma protocol"
      },
      "extractNote(bytes)": {
        "details": "Extract constituent elements of an AZTEC note",
        "params": {
          "_note": "an AZTEC note"
        },
        "return": "owner, Ethereum address of note ownernoteHash, the hash of the note's public keymetadata, note-specific metadata (contains public key and any extra data needed by note owner)"
      },
      "extractProofOutput(bytes)": {
        "details": "Extract constituent elements of a `bytes _proofOutput` object",
        "params": {
          "_proofOutput": "an AZTEC proof output"
        },
        "return": "inputNotes, AZTEC-ABI dynamic array of input AZTEC notesoutputNotes, AZTEC-ABI dynamic array of output AZTEC notespublicOwner, the Ethereum address of the owner of any public tokens involved in the proofpublicValue, the amount of public tokens involved in the proof        if (publicValue > 0), this represents a transfer of tokens from ACE to publicOwner        if (publicValue < 0), this represents a transfer of tokens from publicOwner to ACE"
      },
      "get(bytes,uint256)": {
        "details": "Get a bytes object out of a dynamic AZTEC-ABI array",
        "params": {
          "_i": "the desired entry",
          "_proofOutputsOrNotes": "`proofOutputs`, `inputNotes` or `outputNotes`"
        },
        "return": "number of entries in the pseudo dynamic array"
      },
      "getLength(bytes)": {
        "details": "Get the number of entries in an AZTEC-ABI array (bytes proofOutputs, bytes inputNotes, bytes outputNotes)     All 3 are rolled into a single function to eliminate 'wet' code - the implementations are identical",
        "params": {
          "_proofOutputsOrNotes": "`proofOutputs`, `inputNotes` or `outputNotes`"
        },
        "return": "number of entries in the pseudo dynamic array"
      },
      "getNoteType(bytes)": {
        "details": "Get the note type",
        "params": {
          "_note": "an AZTEC note"
        },
        "return": "noteType"
      }
    },
    "title": "NoteUtils"
  },
  "userdoc": {
    "methods": {}
  }
}