{
  "contractName": "PrivateRangeABIEncoderTest",
  "abi": [
    {
      "constant": true,
      "inputs": [
        {
          "name": "",
          "type": "bytes"
        },
        {
          "name": "",
          "type": "address"
        },
        {
          "name": "",
          "type": "uint256[6]"
        }
      ],
      "name": "validatePrivateRange",
      "outputs": [
        {
          "name": "",
          "type": "bytes"
        }
      ],
      "payable": false,
      "stateMutability": "pure",
      "type": "function"
    }
  ],
  "bytecode": "0x608060405234801561001057600080fd5b5061036a806100206000396000f3fe608060405234801561001057600080fd5b506004361061002b5760003560e01c80631fa23f2714610030575b600080fd5b6100af600480360361010081101561004757600080fd5b81019060208101813564010000000081111561006257600080fd5b82018360208201111561007457600080fd5b8035906020019184600183028401116401000000008311171561009657600080fd5b91935091506001600160a01b0381351690602001610124565b6040805160208082528351818301528351919283929083019185019080838360005b838110156100e95781810151838201526020016100d1565b50505050905090810190601f1680156101165780820380516001836020036101000a031916815260200191505b509250505060405180910390f35b606061012e610136565b949350505050565b610144356101040160036002610164356101240161018435610124016101a4356101440160016101a05260606101c05260c0610200526000610240526000806102605261012435610280526102a0856020820152602086026102e00160005b8781101561022d5760c0810260208b0101600160005260806040820160203760c083526001602084015260208202880135604084015260a0600020606084015260406080840152600160ff1b60016060830135160260408201351760a0840152600160ff1b600160a0830135160260808201351760c08401528383036020830260408601015260e08301925050600181019050610195565b50601f1982820390810190925260c0909101610220528587036020828101829052028101604001865b8881101561030f5760c0810260208b01016020898303028601358060408803013560016000526080604084016020378060c00185526001602086015260208b850302890135604086015260a06000206060860152806040016080860152600160ff1b600160405116026020511760a0860152600160ff1b600160805116026060511760c08601528060208903830160e087013785850360208c860302604088010152602085510185019450505050600181019050610256565b5060208282030382526102a081038060a0016101e0528061010001610180526020610160528061014001610160f3fea165627a7a7230582088ab342e978fd900539ae55353a55cdca34954a61a79e89b52643e68d9369e110029",
  "source": "pragma solidity >=0.5.0 <0.6.0;\n\nimport \"../../../../ACE/validators/privateRange/PrivateRangeABIEncoder.sol\";\n\ncontract PrivateRangeABIEncoderTest {\n\n    function validatePrivateRange(\n        bytes calldata,\n        address,\n        uint[6] calldata\n    )\n        external\n        pure\n        returns (bytes memory)\n    {\n        PrivateRangeABIEncoder.encodeAndExit();\n    }\n}\n",
  "sourcePath": "/Users/joeandrews/Documents/Code/AZTEC/packages/protocol/contracts/test/ACE/validators/privateRange/PrivateRangeABIEncoderTest.sol",
  "compiler": {
    "name": "solc",
    "version": "0.5.7+commit.6da8b019.Emscripten.clang"
  },
  "schemaVersion": "3.0.11",
  "updatedAt": "2019-07-30T19:04:03.766Z",
  "devdoc": {
    "methods": {}
  },
  "userdoc": {
    "methods": {}
  }
}