{
  "contractName": "ProofUtilsTest",
  "abi": [
    {
      "constant": true,
      "inputs": [
        {
          "name": "proof",
          "type": "uint24"
        }
      ],
      "name": "getProofComponents",
      "outputs": [
        {
          "name": "epoch",
          "type": "uint8"
        },
        {
          "name": "category",
          "type": "uint8"
        },
        {
          "name": "id",
          "type": "uint8"
        }
      ],
      "payable": false,
      "stateMutability": "pure",
      "type": "function"
    }
  ],
  "bytecode": "0x608060405234801561001057600080fd5b5060d58061001f6000396000f3fe6080604052348015600f57600080fd5b506004361060285760003560e01c806330722fd114602d575b600080fd5b604c60048036036020811015604157600080fd5b503562ffffff166071565b6040805160ff9485168152928416602084015292168183015290519081900360600190f35b600080600060828462ffffff16608f565b9250925092509193909250565b60ff6201000082048116926101008304821692919091169056fea165627a7a7230582089cbb7f2099faa3691cae3114f86077aa06206bcf1a0421cd189c95c4c468fa50029",
  "source": "pragma solidity >= 0.5.0 <0.6.0;\n\nimport \"../../libs/ProofUtils.sol\";\n\n/**\n * @title Library of proof utility functions\n * @author AZTEC\n * Copyright Spilsbury Holdings Ltd 2019. All rights reserved.\n **/\ncontract ProofUtilsTest {\n    using ProofUtils for uint24;\n\n    /**\n     * @dev We compress three uint8 numbers into only one uint24 to save gas.\n     * Reverts if the category is not one of [1, 2, 3, 4].\n     * @param proof The compressed uint24 number.\n     * @return A tuple (uint8, uint8, uint8) representing the epoch, category and proofId.\n     */\n    function getProofComponents(uint24 proof) public pure returns (uint8 epoch, uint8 category, uint8 id) {\n        return proof.getProofComponents();\n    }\n}\n",
  "sourcePath": "/Users/joeandrews/Documents/Code/AZTEC/packages/protocol/contracts/test/libs/ProofUtilsTest.sol",
  "compiler": {
    "name": "solc",
    "version": "0.5.7+commit.6da8b019.Emscripten.clang"
  },
  "schemaVersion": "3.0.11",
  "updatedAt": "2019-07-30T19:04:03.771Z",
  "devdoc": {
    "author": "AZTEC Copyright Spilsbury Holdings Ltd 2019. All rights reserved.*",
    "methods": {
      "getProofComponents(uint24)": {
        "details": "We compress three uint8 numbers into only one uint24 to save gas. Reverts if the category is not one of [1, 2, 3, 4].",
        "params": {
          "proof": "The compressed uint24 number."
        },
        "return": "A tuple (uint8, uint8, uint8) representing the epoch, category and proofId."
      }
    },
    "title": "Library of proof utility functions"
  },
  "userdoc": {
    "methods": {}
  }
}