{
  "contractName": "SafeMath8Test",
  "abi": [
    {
      "constant": true,
      "inputs": [
        {
          "name": "a",
          "type": "uint8"
        },
        {
          "name": "b",
          "type": "uint8"
        }
      ],
      "name": "_mul",
      "outputs": [
        {
          "name": "",
          "type": "uint8"
        }
      ],
      "payable": false,
      "stateMutability": "pure",
      "type": "function"
    },
    {
      "constant": true,
      "inputs": [
        {
          "name": "a",
          "type": "uint8"
        },
        {
          "name": "b",
          "type": "uint8"
        }
      ],
      "name": "_add",
      "outputs": [
        {
          "name": "",
          "type": "uint8"
        }
      ],
      "payable": false,
      "stateMutability": "pure",
      "type": "function"
    },
    {
      "constant": true,
      "inputs": [
        {
          "name": "a",
          "type": "uint8"
        },
        {
          "name": "b",
          "type": "uint8"
        }
      ],
      "name": "_sub",
      "outputs": [
        {
          "name": "",
          "type": "uint8"
        }
      ],
      "payable": false,
      "stateMutability": "pure",
      "type": "function"
    }
  ],
  "bytecode": "0x608060405234801561001057600080fd5b5061029e806100206000396000f3fe608060405234801561001057600080fd5b50600436106100415760003560e01c80633e2f03ad1461004657806373df4c23146100845780638246d678146100ac575b600080fd5b61006e6004803603604081101561005c57600080fd5b5060ff813581169160200135166100d4565b6040805160ff9092168252519081900360200190f35b61006e6004803603604081101561009a57600080fd5b5060ff813581169160200135166100f0565b61006e600480360360408110156100c257600080fd5b5060ff81358116916020013516610105565b60006100e960ff84168363ffffffff61011a16565b9392505050565b60006100e960ff84168363ffffffff61016816565b60006100e960ff84168363ffffffff6101b516565b600060ff8381169083160261010081106100e957604051600160e51b62461bcd02815260040180806020018281038252602481526020018061022a6024913960400191505060405180910390fd5b600082820160ff80851690821610156100e957604051600160e51b62461bcd0281526004018080602001828103825260248152602001806102066024913960400191505060405180910390fd5b60008260ff168260ff1611156101ff57604051600160e51b62461bcd02815260040180806020018281038252602581526020018061024e6025913960400191505060405180910390fd5b5090039056fe75696e7438206164642074726967676572656420696e7465676572206f766572666c6f7775696e7438206d756c2074726967676572656420696e7465676572206f766572666c6f7775696e7438207375622074726967676572656420696e746567657220756e646572666c6f77a165627a7a723058202adf22f77e7b5ecbfd5ec67002279e880dea2c5041815bca573623d1b23979ec0029",
  "source": "pragma solidity >=0.5.0 <0.6.0;\n\nimport \"../../libs/SafeMath8.sol\";\n\ncontract SafeMath8Test {\n    using SafeMath8 for uint8;\n\n    function _mul(uint8 a, uint8 b) public pure returns (uint8) {\n        return(a.mul(b));\n    }\n\n    function _add(uint8 a, uint8 b) public pure returns (uint8) {\n        return(a.add(b));\n    }\n\n    function _sub(uint8 a, uint8 b) public pure returns (uint8) {\n        return(a.sub(b));\n    }\n}\n",
  "sourcePath": "/Users/joeandrews/Documents/Code/AZTEC/packages/protocol/contracts/test/libs/SafeMath8Test.sol",
  "compiler": {
    "name": "solc",
    "version": "0.5.7+commit.6da8b019.Emscripten.clang"
  },
  "schemaVersion": "3.0.11",
  "updatedAt": "2019-07-30T19:04:03.772Z",
  "devdoc": {
    "methods": {}
  },
  "userdoc": {
    "methods": {}
  }
}