{
  "contractName": "SwapInterface",
  "abi": [
    {
      "constant": true,
      "inputs": [
        {
          "name": "",
          "type": "bytes"
        },
        {
          "name": "",
          "type": "address"
        },
        {
          "name": "",
          "type": "uint256[6]"
        }
      ],
      "name": "validateSwap",
      "outputs": [
        {
          "name": "",
          "type": "bytes"
        }
      ],
      "payable": false,
      "stateMutability": "pure",
      "type": "function"
    }
  ],
  "bytecode": "0x608060405234801561001057600080fd5b5061015a806100206000396000f3fe608060405234801561001057600080fd5b506004361061002b5760003560e01c80632863433314610030575b600080fd5b6100af600480360361010081101561004757600080fd5b81019060208101813564010000000081111561006257600080fd5b82018360208201111561007457600080fd5b8035906020019184600183028401116401000000008311171561009657600080fd5b91935091506001600160a01b0381351690602001610124565b6040805160208082528351818301528351919283929083019185019080838360005b838110156100e95781810151838201526020016100d1565b50505050905090810190601f1680156101165780820380516001836020036101000a031916815260200191505b509250505060405180910390f35b606094935050505056fea165627a7a7230582084adfa65e2a4f2f8853d22fe6a176aab34d79d4ee89179bd0170fb41e5d9ecd10029",
  "source": "pragma solidity >=0.5.0 <0.6.0;\n\ncontract SwapInterface {\n    function validateSwap(\n        bytes calldata,\n        address,\n        uint[6] calldata\n    )\n        external\n        pure\n        returns (bytes memory)\n    {}\n}\n",
  "sourcePath": "/Users/joeandrews/Documents/Code/AZTEC/packages/protocol/contracts/interfaces/SwapInterface.sol",
  "compiler": {
    "name": "solc",
    "version": "0.5.7+commit.6da8b019.Emscripten.clang"
  },
  "schemaVersion": "3.0.11",
  "updatedAt": "2019-08-01T10:46:38.708Z",
  "devdoc": {
    "methods": {}
  },
  "userdoc": {
    "methods": {}
  }
}