{
  "contractName": "Swap",
  "abi": [
    {
      "constant": true,
      "inputs": [
        {
          "name": "",
          "type": "bytes"
        },
        {
          "name": "",
          "type": "address"
        },
        {
          "name": "",
          "type": "uint256[6]"
        }
      ],
      "name": "validateSwap",
      "outputs": [
        {
          "name": "",
          "type": "bytes"
        }
      ],
      "payable": false,
      "stateMutability": "pure",
      "type": "function"
    }
  ],
  "bytecode": "0x608060405234801561001057600080fd5b50610581806100206000396000f3fe608060405234801561001057600080fd5b50610019610023565b606060405261018f565b60443560805260643560a052610144356101040180356004811461004d5761019060005260206000fd5b7f30644e72e131a029b85045b68181585d2833e84879b9709143e1f593f00000018061012435066024356102e0526100858385610241565b608083026103000160005b848110156101685760c081026020870101600060208201358560018511600181146100c05780156100cd576100d2565b61018085033593506100d2565b843593505b506100de828486610194565b60406080850160e037604080850160203780880361012052826060528160c05260406101a0606060e060075afa60406101206060602060075afa1660406101606060608060075afa166040610160608061012060065afa16604087608061016060065afa16806101545761019060005260206000fd5b505050604093909301925050600101610090565b50826102e082036102e020068281146101875761019460005260206000fd5b505050505050565b61023c565b7f30644e72e131a029b85045b68181585d2833e84879b9709143e1f593f00000017f30644e72e131a029b85045b68181585d97816a916871ca8d3c208c16d87cfd4760408301356060840135608085013560a086013584838409856003878789898a090908148582830986600388868a888909090814166001891189888b06141660018b118b898d06141616166102315761019060005260206000fd5b505050505050505050565b610278565b60005b8281101561026a57606060c0820283010160808160808402610300013750600101610244565b505060800261030020600052565b610280610282565b005b61014435610104016101643561012401610184356101440160208203356004146020820335600214166102b457600080fd5b60206101605260026101a05260806101c05260c06102205261020061024052600061026052600061028052610124356102a0526101206102c05260016102e052606061030052600160005260806060840160203760c06103205260016103405281356103605260a06000206103805260406103a052600160ff1b60016040511602602051176103c052600160ff1b60016080511602606051176103e05260016104205260606104405260806101e0840160203760016104805260408201356104a05260a06000206104c052803580604083030135806040016104e052600160ff1b600160405116026020511761050052600160ff1b60016080511602606051176105205280602084038301610540378060c00161046052806101200161040052806103200161020052806103c0016101e052806105400160c06020820152610200604082015260006060820152600060808201526101243560e052602060e02060a082015261012060c0820152600160e0820152606061010082015260806102a0870160203760c06101208201526001610140820152606085013561016082015260a060002061018082015260406101a0820152600160ff1b60016040511602602051176101c0820152600160ff1b60016080511602606051176101e08201526001610220820152606061024082015260806101208701602037600161028082015260208501356102a082015260a06000206102c082015260208401359250826040850301359150816040016102e0820152600160ff1b6001604051160260205117610300820152600160ff1b6001608051160260605117610320820152816020850384016103408301378160c00161026082015281610120016102008201528161032001815261020051826103c001016101805260406101805101610160f3fea165627a7a723058203f692e54b0342e44341181a52af64093fc1e98ef28ea3c1ec3bb4915a57428d30029",
  "source": "pragma solidity >=0.5.0 <0.6.0;\n\nimport \"./SwapABIEncoder.sol\";\n\n/**\n * @title Library to validate Swap proofs\n * @author AZTEC\n * @dev Don't include this as an internal library. This contract uses\n * a static memory table to cache elliptic curve primitives and hashes.\n * Calling this internally from another function will lead to memory\n * mutation and undefined behaviour.\n * The intended use case is to call this externally via `staticcall`. External\n * calls to OptimizedAZTEC can be treated as pure functions as this contract\n * contains no storage and makes no external calls (other than to precompiles)\n * Copyright Spilsbury Holdings Ltd 2019. All rights reserved.\n **/\ncontract Swap {\n\n    /**\n     * @dev Swap will take any transaction sent to it and attempt to validate a zero knowledge proof.\n     * If the proof is not valid, the transaction throws.\n     * @notice See SwapInterface for how method calls should be constructed.\n     * This contract is written in YUL to enable manual memory management and for other efficiency savings.\n     **/\n    // solhint-disable payable-fallback\n    function() external {\n        assembly {\n\n            // We don't check for function signatures, there's only one function that\n            // ever gets called: validateSwap()\n            // We still assume calldata is offset by 4 bytes so that we can represent\n            // this contract through a comp\\atible ABI\n            validateSwap()\n\n            // if we get to here, the proof is valid. We now 'fall through' the assembly block\n            // and into JoinSplitABI.validateJoinSplit()\n            // reset the free memory pointer because we're touching Solidity code again\n            mstore(0x40, 0x60)\n            /**\n             * New calldata map\n             * 0x04:0x24      = calldata location of proofData byte array\n             * 0x24:0x44      = message sender // sender\n             * 0x44:0x64      = h_x     // crs\n             * 0x64:0x84      = h_y     // crs\n             * 0x84:0xa4      = t2_x0   // crs\n             * 0xa4:0xc4      = t2_x1   // crs\n             * 0xa4:0xc4      = t2_x1   // crs\n             * 0xc4:0xe4      = t2_y0   // crs\n             * 0xe4:0x104     = t2_y1   // crs\n             * 0x104:0x124    = length of proofData byte array\n             * 0x124:0x144    = challenge\n             * 0x144:0x164    = offset in byte array to notes\n             * 0x164:0x184    = offset in byte array to inputOwners\n             * 0x184:0x1a4    = offset in byte array to outputOwners\n             * 0x1a4:0x1c4    = offset in byte array to metadata\n             *\n             *\n             * Note data map (uint[6]) is\n             * 0x00:0x20       = Z_p element \\bar{k}_i\n             * 0x20:0x40       = Z_p element \\bar{a}_i\n             * 0x40:0x80       = G1 element \\gamma_i\n             * 0x80:0xc0       = G1 element \\sigma_i\n             *\n             * We use a hard-coded memory map to reduce gas costs - if this is not called as an\n             * external contract then terrible things will happen!\n             *\n             * 0x00:0x20       = scratch data to store result of keccak256 calls\n             * 0x20:0x80       = scratch data to store \\gamma_i and a multiplication scalar\n             * 0x80:0xc0       = x-coordinate of generator h\n             * 0xc0:0xe0       = y-coordinate of generator h\n             * 0xe0:0x100      = scratch data to store a scalar we plan to multiply h by\n             * 0x100:0x160     = scratch data to store \\sigma_i and a multiplication scalar\n             * 0x160:0x1a0     = stratch data to store result of G1 point additions\n             * 0x1a0:0x1c0     = scratch data to store result of \\sigma_i^{-cx_{i-m-1}}\n             * 0x220:0x260     = scratch data to store \\gamma_i^{cx_{i-m-1}}\n             * 0x2e0:0x300     = msg.sender (contract should be called via delegatecall/staticcall)\n             * 0x300:???       = block of memory that contains (\\gamma_i, \\sigma_i)_{i=0}^{n-1}\n             *                   concatenated with (B_i)_{i=0}^{n-1}\n             **/\n            function validateSwap() {\n                /*\n                ///////////////////////////////////////////  SETUP  //////////////////////////////////////////////\n                */\n\n                mstore(0x80, calldataload(0x44)) // h_x\n                mstore(0xa0, calldataload(0x64)) // h_y\n                let notes := add(0x104, calldataload(0x144)) // start position of notes\n                let n := calldataload(notes) // first element of the notes array is it's length\n\n                if iszero(eq(n, 0x04)) { // eq(n, 4) will resolve to 0 if n != 4\n\n                    mstore(0x00, 400) // 400 error code - due to incorrect number of notes supplied\n                    revert(0x00, 0x20)\n\n                }\n\n                let gen_order := 0x30644e72e131a029b85045b68181585d2833e84879b9709143e1f593f0000001\n                let challenge := mod(calldataload(0x124), gen_order)\n\n                mstore(0x2e0, calldataload(0x24)) // store the msg.sender, to be hashed later\n\n                hashCommitments(notes, n)\n                let b := add(0x300, mul(n, 0x80)) // set pointer to memory location of commitments where the commitments\n\n                /*\n                ///////////////////////////  CALCULATE BLINDING FACTORS  /////////////////////////////////////\n                */\n\n                // Iterate over every note and calculate the blinding factor B_i = \\gamma_i^{kBar}h^{aBar}\\sigma_i^{-c}.\n                for { let i := 0 } lt(i, n) { i := add(i, 0x01) } {\n\n                    // Get the calldata index of this note and associated parameters\n                    let noteIndex := add(add(notes, 0x20), mul(i, 0xc0))\n                    let k\n                    let a := calldataload(add(noteIndex, 0x20))\n                    let c := challenge\n\n                    switch gt(i, 1) // i (an indexer) > 1 denotes a taker note\n                    case 1 { // if it's a taker note\n\n                        // indexing the k value of the note that is 2 indices behind the current note\n                        k := calldataload(sub(noteIndex, 0x180))\n                    }\n\n                    case 0 { // if it's a maker note\n                        k := calldataload(noteIndex)\n                    }\n\n\n                    // Check this commitment is well formed\n                    validateCommitment(noteIndex, k, a)\n\n                    // Calculate the G1 element \\gamma_i^{k}h^{a}\\sigma_i^{-c} = B_i\n                    // Memory map:\n                    // 0x20: \\gamma_iX\n                    // 0x40: \\gamma_iY\n                    // 0x60: k_i\n                    // 0x80: hX\n                    // 0xa0: hY\n                    // 0xc0: a_i\n                    // 0xe0: \\sigma_iX\n                    // 0x100: \\sigma_iY\n                    // 0x120: -c\n\n                    // loading into memory\n                    calldatacopy(0xe0, add(noteIndex, 0x80), 0x40)\n                    calldatacopy(0x20, add(noteIndex, 0x40), 0x40)\n                    mstore(0x120, sub(gen_order, c))\n                    mstore(0x60, k)\n                    mstore(0xc0, a)\n\n                    // Call bn128 scalar multiplication precompiles\n                    // Represent point + multiplication scalar in 3 consecutive blocks of memory\n                    // Store \\sigma_i^{-c} at 0x1a0:0x200\n                    // Store \\gamma_i^{k} at 0x120:0x160\n                    // Store h^{a} at 0x160:0x1a0\n                    let result := staticcall(gas, 7, 0xe0, 0x60, 0x1a0, 0x40)\n                    result := and(result, staticcall(gas, 7, 0x20, 0x60, 0x120, 0x40))\n                    result := and(result, staticcall(gas, 7, 0x80, 0x60, 0x160, 0x40))\n\n                    // Call bn128 group addition precompiles\n                    // \\gamma_i^{k} and h^{a} in memory block 0x120:0x1a0\n                    // Store result of addition at 0x160:0x1a0\n                    result := and(result, staticcall(gas, 6, 0x120, 0x80, 0x160, 0x40))\n\n                    // \\gamma_i^{k}h^{a} and \\sigma^{-c} in memory block 0x160:0x1e0\n                    // Store resulting point B at memory index b\n                    result := and(result, staticcall(gas, 6, 0x160, 0x80, b, 0x40))\n\n\n                    // throw transaction if any calls to precompiled contracts failed\n                    if iszero(result) { mstore(0x00, 400) revert(0x00, 0x20) }\n                    b := add(b, 0x40) // increase B pointer by 2 words\n                }\n                // Both bid notes already exist in their revelant AZTEC note registries - so can inductively\n                // infer that the ask notes are in the required range\n                // Therefore, don't need a range proof\n\n                /*\n                ////////////////////  RECONSTRUCT INITIAL CHALLENGE AND VERIFY A MATCH  ////////////////////////////////\n                */\n\n                // We now have the note commitments and the calculated blinding factors in a block of memory\n                // starting at 0x2e0, of size (b - 0x2e0).\n                // Hash this block to reconstruct the initial challenge and validate that they match\n                let expected := mod(keccak256(0x2e0, sub(b, 0x2e0)), gen_order)\n\n                if iszero(eq(expected, challenge)) {\n\n                    // No! Bad! No soup for you!\n                    mstore(0x00, 404)\n                    revert(0x00, 0x20)\n                }\n            }\n\n            /**\n             * @dev check that this note's points are on the altbn128 curve(y^2 = x^3 + 3)\n             * and that signatures 'k' and 'a' are modulo the order of the curve. Transaction\n             * throws if this is not the case.\n             * @param note the calldata loation of the note\n             **/\n            function validateCommitment(note, k, a) {\n                let gen_order := 0x30644e72e131a029b85045b68181585d2833e84879b9709143e1f593f0000001\n                let field_order := 0x30644e72e131a029b85045b68181585d97816a916871ca8d3c208c16d87cfd47\n                let gammaX := calldataload(add(note, 0x40))\n                let gammaY := calldataload(add(note, 0x60))\n                let sigmaX := calldataload(add(note, 0x80))\n                let sigmaY := calldataload(add(note, 0xa0))\n                if iszero(\n                    and(\n                        and(\n                            and(\n                                eq(mod(a, gen_order), a), // a is modulo generator order?\n                                gt(a, 1)                  // can't be 0 or 1 either!\n                            ),\n                            and(\n                                eq(mod(k, gen_order), k), // k is modulo generator order?\n                                gt(k, 1)                  // and not 0 or 1\n                            )\n                        ),\n                        and(\n                            eq( // y^2 ?= x^3 + 3\n                                addmod(mulmod(\n                                    mulmod(sigmaX, sigmaX, field_order), sigmaX, field_order),\n                                    3,\n                                    field_order),\n                                mulmod(sigmaY, sigmaY, field_order)\n                            ),\n                            eq( // y^2 ?= x^3 + 3\n                                addmod(mulmod(\n                                    mulmod(gammaX, gammaX, field_order),\n                                    gammaX,\n                                    field_order),\n                                    3, field_order),\n                                mulmod(gammaY, gammaY, field_order)\n                            )\n                        )\n                    )\n                ) {\n                    mstore(0x00, 400)\n                    revert(0x00, 0x20)\n                }\n            }\n\n            /**\n             * @dev Calculate the keccak256 hash of the commitments for both\n             * input notes and output notes. This is used both as an input to\n             * validate the challenge `c` and also to generate pseudorandom relationships\n             * between commitments for different outputNotes, so that we can combine\n             * them into a single multi-exponentiation for the purposes of validating\n             * the bilinear pairing relationships.\n             * @param notes calldata location notes\n             * @param n number of notes\n             **/\n            function hashCommitments(notes, n) {\n                for { let i := 0 } lt(i, n) { i := add(i, 0x01) } {\n                let index := add(add(notes, mul(i, 0xc0)), 0x60)\n                calldatacopy(add(0x300, mul(i, 0x80)), index, 0x80)\n                }\n                // storing at position 0x00 in memory, the kecca hash of everything from\n                // start of the commitments to the end\n                mstore(0x00, keccak256(0x300, mul(n, 0x80)))\n            }\n        }\n        // if we've reached here, we've validated the Swap and haven't thrown an error.\n        // Encode the output according to the ACE standard and exit.\n        SwapABIEncoder.encodeAndExit();\n    }\n}\n",
  "sourcePath": "/Users/joeandrews/Documents/Code/AZTEC/packages/protocol/contracts/ACE/validators/swap/Swap.sol",
  "compiler": {
    "name": "solc",
    "version": "0.5.7+commit.6da8b019.Emscripten.clang"
  },
  "schemaVersion": "3.0.11",
  "updatedAt": "2019-08-01T10:46:38.707Z",
  "devdoc": {
    "author": "AZTEC",
    "details": "Don't include this as an internal library. This contract uses a static memory table to cache elliptic curve primitives and hashes. Calling this internally from another function will lead to memory mutation and undefined behaviour. The intended use case is to call this externally via `staticcall`. External calls to OptimizedAZTEC can be treated as pure functions as this contract contains no storage and makes no external calls (other than to precompiles) Copyright Spilsbury Holdings Ltd 2019. All rights reserved.*",
    "methods": {},
    "title": "Library to validate Swap proofs"
  },
  "userdoc": {
    "methods": {}
  }
}