{
  "contractName": "ZkAssetBurnable",
  "abi": [
    {
      "constant": true,
      "inputs": [],
      "name": "JOIN_SPLIT_PROOF",
      "outputs": [
        {
          "name": "",
          "type": "uint24"
        }
      ],
      "payable": false,
      "stateMutability": "view",
      "type": "function"
    },
    {
      "constant": true,
      "inputs": [],
      "name": "ZERO_VALUE_NOTE_HASH",
      "outputs": [
        {
          "name": "",
          "type": "bytes32"
        }
      ],
      "payable": false,
      "stateMutability": "view",
      "type": "function"
    },
    {
      "constant": true,
      "inputs": [
        {
          "name": "",
          "type": "bytes32"
        },
        {
          "name": "",
          "type": "address"
        }
      ],
      "name": "confidentialApproved",
      "outputs": [
        {
          "name": "",
          "type": "bool"
        }
      ],
      "payable": false,
      "stateMutability": "view",
      "type": "function"
    },
    {
      "constant": false,
      "inputs": [
        {
          "name": "_noteHash",
          "type": "bytes32"
        },
        {
          "name": "_spender",
          "type": "address"
        },
        {
          "name": "_status",
          "type": "bool"
        },
        {
          "name": "_signature",
          "type": "bytes"
        }
      ],
      "name": "confidentialApprove",
      "outputs": [],
      "payable": false,
      "stateMutability": "nonpayable",
      "type": "function"
    },
    {
      "constant": false,
      "inputs": [
        {
          "name": "_noteHash",
          "type": "bytes32"
        },
        {
          "name": "_metaData",
          "type": "bytes"
        }
      ],
      "name": "updateNoteMetaData",
      "outputs": [],
      "payable": false,
      "stateMutability": "nonpayable",
      "type": "function"
    },
    {
      "constant": true,
      "inputs": [],
      "name": "PRIVATE_RANGE_PROOF",
      "outputs": [
        {
          "name": "",
          "type": "uint24"
        }
      ],
      "payable": false,
      "stateMutability": "view",
      "type": "function"
    },
    {
      "constant": false,
      "inputs": [],
      "name": "renounceOwnership",
      "outputs": [],
      "payable": false,
      "stateMutability": "nonpayable",
      "type": "function"
    },
    {
      "constant": true,
      "inputs": [
        {
          "name": "",
          "type": "uint8"
        }
      ],
      "name": "proofs",
      "outputs": [
        {
          "name": "",
          "type": "uint256"
        }
      ],
      "payable": false,
      "stateMutability": "view",
      "type": "function"
    },
    {
      "constant": false,
      "inputs": [
        {
          "name": "_epoch",
          "type": "uint8"
        },
        {
          "name": "_proofs",
          "type": "uint256"
        }
      ],
      "name": "setProofs",
      "outputs": [],
      "payable": false,
      "stateMutability": "nonpayable",
      "type": "function"
    },
    {
      "constant": true,
      "inputs": [
        {
          "name": "_proof",
          "type": "uint24"
        }
      ],
      "name": "supportsProof",
      "outputs": [
        {
          "name": "",
          "type": "bool"
        }
      ],
      "payable": false,
      "stateMutability": "view",
      "type": "function"
    },
    {
      "constant": true,
      "inputs": [],
      "name": "DIVIDEND_PROOF",
      "outputs": [
        {
          "name": "",
          "type": "uint24"
        }
      ],
      "payable": false,
      "stateMutability": "view",
      "type": "function"
    },
    {
      "constant": true,
      "inputs": [],
      "name": "owner",
      "outputs": [
        {
          "name": "",
          "type": "address"
        }
      ],
      "payable": false,
      "stateMutability": "view",
      "type": "function"
    },
    {
      "constant": true,
      "inputs": [],
      "name": "MINT_PROOF",
      "outputs": [
        {
          "name": "",
          "type": "uint24"
        }
      ],
      "payable": false,
      "stateMutability": "view",
      "type": "function"
    },
    {
      "constant": true,
      "inputs": [],
      "name": "isOwner",
      "outputs": [
        {
          "name": "",
          "type": "bool"
        }
      ],
      "payable": false,
      "stateMutability": "view",
      "type": "function"
    },
    {
      "constant": false,
      "inputs": [
        {
          "name": "_proofData",
          "type": "bytes"
        },
        {
          "name": "_signatures",
          "type": "bytes"
        }
      ],
      "name": "confidentialTransfer",
      "outputs": [],
      "payable": false,
      "stateMutability": "nonpayable",
      "type": "function"
    },
    {
      "constant": true,
      "inputs": [],
      "name": "ace",
      "outputs": [
        {
          "name": "",
          "type": "address"
        }
      ],
      "payable": false,
      "stateMutability": "view",
      "type": "function"
    },
    {
      "constant": false,
      "inputs": [
        {
          "name": "_proof",
          "type": "uint24"
        },
        {
          "name": "_proofOutput",
          "type": "bytes"
        }
      ],
      "name": "confidentialTransferFrom",
      "outputs": [],
      "payable": false,
      "stateMutability": "nonpayable",
      "type": "function"
    },
    {
      "constant": true,
      "inputs": [],
      "name": "BURN_PROOF",
      "outputs": [
        {
          "name": "",
          "type": "uint24"
        }
      ],
      "payable": false,
      "stateMutability": "view",
      "type": "function"
    },
    {
      "constant": true,
      "inputs": [],
      "name": "EIP712_DOMAIN_HASH",
      "outputs": [
        {
          "name": "",
          "type": "bytes32"
        }
      ],
      "payable": false,
      "stateMutability": "view",
      "type": "function"
    },
    {
      "constant": true,
      "inputs": [],
      "name": "linkedToken",
      "outputs": [
        {
          "name": "",
          "type": "address"
        }
      ],
      "payable": false,
      "stateMutability": "view",
      "type": "function"
    },
    {
      "constant": true,
      "inputs": [],
      "name": "scalingFactor",
      "outputs": [
        {
          "name": "",
          "type": "uint256"
        }
      ],
      "payable": false,
      "stateMutability": "view",
      "type": "function"
    },
    {
      "constant": false,
      "inputs": [
        {
          "name": "newOwner",
          "type": "address"
        }
      ],
      "name": "transferOwnership",
      "outputs": [],
      "payable": false,
      "stateMutability": "nonpayable",
      "type": "function"
    },
    {
      "inputs": [
        {
          "name": "_aceAddress",
          "type": "address"
        },
        {
          "name": "_linkedTokenAddress",
          "type": "address"
        },
        {
          "name": "_scalingFactor",
          "type": "uint256"
        }
      ],
      "payable": false,
      "stateMutability": "nonpayable",
      "type": "constructor"
    },
    {
      "anonymous": false,
      "inputs": [
        {
          "indexed": false,
          "name": "noteHash",
          "type": "bytes32"
        },
        {
          "indexed": false,
          "name": "noteData",
          "type": "bytes"
        }
      ],
      "name": "UpdateTotalBurned",
      "type": "event"
    },
    {
      "anonymous": false,
      "inputs": [
        {
          "indexed": true,
          "name": "previousOwner",
          "type": "address"
        },
        {
          "indexed": true,
          "name": "newOwner",
          "type": "address"
        }
      ],
      "name": "OwnershipTransferred",
      "type": "event"
    },
    {
      "anonymous": false,
      "inputs": [
        {
          "indexed": false,
          "name": "zkAssetAddress",
          "type": "address"
        },
        {
          "indexed": false,
          "name": "linkedTokenAddress",
          "type": "address"
        },
        {
          "indexed": false,
          "name": "scalingFactor",
          "type": "uint256"
        },
        {
          "indexed": false,
          "name": "canAdjustSupply",
          "type": "bool"
        },
        {
          "indexed": false,
          "name": "canConvert",
          "type": "bool"
        }
      ],
      "name": "CreateNoteRegistry",
      "type": "event"
    },
    {
      "anonymous": false,
      "inputs": [
        {
          "indexed": true,
          "name": "aceAddress",
          "type": "address"
        },
        {
          "indexed": true,
          "name": "linkedTokenAddress",
          "type": "address"
        },
        {
          "indexed": false,
          "name": "scalingFactor",
          "type": "uint256"
        },
        {
          "indexed": true,
          "name": "_canAdjustSupply",
          "type": "bool"
        },
        {
          "indexed": false,
          "name": "_canConvert",
          "type": "bool"
        }
      ],
      "name": "CreateZkAsset",
      "type": "event"
    },
    {
      "anonymous": false,
      "inputs": [
        {
          "indexed": false,
          "name": "noteRegistryId",
          "type": "uint256"
        }
      ],
      "name": "CreateNoteRegistry",
      "type": "event"
    },
    {
      "anonymous": false,
      "inputs": [
        {
          "indexed": true,
          "name": "owner",
          "type": "address"
        },
        {
          "indexed": true,
          "name": "noteHash",
          "type": "bytes32"
        },
        {
          "indexed": false,
          "name": "metadata",
          "type": "bytes"
        }
      ],
      "name": "CreateNote",
      "type": "event"
    },
    {
      "anonymous": false,
      "inputs": [
        {
          "indexed": true,
          "name": "owner",
          "type": "address"
        },
        {
          "indexed": true,
          "name": "noteHash",
          "type": "bytes32"
        },
        {
          "indexed": false,
          "name": "metadata",
          "type": "bytes"
        }
      ],
      "name": "DestroyNote",
      "type": "event"
    },
    {
      "anonymous": false,
      "inputs": [
        {
          "indexed": true,
          "name": "noteHash",
          "type": "bytes32"
        },
        {
          "indexed": false,
          "name": "metadata",
          "type": "bytes"
        }
      ],
      "name": "UpdateNoteMetaData",
      "type": "event"
    },
    {
      "anonymous": false,
      "inputs": [
        {
          "indexed": true,
          "name": "owner",
          "type": "address"
        },
        {
          "indexed": false,
          "name": "value",
          "type": "uint256"
        }
      ],
      "name": "ConvertTokens",
      "type": "event"
    },
    {
      "anonymous": false,
      "inputs": [
        {
          "indexed": true,
          "name": "owner",
          "type": "address"
        },
        {
          "indexed": false,
          "name": "value",
          "type": "uint256"
        }
      ],
      "name": "RedeemTokens",
      "type": "event"
    },
    {
      "constant": false,
      "inputs": [
        {
          "name": "_proof",
          "type": "uint24"
        },
        {
          "name": "_proofData",
          "type": "bytes"
        }
      ],
      "name": "confidentialBurn",
      "outputs": [],
      "payable": false,
      "stateMutability": "nonpayable",
      "type": "function"
    }
  ],
  "bytecode": "0x608060405234801561001057600080fd5b50604051606080620020f78339810180604052606081101561003157600080fd5b50805160208083015160409384015184517f454950373132446f6d61696e2800000000000000000000000000000000000000818501527f737472696e67206e616d652c0000000000000000000000000000000000000000602d8201527f737472696e672076657273696f6e2c000000000000000000000000000000000060398201527f6164647265737320766572696679696e67436f6e74726163740000000000000060488201527f29000000000000000000000000000000000000000000000000000000000000006061820152855160428183030181526062820180885281519186019190912060a28301885260199091527f415a5445435f43525950544f4752415048595f454e47494e45000000000000006082909201919091528551808701875260018082527f3100000000000000000000000000000000000000000000000000000000000000918601919091528651808601929092527fc8066e2c715ce196630b273cd256d8959d5b9fefc55e9e6d999fb0f08bb7f75f82880152600080516020620020d78339815191526060830152306080808401919091528751808403909101815260a090920190965280519301929092206000908155929390928491849184919084908490849084906001600160a01b0384161561021757600161021a565b60005b604080517f454950373132446f6d61696e28000000000000000000000000000000000000006020808301919091527f737472696e67206e616d652c0000000000000000000000000000000000000000602d8301527f737472696e672076657273696f6e2c000000000000000000000000000000000060398301527f6164647265737320766572696679696e67436f6e74726163740000000000000060488301527f29000000000000000000000000000000000000000000000000000000000000006061830152825160428184030181526062830180855281519183019190912060a28401855260089091527f5a4b5f41535345540000000000000000000000000000000000000000000000006082909301929092528251808401845260018082527f3100000000000000000000000000000000000000000000000000000000000000918301919091528351808301939093527f34a1782c7b6da6ed013d1c63b38e9a7204574db51f6df9ff13aa1786590013fd83850152600080516020620020d78339815191526060840152306080808501919091528451808503909101815260a0840180865281519190930120600090815581546001600160a01b038c81166001600160a01b03199283161793849055600280548d831693168317905560038b90557fa5468ca20000000000000000000000000000000000000000000000000000000090945260a485015260c4840189905287151560e48501528515156101048501529351949550169263a5468ca2926101248084019391929182900301818387803b15801561046a57600080fd5b505af115801561047e573d6000803e3d6000fd5b5050604080518681528415156020820152815186151594506001600160a01b03808a1694508a16927fca576e79bcb5c4a0045d9d596a80c733c3997559f688f69e5c03bd737d885b86928290030190a45050600580546001600160a01b0319163317908190556040516001600160a01b03919091169350600092507f8be0079c531659141344cd1fd0a4f28419497f9722a3daafe3b4186f6b6457e091508290a350505050505050611ba180620005366000396000f3fe608060405234801561001057600080fd5b506004361061014c5760003560e01c80638500e1f8116100c3578063cdfea90e1161007c578063cdfea90e14610563578063df92462514610613578063e306f7791461061b578063ea12489f14610623578063ed3437f81461062b578063f2fde38b146106335761014c565b80638500e1f8146103f65780638da5cb5b146103fe5780638e526d9b146104225780638f32d59b1461042a5780639698849814610432578063a5c8fa841461055b5761014c565b80632e3b9a3b116101155780632e3b9a3b1461030957806349518b281461037e578063715018a614610386578063764481181461038e57806376ae6bee146103ae5780637f08dede146103d45761014c565b80625bf7321461015157806307616051146101715780630c1bcabc1461018b5780630f4a80fe146102075780631f2ac16a14610247575b600080fd5b610159610659565b6040805162ffffff9092168252519081900360200190f35b610179610660565b60408051918252519081900360200190f35b610205600480360360408110156101a157600080fd5b62ffffff8235169190810190604081016020820135600160201b8111156101c757600080fd5b8201836020820111156101d957600080fd5b803590602001918460018302840111600160201b831117156101fa57600080fd5b509092509050610684565b005b6102336004803603604081101561021d57600080fd5b50803590602001356001600160a01b0316610921565b604080519115158252519081900360200190f35b6102056004803603608081101561025d57600080fd5b8135916001600160a01b0360208201351691604082013515159190810190608081016060820135600160201b81111561029557600080fd5b8201836020820111156102a757600080fd5b803590602001918460018302840111600160201b831117156102c857600080fd5b91908080601f016020809104026020016040519081016040528093929190818152602001838380828437600092019190915250929550610941945050505050565b6102056004803603604081101561031f57600080fd5b81359190810190604081016020820135600160201b81111561034057600080fd5b82018360208201111561035257600080fd5b803590602001918460018302840111600160201b8311171561037357600080fd5b509092509050610b36565b610159610b9c565b610205610ba3565b610179600480360360208110156103a457600080fd5b503560ff16610bfe565b610205600480360360408110156103c457600080fd5b5060ff8135169060200135610c10565b610233600480360360208110156103ea57600080fd5b503562ffffff16610c37565b610159610cd6565b610406610cdd565b604080516001600160a01b039092168252519081900360200190f35b610159610cec565b610233610cf3565b6102056004803603604081101561044857600080fd5b810190602081018135600160201b81111561046257600080fd5b82018360208201111561047457600080fd5b803590602001918460018302840111600160201b8311171561049557600080fd5b91908080601f0160208091040260200160405190810160405280939291908181526020018383808284376000920191909152509295949360208101935035915050600160201b8111156104e757600080fd5b8201836020820111156104f957600080fd5b803590602001918460018302840111600160201b8311171561051a57600080fd5b91908080601f016020809104026020016040519081016040528093929190818152602001838380828437600092019190915250929550610d04945050505050565b610406610e63565b6102056004803603604081101561057957600080fd5b62ffffff8235169190810190604081016020820135600160201b81111561059f57600080fd5b8201836020820111156105b157600080fd5b803590602001918460018302840111600160201b831117156105d257600080fd5b91908080601f016020809104026020016040519081016040528093929190818152602001838380828437600092019190915250929550610e72945050505050565b610159610ee3565b610179610eea565b610406610ef0565b610179610eff565b6102056004803603602081101561064957600080fd5b50356001600160a01b0316610f05565b6201010181565b7fcbc417524e52b95c42a4c42d357938497e3d199eb9b4a0139c92551d4000bc3c81565b61068c610cf3565b61069557600080fd5b806106ea5760408051600160e51b62461bcd02815260206004820152600d60248201527f70726f6f6620696e76616c696400000000000000000000000000000000000000604482015290519081900360640190fd5b600154604051600160e11b6368c943d302815262ffffff85166004820190815230604483018190526060602484018181526064850187905290946001600160a01b03169363d19287a693899389938993919291608401858580828437600081840152601f19601f82011690508083019250505095505050505050600060405180830381600087803b15801561077e57600080fd5b505af1158015610792573d6000803e3d6000fd5b505050506040513d6000823e601f3d908101601f1916820160405260208110156107bb57600080fd5b810190808051600160201b8111156107d257600080fd5b820160208101848111156107e557600080fd5b8151600160201b8111828201871017156107fe57600080fd5b509094506060935061082592506108209150849050600063ffffffff610f2216565b610f7c565b50509150506060610843610820600185610f2290919063ffffffff16565b505091505060006060610868610863600086610f2290919063ffffffff16565b610fa6565b925092505061087683610fc4565b7fe7f58324ed760f269f5239f2065a9c0bd4e11261d24ba3cab2454d68efa7ac1982826040518083815260200180602001828103825283818151815260200191508051906020019080838360005b838110156108dc5781810151838201526020016108c4565b50505050905090810190601f1680156109095780820380516001836020036101000a031916815260200191505b50935050505060405180910390a15050505050505050565b600460209081526000928352604080842090915290825290205460ff1681565b60015460408051600160e11b637f6f71330281523060048201526024810187905290516000926001600160a01b03169163fedee266916044808301926080929190829003018186803b15801561099657600080fd5b505afa1580156109aa573d6000803e3d6000fd5b505050506040513d60808110156109c057600080fd5b50519050600160ff821614610a0957604051600160e51b62461bcd028152600401808060200182810382526022815260200180611ab46022913960400191505060405180910390fd5b604080517f4e6f74655369676e6174757265280000000000000000000000000000000000006020808301919091526001607a1b70189e5d195ccccc881b9bdd1952185cda0b02602e8301527f61646472657373207370656e6465722c00000000000000000000000000000000603f830152600160a81b6a626f6f6c2073746174757302604f830152600160f81b602902605a8301528251603b818403018152605b83018452805190820120607b830152609b82018890526001600160a01b03871660bb83015260ff841660db808401919091528351808403909101815260fb9092019092528051910120610afe8187856110a8565b50505060009283526004602090815260408085206001600160a01b039490941685529290529120805460ff1916911515919091179055565b827f686a1d515e3b19b77653763162334277e2cfbaa5a2c89f3d15436c7c391edc77838360405180806020018281038252848482818152602001925080828437600083820152604051601f909101601f19169092018290039550909350505050a2505050565b6201040281565b610bab610cf3565b610bb457600080fd5b6005546040516000916001600160a01b0316907f8be0079c531659141344cd1fd0a4f28419497f9722a3daafe3b4186f6b6457e0908390a3600580546001600160a01b0319169055565b60066020526000908152604090205481565b610c18610cf3565b610c2157600080fd5b60ff909116600090815260066020526040902055565b600080600080610c4b8562ffffff166111b5565b9194509250905060ff8216600114610c9757604051600160e51b62461bcd028152600401808060200182810382526028815260200180611a8c6028913960400191505060405180910390fd5b6000610cad60ff8316600163ffffffff6111cf16565b60ff94851660009081526006602052604090205494169390931c60019081161495945050505050565b6201040181565b6005546001600160a01b031690565b6201020181565b6005546001600160a01b0316331490565b600154604051600160e01b63a2866ea30281526201010160048201818152336024840181905260606044850181815288516064870152885191966001600160a01b03169563a2866ea395948a9390929160840190602085019080838360005b83811015610d7b578181015183820152602001610d63565b50505050905090810190601f168015610da85780820380516001836020036101000a031916815260200191505b50945050505050600060405180830381600087803b158015610dc957600080fd5b505af1158015610ddd573d6000803e3d6000fd5b505050506040513d6000823e601f3d908101601f191682016040526020811015610e0657600080fd5b810190808051600160201b811115610e1d57600080fd5b82016020810184811115610e3057600080fd5b8151600160201b811182820187101715610e4957600080fd5b50509291905050509050610e5e81838561121f565b505050565b6001546001600160a01b031681565b6000610e7d83610c37565b9050600181151514610ed95760408051600160e51b62461bcd02815260206004820152601e60248201527f65787065637465642070726f6f6620746f20626520737570706f727465640000604482015290519081900360640190fd5b610e5e8383611580565b6201030181565b60005481565b6002546001600160a01b031681565b60035481565b610f0d610cf3565b610f1657600080fd5b610f1f816117c8565b50565b602082810151908202830160400151830190821080610f7557604051600160e51b62461bcd028152600401808060200182810382526022815260200180611b546022913960400191505060405180910390fd5b5092915050565b60208101516040820151606083015160808401519284019491909301926001600160a01b03169190565b604081015160608201516001600160a01b0390911692909160800190565b60005b610fd082611837565b8110156110a4576000806060610fef610863868663ffffffff610f2216565b92509250925081836001600160a01b03167f5ffb3072e4515cf3bfae8b16be9dff6313cf7c313a0c26faafe6971d8c7585f1836040518080602001828103825283818151815260200191508051906020019080838360005b8381101561105f578181015183820152602001611047565b50505050905090810190601f16801561108c5780820380516001836020036101000a031916815260200191505b509250505060405180910390a3505050600101610fc7565b5050565b60015460408051600160e11b637f6f71330281523060048201526024810185905290516000926001600160a01b03169163fedee266916044808301926080929190829003018186803b1580156110fd57600080fd5b505afa158015611111573d6000803e3d6000fd5b505050506040513d608081101561112757600080fd5b50606001518251909150600090156111585760006111448661183e565b9050611150818561185f565b91505061115b565b50335b816001600160a01b0316816001600160a01b0316146111ae57604051600160e51b62461bcd028152600401808060200182810382526028815260200180611ad66028913960400191505060405180910390fd5b5050505050565b60ff62010000820481169261010083048216929190911690565b60008260ff168260ff16111561121957604051600160e51b62461bcd028152600401808060200182810382526025815260200180611b2f6025913960400191505060405180910390fd5b50900390565b604081015160005b61123085611837565b8110156111ae576060611249868363ffffffff610f2216565b600154604051600160e11b634bbbcb69028152620101016004820181815230604484018190526060602485019081528651606486015286519697506001600160a01b039095169563977796d2959394889492939291608490910190602086019080838360005b838110156112c75781810151838201526020016112af565b50505050905090810190601f1680156112f45780820380516001836020036101000a031916815260200191505b50945050505050600060405180830381600087803b15801561131557600080fd5b505af1158015611329573d6000803e3d6000fd5b5050505060608060008061133c85610f7c565b9350935093509350600061134f85611837565b11156114c75760005b61136185611837565b8110156114c55760606113748b8361196c565b9050600061138b610863888563ffffffff610f2216565b50604080517f4a6f696e53706c69745369676e617475726528000000000000000000000000006020808301919091527f75696e7432342070726f6f662c0000000000000000000000000000000000000060338301526001607a1b70189e5d195ccccc881b9bdd1952185cda0b02828401527f75696e74323536206368616c6c656e67652c000000000000000000000000000060518301527f616464726573732073656e6465720000000000000000000000000000000000006063830152600160f81b60290260718301528251605281840301815260728301845280519082012060928301526201010160b283015260d2820184905260f282018f9052336101128084019190915283518084039091018152610132909201909252805191012090925090506114ba8183856110a8565b505050600101611358565b505b6114d0846119ab565b6114d983610fc4565b600081121561152757816001600160a01b03167ffed3b27b73d78d9d1f344bbbf25f7af35e0ac4d6cf8193604ce18082168e461a826000036040518082815260200191505060405180910390a25b6000811315611570576040805182815290516001600160a01b038416917f60213c45c34d8b94e495fd5871fdea7a7511f659e884ea25a0c8843b7f98bfad919081900360200190a25b5050505050600181019050611227565b60608060008061158f85610f7c565b935093509350935060006115a285611837565b905060005b818110156116335760006115c4610863888463ffffffff610f2216565b50600081815260046020908152604080832033845290915290205490925060ff161515600114905061162a57604051600160e51b62461bcd028152600401808060200182810382526031815260200180611afe6031913960400191505060405180910390fd5b506001016115a7565b50600154604051600160e11b634bbbcb6902815262ffffff89166004820190815233604483018190526060602484019081528a5160648501528a516001600160a01b039095169463977796d2948d948d94939092909160840190602086019080838360005b838110156116b0578181015183820152602001611698565b50505050905090810190601f1680156116dd5780820380516001836020036101000a031916815260200191505b50945050505050600060405180830381600087803b1580156116fe57600080fd5b505af1158015611712573d6000803e3d6000fd5b5050505061171f856119ab565b61172884610fc4565b600082121561177657826001600160a01b03167ffed3b27b73d78d9d1f344bbbf25f7af35e0ac4d6cf8193604ce18082168e461a836000036040518082815260200191505060405180910390a25b60008213156117bf576040805183815290516001600160a01b038516917f60213c45c34d8b94e495fd5871fdea7a7511f659e884ea25a0c8843b7f98bfad919081900360200190a25b50505050505050565b6001600160a01b0381166117db57600080fd5b6005546040516001600160a01b038084169216907f8be0079c531659141344cd1fd0a4f28419497f9722a3daafe3b4186f6b6457e090600090a3600580546001600160a01b0319166001600160a01b0392909216919091179055565b6020015190565b60008054604080516119019093526020919091529182526042601e20915290565b6000808251848452602084015160208560808760015afa601c8214601b831417606084141616925084518614600081146118985761189d565b855194505b505083528080156118b557506001600160a01b038216155b610f75576001600160a01b0382166119175760408051600160e51b62461bcd02815260206004820152601a60248201527f7369676e657220616464726573732063616e6e6f742062652030000000000000604482015290519081900360640190fd5b80610f755760408051600160e51b62461bcd02815260206004820152601960248201527f7369676e6174757265207265636f76657279206661696c656400000000000000604482015290519081900360640190fd5b60609081029190910160208181015160408084015193850151815193840192909252828101939093528184015281518082039093018352608001905290565b60005b6119b782611837565b8110156110a45760008060606119d6610863868663ffffffff610f2216565b92509250925081836001600160a01b03167febd4bb7b61198df63305dd538f077db9df9b14339d8a6221e301487770d79227836040518080602001828103825283818151815260200191508051906020019080838360005b83811015611a46578181015183820152602001611a2e565b50505050905090810190601f168015611a735780820380516001836020036101000a031916815260200191505b509250505060405180910390a35050506001016119ae56fe74686973206173736574206f6e6c7920737570706f7274732062616c616e6365642070726f6f66736f6e6c7920756e7370656e74206e6f7465732063616e20626520617070726f766564746865206e6f7465206f776e657220646964206e6f74207369676e2074686973206d65737361676573656e64657220646f6573206e6f74206861766520617070726f76616c20746f207370656e6420696e707574206e6f746575696e7438207375622074726967676572656420696e746567657220756e646572666c6f77415a54454320617272617920696e646578206973206f7574206f6620626f756e6473a165627a7a72305820c44f5aed9d804f4c317c1cf1ee77b0d6eff955e82fdf09560a52e183ec7f8d2b0029c89efdaa54c0f20c7adf612882df0950f5a951637e0307cdcb4c672f298b8bc6",
  "source": "\n\npragma solidity >=0.5.0 <0.6.0;\n\nimport \"openzeppelin-solidity/contracts/math/SafeMath.sol\";\n\nimport \"../ACE/ACE.sol\";\nimport \"../libs/LibEIP712.sol\";\nimport \"../libs/ProofUtils.sol\";\nimport \"./base/ZkAssetOwnableBase.sol\";\n\n/**\n * @title ZkAssetBurnable\n * @author AZTEC\n * @dev A contract defining the standard interface and behaviours of a confidential burnable asset. \n * Copyright Spilsbury Holdings Ltd 2019. All rights reserved.\n**/\ncontract ZkAssetBurnable is ZkAssetOwnableBase {\n    event UpdateTotalBurned(bytes32 noteHash, bytes noteData);\n\n    constructor(\n        address _aceAddress,\n        address _linkedTokenAddress,\n        uint256 _scalingFactor\n    ) public ZkAssetOwnableBase(\n        _aceAddress,\n        _linkedTokenAddress,\n        _scalingFactor,\n        true // canAdjustSupply\n    ) {\n    }\n    /**\n    * @dev Executes a confidential burning procedure, dependent on the provided proofData\n    * being succesfully validated by the zero-knowledge validator\n    * \n    * @param _proof - uint24 variable which acts as a unique identifier for the proof which\n    * _proofOutput is being submitted. _proof contains three concatenated uint8 variables: \n    * 1) epoch number 2) category number 3) ID number for the proof\n    * @param _proofData - bytes array of proof data, outputted from a proof construction\n    */\n    function confidentialBurn(uint24 _proof, bytes calldata _proofData) external onlyOwner {\n        require(_proofData.length != 0, \"proof invalid\");\n\n        (bytes memory _proofOutputs) = ace.burn(_proof, _proofData, address(this));\n\n        (, bytes memory newTotal, ,) = _proofOutputs.get(0).extractProofOutput();\n\n        (, bytes memory burnedNotes, ,) = _proofOutputs.get(1).extractProofOutput();\n\n        (,\n        bytes32 noteHash,\n        bytes memory metadata) = newTotal.get(0).extractNote();\n\n        logOutputNotes(burnedNotes);\n        emit UpdateTotalBurned(noteHash, metadata);\n    }\n}\n\n\n",
  "sourcePath": "/Users/joeandrews/Documents/Code/AZTEC/packages/protocol/contracts/ERC1724/ZkAssetBurnable.sol",
  "compiler": {
    "name": "solc",
    "version": "0.5.7+commit.6da8b019.Emscripten.clang"
  },
  "schemaVersion": "3.0.11",
  "updatedAt": "2019-08-01T10:46:36.008Z",
  "devdoc": {
    "author": "AZTEC",
    "details": "A contract defining the standard interface and behaviours of a confidential burnable asset.  Copyright Spilsbury Holdings Ltd 2019. All rights reserved.*",
    "methods": {
      "confidentialApprove(bytes32,address,bool,bytes)": {
        "details": "Note owner approving a third party, another address, to spend the note on owner's behalf. This is necessary to allow the confidentialTransferFrom() method to be called",
        "params": {
          "_noteHash": "- keccak256 hash of the note coordinates (gamma and sigma)",
          "_signature": "- ECDSA signature from the note owner that validates the confidentialApprove() instruction",
          "_spender": "- address being approved to spend the note",
          "_status": "- defines whether the _spender address is being approved to spend the note, or if permission is being revoked"
        }
      },
      "confidentialBurn(uint24,bytes)": {
        "details": "Executes a confidential burning procedure, dependent on the provided proofData being succesfully validated by the zero-knowledge validator ",
        "params": {
          "_proof": "- uint24 variable which acts as a unique identifier for the proof which _proofOutput is being submitted. _proof contains three concatenated uint8 variables:  1) epoch number 2) category number 3) ID number for the proof",
          "_proofData": "- bytes array of proof data, outputted from a proof construction"
        }
      },
      "confidentialTransfer(bytes,bytes)": {
        "details": "Executes a basic unilateral, confidential transfer of AZTEC notes Will submit _proofData to the validateProof() function of the Cryptography Engine.    * Upon successfull verification, it will update note registry state - creating output notes and destroying input notes.",
        "params": {
          "_proofData": "- bytes variable outputted from a proof verification contract, representing transfer instructions for the ACE",
          "_signatures": "- array of the ECDSA signatures over all inputNotes "
        }
      },
      "isOwner()": {
        "return": "true if `msg.sender` is the owner of the contract."
      },
      "owner()": {
        "return": "the address of the owner."
      },
      "renounceOwnership()": {
        "details": "Allows the current owner to relinquish control of the contract. It will not be possible to call the functions with the `onlyOwner` modifier anymore."
      },
      "transferOwnership(address)": {
        "details": "Allows the current owner to transfer control of the contract to a newOwner.",
        "params": {
          "newOwner": "The address to transfer ownership to."
        }
      }
    },
    "title": "ZkAssetBurnable"
  },
  "userdoc": {
    "methods": {
      "renounceOwnership()": {
        "notice": "Renouncing ownership will leave the contract without an owner, thereby removing any functionality that is only available to the owner."
      }
    }
  }
}