{
  "contractName": "ZkAssetDetailed",
  "abi": [
    {
      "constant": true,
      "inputs": [],
      "name": "JOIN_SPLIT_PROOF",
      "outputs": [
        {
          "name": "",
          "type": "uint24"
        }
      ],
      "payable": false,
      "stateMutability": "view",
      "type": "function"
    },
    {
      "constant": true,
      "inputs": [],
      "name": "name",
      "outputs": [
        {
          "name": "",
          "type": "string"
        }
      ],
      "payable": false,
      "stateMutability": "view",
      "type": "function"
    },
    {
      "constant": true,
      "inputs": [],
      "name": "ZERO_VALUE_NOTE_HASH",
      "outputs": [
        {
          "name": "",
          "type": "bytes32"
        }
      ],
      "payable": false,
      "stateMutability": "view",
      "type": "function"
    },
    {
      "constant": true,
      "inputs": [
        {
          "name": "",
          "type": "bytes32"
        },
        {
          "name": "",
          "type": "address"
        }
      ],
      "name": "confidentialApproved",
      "outputs": [
        {
          "name": "",
          "type": "bool"
        }
      ],
      "payable": false,
      "stateMutability": "view",
      "type": "function"
    },
    {
      "constant": false,
      "inputs": [
        {
          "name": "_noteHash",
          "type": "bytes32"
        },
        {
          "name": "_spender",
          "type": "address"
        },
        {
          "name": "_status",
          "type": "bool"
        },
        {
          "name": "_signature",
          "type": "bytes"
        }
      ],
      "name": "confidentialApprove",
      "outputs": [],
      "payable": false,
      "stateMutability": "nonpayable",
      "type": "function"
    },
    {
      "constant": false,
      "inputs": [
        {
          "name": "_noteHash",
          "type": "bytes32"
        },
        {
          "name": "_metaData",
          "type": "bytes"
        }
      ],
      "name": "updateNoteMetaData",
      "outputs": [],
      "payable": false,
      "stateMutability": "nonpayable",
      "type": "function"
    },
    {
      "constant": true,
      "inputs": [],
      "name": "PRIVATE_RANGE_PROOF",
      "outputs": [
        {
          "name": "",
          "type": "uint24"
        }
      ],
      "payable": false,
      "stateMutability": "view",
      "type": "function"
    },
    {
      "constant": true,
      "inputs": [],
      "name": "DIVIDEND_PROOF",
      "outputs": [
        {
          "name": "",
          "type": "uint24"
        }
      ],
      "payable": false,
      "stateMutability": "view",
      "type": "function"
    },
    {
      "constant": true,
      "inputs": [],
      "name": "MINT_PROOF",
      "outputs": [
        {
          "name": "",
          "type": "uint24"
        }
      ],
      "payable": false,
      "stateMutability": "view",
      "type": "function"
    },
    {
      "constant": true,
      "inputs": [],
      "name": "symbol",
      "outputs": [
        {
          "name": "",
          "type": "string"
        }
      ],
      "payable": false,
      "stateMutability": "view",
      "type": "function"
    },
    {
      "constant": false,
      "inputs": [
        {
          "name": "_proofData",
          "type": "bytes"
        },
        {
          "name": "_signatures",
          "type": "bytes"
        }
      ],
      "name": "confidentialTransfer",
      "outputs": [],
      "payable": false,
      "stateMutability": "nonpayable",
      "type": "function"
    },
    {
      "constant": true,
      "inputs": [],
      "name": "ace",
      "outputs": [
        {
          "name": "",
          "type": "address"
        }
      ],
      "payable": false,
      "stateMutability": "view",
      "type": "function"
    },
    {
      "constant": false,
      "inputs": [
        {
          "name": "_proof",
          "type": "uint24"
        },
        {
          "name": "_proofOutput",
          "type": "bytes"
        }
      ],
      "name": "confidentialTransferFrom",
      "outputs": [],
      "payable": false,
      "stateMutability": "nonpayable",
      "type": "function"
    },
    {
      "constant": true,
      "inputs": [],
      "name": "BURN_PROOF",
      "outputs": [
        {
          "name": "",
          "type": "uint24"
        }
      ],
      "payable": false,
      "stateMutability": "view",
      "type": "function"
    },
    {
      "constant": true,
      "inputs": [],
      "name": "EIP712_DOMAIN_HASH",
      "outputs": [
        {
          "name": "",
          "type": "bytes32"
        }
      ],
      "payable": false,
      "stateMutability": "view",
      "type": "function"
    },
    {
      "constant": true,
      "inputs": [],
      "name": "linkedToken",
      "outputs": [
        {
          "name": "",
          "type": "address"
        }
      ],
      "payable": false,
      "stateMutability": "view",
      "type": "function"
    },
    {
      "constant": true,
      "inputs": [],
      "name": "scalingFactor",
      "outputs": [
        {
          "name": "",
          "type": "uint256"
        }
      ],
      "payable": false,
      "stateMutability": "view",
      "type": "function"
    },
    {
      "inputs": [
        {
          "name": "_aceAddress",
          "type": "address"
        },
        {
          "name": "_linkedTokenAddress",
          "type": "address"
        },
        {
          "name": "_scalingFactor",
          "type": "uint256"
        },
        {
          "name": "_name",
          "type": "string"
        },
        {
          "name": "_symbol",
          "type": "string"
        }
      ],
      "payable": false,
      "stateMutability": "nonpayable",
      "type": "constructor"
    },
    {
      "anonymous": false,
      "inputs": [
        {
          "indexed": false,
          "name": "zkAssetAddress",
          "type": "address"
        },
        {
          "indexed": false,
          "name": "linkedTokenAddress",
          "type": "address"
        },
        {
          "indexed": false,
          "name": "scalingFactor",
          "type": "uint256"
        },
        {
          "indexed": false,
          "name": "canAdjustSupply",
          "type": "bool"
        },
        {
          "indexed": false,
          "name": "canConvert",
          "type": "bool"
        }
      ],
      "name": "CreateNoteRegistry",
      "type": "event"
    },
    {
      "anonymous": false,
      "inputs": [
        {
          "indexed": true,
          "name": "aceAddress",
          "type": "address"
        },
        {
          "indexed": true,
          "name": "linkedTokenAddress",
          "type": "address"
        },
        {
          "indexed": false,
          "name": "scalingFactor",
          "type": "uint256"
        },
        {
          "indexed": true,
          "name": "_canAdjustSupply",
          "type": "bool"
        },
        {
          "indexed": false,
          "name": "_canConvert",
          "type": "bool"
        }
      ],
      "name": "CreateZkAsset",
      "type": "event"
    },
    {
      "anonymous": false,
      "inputs": [
        {
          "indexed": false,
          "name": "noteRegistryId",
          "type": "uint256"
        }
      ],
      "name": "CreateNoteRegistry",
      "type": "event"
    },
    {
      "anonymous": false,
      "inputs": [
        {
          "indexed": true,
          "name": "owner",
          "type": "address"
        },
        {
          "indexed": true,
          "name": "noteHash",
          "type": "bytes32"
        },
        {
          "indexed": false,
          "name": "metadata",
          "type": "bytes"
        }
      ],
      "name": "CreateNote",
      "type": "event"
    },
    {
      "anonymous": false,
      "inputs": [
        {
          "indexed": true,
          "name": "owner",
          "type": "address"
        },
        {
          "indexed": true,
          "name": "noteHash",
          "type": "bytes32"
        },
        {
          "indexed": false,
          "name": "metadata",
          "type": "bytes"
        }
      ],
      "name": "DestroyNote",
      "type": "event"
    },
    {
      "anonymous": false,
      "inputs": [
        {
          "indexed": true,
          "name": "noteHash",
          "type": "bytes32"
        },
        {
          "indexed": false,
          "name": "metadata",
          "type": "bytes"
        }
      ],
      "name": "UpdateNoteMetaData",
      "type": "event"
    },
    {
      "anonymous": false,
      "inputs": [
        {
          "indexed": true,
          "name": "owner",
          "type": "address"
        },
        {
          "indexed": false,
          "name": "value",
          "type": "uint256"
        }
      ],
      "name": "ConvertTokens",
      "type": "event"
    },
    {
      "anonymous": false,
      "inputs": [
        {
          "indexed": true,
          "name": "owner",
          "type": "address"
        },
        {
          "indexed": false,
          "name": "value",
          "type": "uint256"
        }
      ],
      "name": "RedeemTokens",
      "type": "event"
    }
  ],
  "bytecode": "0x60806040523480156200001157600080fd5b5060405162001c8e38038062001c8e833981018060405260a08110156200003757600080fd5b81516020830151604084015160608501805193959294919391830192916401000000008111156200006757600080fd5b820160208101848111156200007b57600080fd5b81516401000000008111828201871017156200009657600080fd5b50509291906020018051640100000000811115620000b357600080fd5b82016020810184811115620000c757600080fd5b8151640100000000811182820187101715620000e257600080fd5b5050604080517f454950373132446f6d61696e28000000000000000000000000000000000000006020808301919091527f737472696e67206e616d652c0000000000000000000000000000000000000000602d8301527f737472696e672076657273696f6e2c000000000000000000000000000000000060398301527f6164647265737320766572696679696e67436f6e74726163740000000000000060488301527f29000000000000000000000000000000000000000000000000000000000000006061830152825160428184030181526062830180855281519183019190912060a28401855260199091527f415a5445435f43525950544f4752415048595f454e47494e450000000000000060829093019290925282518084018452600181527f3100000000000000000000000000000000000000000000000000000000000000908201528251808201929092527fc8066e2c715ce196630b273cd256d8959d5b9fefc55e9e6d999fb0f08bb7f75f8284015260008051602062001c6e8339815191526060830152306080808401919091528351808403909101815260a0909201909252805191012060009081559093508792508691508590806001600160a01b03841615620002b6576001620002b9565b60005b604080517f454950373132446f6d61696e28000000000000000000000000000000000000006020808301919091527f737472696e67206e616d652c0000000000000000000000000000000000000000602d8301527f737472696e672076657273696f6e2c000000000000000000000000000000000060398301527f6164647265737320766572696679696e67436f6e74726163740000000000000060488301527f29000000000000000000000000000000000000000000000000000000000000006061830152825160428184030181526062830180855281519183019190912060a28401855260089091527f5a4b5f41535345540000000000000000000000000000000000000000000000006082909301929092528251808401845260018082527f3100000000000000000000000000000000000000000000000000000000000000918301919091528351808301939093527f34a1782c7b6da6ed013d1c63b38e9a7204574db51f6df9ff13aa1786590013fd8385015260008051602062001c6e8339815191526060840152306080808501919091528451808503909101815260a0840180865281519190930120600090815581546001600160a01b038c81166001600160a01b03199283161793849055600280548d831693168317905560038b90557fa5468ca20000000000000000000000000000000000000000000000000000000090945260a485015260c4840189905287151560e48501528515156101048501529351949550169263a5468ca2926101248084019391929182900301818387803b1580156200050a57600080fd5b505af11580156200051f573d6000803e3d6000fd5b5050604080518681528415156020820152815186151594506001600160a01b03808a1694508a16927fca576e79bcb5c4a0045d9d596a80c733c3997559f688f69e5c03bd737d885b86928290030190a45050845162000589935060059250602086019150620005ab565b5080516200059f906006906020840190620005ab565b50505050505062000650565b828054600181600116156101000203166002900490600052602060002090601f016020900481019282601f10620005ee57805160ff19168380011785556200061e565b828001600101855582156200061e579182015b828111156200061e57825182559160200191906001019062000601565b506200062c92915062000630565b5090565b6200064d91905b808211156200062c576000815560010162000637565b90565b61160e80620006606000396000f3fe608060405234801561001057600080fd5b506004361061010a5760003560e01c80638e526d9b116100a2578063cdfea90e11610071578063cdfea90e146104ac578063df9246251461055c578063e306f77914610564578063ea12489f1461056c578063ed3437f8146105745761010a565b80638e526d9b1461034f57806395d89b4114610357578063969884981461035f578063a5c8fa84146104885761010a565b80631f2ac16a116100de5780631f2ac16a146102065780632e3b9a3b146102ca57806349518b281461033f5780638500e1f8146103475761010a565b80625bf7321461010f57806306fdde031461012f57806307616051146101ac5780630f4a80fe146101c6575b600080fd5b61011761057c565b6040805162ffffff9092168252519081900360200190f35b610137610583565b6040805160208082528351818301528351919283929083019185019080838360005b83811015610171578181015183820152602001610159565b50505050905090810190601f16801561019e5780820380516001836020036101000a031916815260200191505b509250505060405180910390f35b6101b4610611565b60408051918252519081900360200190f35b6101f2600480360360408110156101dc57600080fd5b50803590602001356001600160a01b0316610635565b604080519115158252519081900360200190f35b6102c86004803603608081101561021c57600080fd5b8135916001600160a01b0360208201351691604082013515159190810190608081016060820135600160201b81111561025457600080fd5b82018360208201111561026657600080fd5b803590602001918460018302840111600160201b8311171561028757600080fd5b91908080601f016020809104026020016040519081016040528093929190818152602001838380828437600092019190915250929550610655945050505050565b005b6102c8600480360360408110156102e057600080fd5b81359190810190604081016020820135600160201b81111561030157600080fd5b82018360208201111561031357600080fd5b803590602001918460018302840111600160201b8311171561033457600080fd5b50909250905061084a565b6101176108b0565b6101176108b7565b6101176108be565b6101376108c5565b6102c86004803603604081101561037557600080fd5b810190602081018135600160201b81111561038f57600080fd5b8201836020820111156103a157600080fd5b803590602001918460018302840111600160201b831117156103c257600080fd5b91908080601f0160208091040260200160405190810160405280939291908181526020018383808284376000920191909152509295949360208101935035915050600160201b81111561041457600080fd5b82018360208201111561042657600080fd5b803590602001918460018302840111600160201b8311171561044757600080fd5b91908080601f016020809104026020016040519081016040528093929190818152602001838380828437600092019190915250929550610920945050505050565b610490610a7f565b604080516001600160a01b039092168252519081900360200190f35b6102c8600480360360408110156104c257600080fd5b62ffffff8235169190810190604081016020820135600160201b8111156104e857600080fd5b8201836020820111156104fa57600080fd5b803590602001918460018302840111600160201b8311171561051b57600080fd5b91908080601f016020809104026020016040519081016040528093929190818152602001838380828437600092019190915250929550610a8e945050505050565b610117610cdb565b6101b4610ce2565b610490610ce8565b6101b4610cf7565b6201010181565b6005805460408051602060026001851615610100026000190190941693909304601f810184900484028201840190925281815292918301828280156106095780601f106105de57610100808354040283529160200191610609565b820191906000526020600020905b8154815290600101906020018083116105ec57829003601f168201915b505050505081565b7fcbc417524e52b95c42a4c42d357938497e3d199eb9b4a0139c92551d4000bc3c81565b600460209081526000928352604080842090915290825290205460ff1681565b60015460408051600160e11b637f6f71330281523060048201526024810187905290516000926001600160a01b03169163fedee266916044808301926080929190829003018186803b1580156106aa57600080fd5b505afa1580156106be573d6000803e3d6000fd5b505050506040513d60808110156106d457600080fd5b50519050600160ff82161461071d57604051600160e51b62461bcd0281526004018080602001828103825260228152602001806115466022913960400191505060405180910390fd5b604080517f4e6f74655369676e6174757265280000000000000000000000000000000000006020808301919091526001607a1b70189e5d195ccccc881b9bdd1952185cda0b02602e8301527f61646472657373207370656e6465722c00000000000000000000000000000000603f830152600160a81b6a626f6f6c2073746174757302604f830152600160f81b602902605a8301528251603b818403018152605b83018452805190820120607b830152609b82018890526001600160a01b03871660bb83015260ff841660db808401919091528351808403909101815260fb9092019092528051910120610812818785610cfd565b50505060009283526004602090815260408085206001600160a01b039490941685529290529120805460ff1916911515919091179055565b827f686a1d515e3b19b77653763162334277e2cfbaa5a2c89f3d15436c7c391edc77838360405180806020018281038252848482818152602001925080828437600083820152604051601f909101601f19169092018290039550909350505050a2505050565b6201040281565b6201040181565b6201020181565b6006805460408051602060026001851615610100026000190190941693909304601f810184900484028201840190925281815292918301828280156106095780601f106105de57610100808354040283529160200191610609565b600154604051600160e01b63a2866ea30281526201010160048201818152336024840181905260606044850181815288516064870152885191966001600160a01b03169563a2866ea395948a9390929160840190602085019080838360005b8381101561099757818101518382015260200161097f565b50505050905090810190601f1680156109c45780820380516001836020036101000a031916815260200191505b50945050505050600060405180830381600087803b1580156109e557600080fd5b505af11580156109f9573d6000803e3d6000fd5b505050506040513d6000823e601f3d908101601f191682016040526020811015610a2257600080fd5b810190808051600160201b811115610a3957600080fd5b82016020810184811115610a4c57600080fd5b8151600160201b811182820187101715610a6557600080fd5b50509291905050509050610a7a818385610e0a565b505050565b6001546001600160a01b031681565b606080600080610a9d8561116b565b93509350935093506000610ab085611195565b905060005b81811015610b46576000610ad7610ad2888463ffffffff61119c16565b6111f6565b50600081815260046020908152604080832033845290915290205490925060ff1615156001149050610b3d57604051600160e51b62461bcd0281526004018080602001828103825260318152602001806115906031913960400191505060405180910390fd5b50600101610ab5565b50600154604051600160e11b634bbbcb6902815262ffffff89166004820190815233604483018190526060602484019081528a5160648501528a516001600160a01b039095169463977796d2948d948d94939092909160840190602086019080838360005b83811015610bc3578181015183820152602001610bab565b50505050905090810190601f168015610bf05780820380516001836020036101000a031916815260200191505b50945050505050600060405180830381600087803b158015610c1157600080fd5b505af1158015610c25573d6000803e3d6000fd5b50505050610c3285611214565b610c3b846112f8565b6000821215610c8957826001600160a01b03167ffed3b27b73d78d9d1f344bbbf25f7af35e0ac4d6cf8193604ce18082168e461a836000036040518082815260200191505060405180910390a25b6000821315610cd2576040805183815290516001600160a01b038516917f60213c45c34d8b94e495fd5871fdea7a7511f659e884ea25a0c8843b7f98bfad919081900360200190a25b50505050505050565b6201030181565b60005481565b6002546001600160a01b031681565b60035481565b60015460408051600160e11b637f6f71330281523060048201526024810185905290516000926001600160a01b03169163fedee266916044808301926080929190829003018186803b158015610d5257600080fd5b505afa158015610d66573d6000803e3d6000fd5b505050506040513d6080811015610d7c57600080fd5b5060600151825190915060009015610dad576000610d99866113d8565b9050610da581856113f9565b915050610db0565b50335b816001600160a01b0316816001600160a01b031614610e0357604051600160e51b62461bcd0281526004018080602001828103825260288152602001806115686028913960400191505060405180910390fd5b5050505050565b604081015160005b610e1b85611195565b811015610e03576060610e34868363ffffffff61119c16565b600154604051600160e11b634bbbcb69028152620101016004820181815230604484018190526060602485019081528651606486015286519697506001600160a01b039095169563977796d2959394889492939291608490910190602086019080838360005b83811015610eb2578181015183820152602001610e9a565b50505050905090810190601f168015610edf5780820380516001836020036101000a031916815260200191505b50945050505050600060405180830381600087803b158015610f0057600080fd5b505af1158015610f14573d6000803e3d6000fd5b50505050606080600080610f278561116b565b93509350935093506000610f3a85611195565b11156110b25760005b610f4c85611195565b8110156110b0576060610f5f8b83611506565b90506000610f76610ad2888563ffffffff61119c16565b50604080517f4a6f696e53706c69745369676e617475726528000000000000000000000000006020808301919091527f75696e7432342070726f6f662c0000000000000000000000000000000000000060338301526001607a1b70189e5d195ccccc881b9bdd1952185cda0b02828401527f75696e74323536206368616c6c656e67652c000000000000000000000000000060518301527f616464726573732073656e6465720000000000000000000000000000000000006063830152600160f81b60290260718301528251605281840301815260728301845280519082012060928301526201010160b283015260d2820184905260f282018f9052336101128084019190915283518084039091018152610132909201909252805191012090925090506110a5818385610cfd565b505050600101610f43565b505b6110bb84611214565b6110c4836112f8565b600081121561111257816001600160a01b03167ffed3b27b73d78d9d1f344bbbf25f7af35e0ac4d6cf8193604ce18082168e461a826000036040518082815260200191505060405180910390a25b600081131561115b576040805182815290516001600160a01b038416917f60213c45c34d8b94e495fd5871fdea7a7511f659e884ea25a0c8843b7f98bfad919081900360200190a25b5050505050600181019050610e12565b60208101516040820151606083015160808401519284019491909301926001600160a01b03169190565b6020015190565b6020828101519082028301604001518301908210806111ef57604051600160e51b62461bcd0281526004018080602001828103825260228152602001806115c16022913960400191505060405180910390fd5b5092915050565b604081015160608201516001600160a01b0390911692909160800190565b60005b61122082611195565b8110156112f457600080606061123f610ad2868663ffffffff61119c16565b92509250925081836001600160a01b03167febd4bb7b61198df63305dd538f077db9df9b14339d8a6221e301487770d79227836040518080602001828103825283818151815260200191508051906020019080838360005b838110156112af578181015183820152602001611297565b50505050905090810190601f1680156112dc5780820380516001836020036101000a031916815260200191505b509250505060405180910390a3505050600101611217565b5050565b60005b61130482611195565b8110156112f4576000806060611323610ad2868663ffffffff61119c16565b92509250925081836001600160a01b03167f5ffb3072e4515cf3bfae8b16be9dff6313cf7c313a0c26faafe6971d8c7585f1836040518080602001828103825283818151815260200191508051906020019080838360005b8381101561139357818101518382015260200161137b565b50505050905090810190601f1680156113c05780820380516001836020036101000a031916815260200191505b509250505060405180910390a35050506001016112fb565b60008054604080516119019093526020919091529182526042601e20915290565b6000808251848452602084015160208560808760015afa601c8214601b8314176060841416169250845186146000811461143257611437565b855194505b5050835280801561144f57506001600160a01b038216155b6111ef576001600160a01b0382166114b15760408051600160e51b62461bcd02815260206004820152601a60248201527f7369676e657220616464726573732063616e6e6f742062652030000000000000604482015290519081900360640190fd5b806111ef5760408051600160e51b62461bcd02815260206004820152601960248201527f7369676e6174757265207265636f76657279206661696c656400000000000000604482015290519081900360640190fd5b6060908102919091016020818101516040808401519385015181519384019290925282810193909352818401528151808203909301835260800190529056fe6f6e6c7920756e7370656e74206e6f7465732063616e20626520617070726f766564746865206e6f7465206f776e657220646964206e6f74207369676e2074686973206d65737361676573656e64657220646f6573206e6f74206861766520617070726f76616c20746f207370656e6420696e707574206e6f7465415a54454320617272617920696e646578206973206f7574206f6620626f756e6473a165627a7a72305820c098259025ed5adc2e57b4d3a969e43f959d5380d07205e263382156e35c50b70029c89efdaa54c0f20c7adf612882df0950f5a951637e0307cdcb4c672f298b8bc6",
  "source": "pragma solidity >=0.5.0 <0.6.0;\n\nimport \"./base/ZkAssetBase.sol\";\n\n/**\n * @title ZkAssetDetailed implementation that inherits from ZkAsset\n * @author AZTEC \n * Copyright Spilsbury Holdings Ltd 2019. All rights reserved.\n **/\ncontract ZkAssetDetailed is ZkAssetBase {\n\n    string public name;\n    string public symbol;\n\n    constructor(\n        address _aceAddress,\n        address _linkedTokenAddress,\n        uint256 _scalingFactor,\n        string memory _name,\n        string memory _symbol\n    ) public ZkAssetBase(\n        _aceAddress,\n        _linkedTokenAddress,\n        _scalingFactor,\n        false // canAdjustSupply\n    ) {\n        name = _name;\n        symbol = _symbol;\n    }\n}\n",
  "sourcePath": "/Users/joeandrews/Documents/Code/AZTEC/packages/protocol/contracts/ERC1724/ZkAssetDetailed.sol",
  "compiler": {
    "name": "solc",
    "version": "0.5.7+commit.6da8b019.Emscripten.clang"
  },
  "schemaVersion": "3.0.11",
  "updatedAt": "2019-08-01T10:46:36.012Z",
  "devdoc": {
    "author": "AZTEC  Copyright Spilsbury Holdings Ltd 2019. All rights reserved.*",
    "methods": {
      "confidentialApprove(bytes32,address,bool,bytes)": {
        "details": "Note owner approving a third party, another address, to spend the note on owner's behalf. This is necessary to allow the confidentialTransferFrom() method to be called",
        "params": {
          "_noteHash": "- keccak256 hash of the note coordinates (gamma and sigma)",
          "_signature": "- ECDSA signature from the note owner that validates the confidentialApprove() instruction",
          "_spender": "- address being approved to spend the note",
          "_status": "- defines whether the _spender address is being approved to spend the note, or if permission is being revoked"
        }
      },
      "confidentialTransfer(bytes,bytes)": {
        "details": "Executes a basic unilateral, confidential transfer of AZTEC notes Will submit _proofData to the validateProof() function of the Cryptography Engine.    * Upon successfull verification, it will update note registry state - creating output notes and destroying input notes.",
        "params": {
          "_proofData": "- bytes variable outputted from a proof verification contract, representing transfer instructions for the ACE",
          "_signatures": "- array of the ECDSA signatures over all inputNotes "
        }
      },
      "confidentialTransferFrom(uint24,bytes)": {
        "details": "Executes a value transfer mediated by smart contracts. The method is supplied with transfer instructions represented by a bytes _proofOutput argument that was outputted from a proof verification contract.",
        "params": {
          "_proof": "- uint24 variable which acts as a unique identifier for the proof which _proofOutput is being submitted. _proof contains three concatenated uint8 variables: 1) epoch number 2) category number 3) ID number for the proof",
          "_proofOutput": "- output of a zero-knowledge proof validation contract. Represents transfer instructions for the ACE"
        }
      }
    },
    "title": "ZkAssetDetailed implementation that inherits from ZkAsset"
  },
  "userdoc": {
    "methods": {}
  }
}