{
  "contractName": "ZkAssetOwnableTest",
  "abi": [
    {
      "constant": true,
      "inputs": [],
      "name": "zkAssetOwnable",
      "outputs": [
        {
          "name": "",
          "type": "address"
        }
      ],
      "payable": false,
      "stateMutability": "view",
      "type": "function"
    },
    {
      "constant": false,
      "inputs": [
        {
          "name": "_zkAssetOwnableAddress",
          "type": "address"
        }
      ],
      "name": "setZkAssetOwnableAddress",
      "outputs": [],
      "payable": false,
      "stateMutability": "nonpayable",
      "type": "function"
    },
    {
      "constant": false,
      "inputs": [
        {
          "name": "_proof",
          "type": "uint24"
        },
        {
          "name": "_proofData",
          "type": "bytes"
        }
      ],
      "name": "callValidateProof",
      "outputs": [],
      "payable": false,
      "stateMutability": "nonpayable",
      "type": "function"
    },
    {
      "constant": false,
      "inputs": [
        {
          "name": "_proof",
          "type": "uint24"
        },
        {
          "name": "_proofOutput",
          "type": "bytes"
        }
      ],
      "name": "callConfidentialTransferFrom",
      "outputs": [],
      "payable": false,
      "stateMutability": "nonpayable",
      "type": "function"
    }
  ],
  "bytecode": "0x608060405234801561001057600080fd5b50610506806100206000396000f3fe608060405234801561001057600080fd5b506004361061004c5760003560e01c80630e3c6291146100515780634ae9711e146101055780634cd6460c1461012b578063f2e905d9146101dd575b600080fd5b6101036004803603604081101561006757600080fd5b62ffffff823516919081019060408101602082013564010000000081111561008e57600080fd5b8201836020820111156100a057600080fd5b803590602001918460018302840111640100000000831117156100c257600080fd5b91908080601f016020809104026020016040519081016040528093929190818152602001838380828437600092019190915250929550610201945050505050565b005b6101036004803603602081101561011b57600080fd5b50356001600160a01b03166103cc565b6101036004803603604081101561014157600080fd5b62ffffff823516919081019060408101602082013564010000000081111561016857600080fd5b82018360208201111561017a57600080fd5b8035906020019184600183028401116401000000008311171561019c57600080fd5b91908080601f0160208091040260200160405190810160405280939291908181526020018383808284376000920191909152509295506103ee945050505050565b6101e56104cb565b604080516001600160a01b039092168252519081900360200190f35b6000809054906101000a90046001600160a01b03166001600160a01b031663a5c8fa846040518163ffffffff1660e01b815260040160206040518083038186803b15801561024e57600080fd5b505afa158015610262573d6000803e3d6000fd5b505050506040513d602081101561027857600080fd5b5051604051600160e01b63a2866ea302815262ffffff84166004820190815233602483018190526060604484019081528551606485015285516001600160a01b039095169463a2866ea394889488939092909160840190602085019080838360005b838110156102f25781810151838201526020016102da565b50505050905090810190601f16801561031f5780820380516001836020036101000a031916815260200191505b50945050505050600060405180830381600087803b15801561034057600080fd5b505af1158015610354573d6000803e3d6000fd5b505050506040513d6000823e601f3d908101601f19168201604052602081101561037d57600080fd5b81019080805164010000000081111561039557600080fd5b820160208101848111156103a857600080fd5b81516401000000008111828201871017156103c257600080fd5b5050505050505050565b600080546001600160a01b0319166001600160a01b0392909216919091179055565b6000805460408051600160e11b6366ff548702815262ffffff861660048201908152602482019283528551604483015285516001600160a01b039094169463cdfea90e9488948894909260649091019160208601918190849084905b8381101561046257818101518382015260200161044a565b50505050905090810190601f16801561048f5780820380516001836020036101000a031916815260200191505b509350505050600060405180830381600087803b1580156104af57600080fd5b505af11580156104c3573d6000803e3d6000fd5b505050505050565b6000546001600160a01b03168156fea165627a7a723058208535b44cd96f54da03d078a05917ff19fd5e70343693e9e3cfe4122d02fdc7ca0029",
  "source": "pragma solidity >=0.5.0 <0.6.0;\n\nimport \"../../ERC1724/ZkAssetOwnable.sol\";\n\n/**\n * @title ZkAssetOwnableTest\n * @author AZTEC \n * @dev Used for testing purposes\n * Copyright Spilsbury Holdings Ltd 2019. All rights reserved.\n **/\ncontract ZkAssetOwnableTest {\n\n    ZkAssetOwnable public zkAssetOwnable;\n\n    function setZkAssetOwnableAddress(address _zkAssetOwnableAddress) public {\n        zkAssetOwnable = ZkAssetOwnable(_zkAssetOwnableAddress);\n    } \n\n    function callValidateProof(uint24 _proof, bytes memory _proofData) public {\n        zkAssetOwnable.ace().validateProof(_proof, msg.sender, _proofData);\n    }\n\n    function callConfidentialTransferFrom(uint24 _proof, bytes memory _proofOutput) public {\n        // throws if not approval had not been given before\n        zkAssetOwnable.confidentialTransferFrom(_proof, _proofOutput);\n    }\n}\n",
  "sourcePath": "/Users/joeandrews/Documents/Code/AZTEC/packages/protocol/contracts/test/ERC1724/ZkAssetOwnableTest.sol",
  "compiler": {
    "name": "solc",
    "version": "0.5.7+commit.6da8b019.Emscripten.clang"
  },
  "schemaVersion": "3.0.11",
  "updatedAt": "2019-08-01T10:46:36.062Z",
  "devdoc": {
    "author": "AZTEC ",
    "details": "Used for testing purposes Copyright Spilsbury Holdings Ltd 2019. All rights reserved.*",
    "methods": {},
    "title": "ZkAssetOwnableTest"
  },
  "userdoc": {
    "methods": {}
  }
}