{
  "contractName": "AztecStreamer",
  "abi": [
    {
      "inputs": [
        {
          "internalType": "address",
          "name": "_aceContractAddress",
          "type": "address"
        }
      ],
      "payable": false,
      "stateMutability": "nonpayable",
      "type": "constructor"
    },
    {
      "anonymous": false,
      "inputs": [
        {
          "indexed": true,
          "internalType": "uint256",
          "name": "streamId",
          "type": "uint256"
        },
        {
          "indexed": true,
          "internalType": "address",
          "name": "sender",
          "type": "address"
        },
        {
          "indexed": true,
          "internalType": "address",
          "name": "recipient",
          "type": "address"
        }
      ],
      "name": "CancelStream",
      "type": "event"
    },
    {
      "anonymous": false,
      "inputs": [
        {
          "indexed": true,
          "internalType": "uint256",
          "name": "streamId",
          "type": "uint256"
        },
        {
          "indexed": true,
          "internalType": "address",
          "name": "sender",
          "type": "address"
        },
        {
          "indexed": true,
          "internalType": "address",
          "name": "recipient",
          "type": "address"
        }
      ],
      "name": "CreateStream",
      "type": "event"
    },
    {
      "anonymous": false,
      "inputs": [
        {
          "indexed": true,
          "internalType": "uint256",
          "name": "streamId",
          "type": "uint256"
        },
        {
          "indexed": true,
          "internalType": "address",
          "name": "sender",
          "type": "address"
        },
        {
          "indexed": true,
          "internalType": "address",
          "name": "recipient",
          "type": "address"
        }
      ],
      "name": "WithdrawFromStream",
      "type": "event"
    },
    {
      "constant": false,
      "inputs": [],
      "name": "initialize",
      "outputs": [],
      "payable": false,
      "stateMutability": "nonpayable",
      "type": "function"
    },
    {
      "constant": true,
      "inputs": [],
      "name": "nextStreamId",
      "outputs": [
        {
          "internalType": "uint256",
          "name": "",
          "type": "uint256"
        }
      ],
      "payable": false,
      "stateMutability": "view",
      "type": "function"
    },
    {
      "constant": true,
      "inputs": [
        {
          "internalType": "uint256",
          "name": "streamId",
          "type": "uint256"
        }
      ],
      "name": "getStream",
      "outputs": [
        {
          "internalType": "address",
          "name": "sender",
          "type": "address"
        },
        {
          "internalType": "address",
          "name": "recipient",
          "type": "address"
        },
        {
          "internalType": "bytes32",
          "name": "currentBalance",
          "type": "bytes32"
        },
        {
          "internalType": "address",
          "name": "tokenAddress",
          "type": "address"
        },
        {
          "internalType": "uint256",
          "name": "startTime",
          "type": "uint256"
        },
        {
          "internalType": "uint256",
          "name": "lastWithdrawTime",
          "type": "uint256"
        },
        {
          "internalType": "uint256",
          "name": "stopTime",
          "type": "uint256"
        }
      ],
      "payable": false,
      "stateMutability": "view",
      "type": "function"
    },
    {
      "constant": false,
      "inputs": [
        {
          "internalType": "address",
          "name": "recipient",
          "type": "address"
        },
        {
          "internalType": "bytes32",
          "name": "notehash",
          "type": "bytes32"
        },
        {
          "internalType": "address",
          "name": "tokenAddress",
          "type": "address"
        },
        {
          "internalType": "uint256",
          "name": "startTime",
          "type": "uint256"
        },
        {
          "internalType": "uint256",
          "name": "stopTime",
          "type": "uint256"
        }
      ],
      "name": "createStream",
      "outputs": [
        {
          "internalType": "uint256",
          "name": "",
          "type": "uint256"
        }
      ],
      "payable": false,
      "stateMutability": "nonpayable",
      "type": "function"
    },
    {
      "constant": false,
      "inputs": [
        {
          "internalType": "uint256",
          "name": "streamId",
          "type": "uint256"
        },
        {
          "internalType": "bytes",
          "name": "_proof1",
          "type": "bytes"
        },
        {
          "internalType": "bytes",
          "name": "_proof2",
          "type": "bytes"
        },
        {
          "internalType": "uint256",
          "name": "_streamDurationToWithdraw",
          "type": "uint256"
        }
      ],
      "name": "withdrawFromStream",
      "outputs": [],
      "payable": false,
      "stateMutability": "nonpayable",
      "type": "function"
    },
    {
      "constant": false,
      "inputs": [
        {
          "internalType": "uint256",
          "name": "streamId",
          "type": "uint256"
        },
        {
          "internalType": "bytes",
          "name": "_proof1",
          "type": "bytes"
        },
        {
          "internalType": "bytes",
          "name": "_proof2",
          "type": "bytes"
        },
        {
          "internalType": "uint256",
          "name": "_unclaimedTime",
          "type": "uint256"
        }
      ],
      "name": "cancelStream",
      "outputs": [
        {
          "internalType": "bool",
          "name": "",
          "type": "bool"
        }
      ],
      "payable": false,
      "stateMutability": "nonpayable",
      "type": "function"
    }
  ],
  "bytecode": "0x608060405234801561001057600080fd5b506040516117073803806117078339818101604052602081101561003357600080fd5b5051606680546001600160a01b0319166001600160a01b03909216919091179055600160675561169f806100686000396000f3fe608060405234801561001057600080fd5b50600436106100625760003560e01c80631468a5d4146100675780631e99d5691461019b5780633bc9e403146101b55780638129fc1c1461028e578063894e9a0d14610296578063911ab96c146102fd575b600080fd5b6101996004803603608081101561007d57600080fd5b81359190810190604081016020820135600160201b81111561009e57600080fd5b8201836020820111156100b057600080fd5b803590602001918460018302840111600160201b831117156100d157600080fd5b91908080601f0160208091040260200160405190810160405280939291908181526020018383808284376000920191909152509295949360208101935035915050600160201b81111561012357600080fd5b82018360208201111561013557600080fd5b803590602001918460018302840111600160201b8311171561015657600080fd5b91908080601f016020809104026020016040519081016040528093929190818152602001838380828437600092019190915250929550509135925061033d915050565b005b6101a3610667565b60408051918252519081900360200190f35b61027a600480360360808110156101cb57600080fd5b81359190810190604081016020820135600160201b8111156101ec57600080fd5b8201836020820111156101fe57600080fd5b803590602001918460018302840111600160201b8311171561021f57600080fd5b919390929091602081019035600160201b81111561023c57600080fd5b82018360208201111561024e57600080fd5b803590602001918460018302840111600160201b8311171561026f57600080fd5b91935091503561066d565b604080519115158252519081900360200190f35b610199610adc565b6102b3600480360360208110156102ac57600080fd5b5035610b83565b604080516001600160a01b039889168152968816602088015286810195909552929095166060850152608084015260a083019390935260c082019290925290519081900360e00190f35b6101a3600480360360a081101561031357600080fd5b506001600160a01b0381358116916020810135916040820135169060608101359060800135610c4b565b6000848152606860205260409020600701548490600160a01b900460ff166103a4576040805162461bcd60e51b81526020600482015260156024820152741cdd1c99585b48191bd95cc81b9bdd08195e1a5cdd605a1b604482015290519081900360640190fd5b60008581526068602052604090206005015485906001600160a01b03163314806103e757506000818152606860205260409020600401546001600160a01b031633145b6104225760405162461bcd60e51b81526004018080602001828103825260378152602001806115f06037913960400191505060405180910390fd5b600086815260686020526040902060028101544290610447908663ffffffff610f3e16565b10610499576040805162461bcd60e51b815260206004820181905260248201527f77697468647261772069732067726561746572207468616e20616c6c6f776564604482015290519081900360640190fd5b60606104a6878684610fa1565b915050600073__StreamUtilities_______________________63772920118884866040518463ffffffff1660e01b8152600401808060200180602001848152602001838103835286818151815260200191508051906020019080838360005b8381101561051e578181015183820152602001610506565b50505050905090810190601f16801561054b5780820380516001836020036101000a031916815260200191505b50838103825285518152855160209182019187019080838360005b8381101561057e578181015183820152602001610566565b50505050905090810190601f1680156105ab5780820380516001836020036101000a031916815260200191505b509550505050505060206040518083038186803b1580156105cb57600080fd5b505af41580156105df573d6000803e3d6000fd5b505050506040513d60208110156105f557600080fd5b50518084556002840154909150610612908763ffffffff610f3e16565b6002840155600483015460058401546040516001600160a01b0392831692909116908b907fc80a407d3ac16eb5ab3019023f0d7e6369c4077feb4592c944cc6c5d9f06090390600090a4505050505050505050565b60675481565b60338054600101908190556000878152606860205260408120600701549091908890600160a01b900460ff166106e2576040805162461bcd60e51b81526020600482015260156024820152741cdd1c99585b48191bd95cc81b9bdd08195e1a5cdd605a1b604482015290519081900360640190fd5b60008981526068602052604090206005015489906001600160a01b031633148061072557506000818152606860205260409020600401546001600160a01b031633145b6107605760405162461bcd60e51b81526004018080602001828103825260378152602001806115f06037913960400191505060405180910390fd5b60008a815260686020526040902060058101546001600160a01b03163314156107f1576002810154429061079a908863ffffffff610f3e16565b116107ec576040805162461bcd60e51b815260206004820181905260248201527f77697468647261772069732067726561746572207468616e20616c6c6f776564604482015290519081900360640190fd5b61086f565b60048101546001600160a01b031633141561086f576002810154429061081d908863ffffffff610f3e16565b1061086f576040805162461bcd60e51b815260206004820181905260248201527f77697468647261772069732067726561746572207468616e20616c6c6f776564604482015290519081900360640190fd5b60606108b48b8b8080601f0160208091040260200160405190810160405280939291908181526020018383808284376000920191909152508b9250869150610fa19050565b91505073__StreamUtilities_______________________62076d938a8a84866040518563ffffffff1660e01b815260040180806020018060200184815260200183810383528787828181526020019250808284376000838201819052601f909101601f191690920185810384528751815287516020918201939189019250908190849084905b8381101561095357818101518382015260200161093b565b50505050905090810190601f1680156109805780820380516001836020036101000a031916815260200191505b50965050505050505060206040518083038186803b1580156109a157600080fd5b505af41580156109b5573d6000803e3d6000fd5b505050506040513d60208110156109cb57600080fd5b505060008c815260686020526040808220828155600181018390556002810183905560038101839055600480820180546001600160a01b03199081169091556005808401805483169055600684018054909216909155600790920180546001600160a81b03191690558501549085015491516001600160a01b039182169391909216918f917f099dc08e0e998e9349c8dfa294fd4192030d1573296b8a71d48ab00fe9dcddb391a460019550505050506033548114610ad1576040805162461bcd60e51b815260206004820152601f60248201527f5265656e7472616e637947756172643a207265656e7472616e742063616c6c00604482015290519081900360640190fd5b509695505050505050565b600054610100900460ff1680610af55750610af5611271565b80610b03575060005460ff16155b610b3e5760405162461bcd60e51b815260040180806020018281038252602e8152602001806115c2602e913960400191505060405180910390fd5b600054610100900460ff16158015610b69576000805460ff1961ff0019909116610100171660011790555b60016033558015610b80576000805461ff00191690555b50565b6000818152606860205260408120600701548190819081908190819081908890600160a01b900460ff16610bf6576040805162461bcd60e51b81526020600482015260156024820152741cdd1c99585b48191bd95cc81b9bdd08195e1a5cdd605a1b604482015290519081900360640190fd5b505050600095865250506068602052505060409091206005810154600482015482546006840154600185015460028601546003909601546001600160a01b039586169894861697509295919094169392909190565b60006001600160a01b038616610ca8576040805162461bcd60e51b815260206004820152601a60248201527f73747265616d20746f20746865207a65726f2061646472657373000000000000604482015290519081900360640190fd5b6001600160a01b038616301415610d06576040805162461bcd60e51b815260206004820152601d60248201527f73747265616d20746f2074686520636f6e747261637420697473656c66000000604482015290519081900360640190fd5b6001600160a01b038616331415610d5b576040805162461bcd60e51b815260206004820152601460248201527339ba3932b0b6903a37903a34329031b0b63632b960611b604482015290519081900360640190fd5b42831015610d9a5760405162461bcd60e51b81526004018080602001828103825260218152602001806115806021913960400191505060405180910390fd5b828211610dee576040805162461bcd60e51b815260206004820152601f60248201527f73746f702074696d65206265666f7265207468652073746172742074696d6500604482015290519081900360640190fd5b6067805460408051610120810182528881526020808201888152828401898152606084018981526001600160a01b03808f16608087019081523360a088019081528e831660c08901908152606654841660e08a0190815260016101008b0181815260008e81526068909b529b90992099518a559651898901559451600289015592516003880155516004870180549183166001600160a01b03199283161790559151600587018054918316918416919091179055915160068601805491841691831691909117905591516007909401805495511515600160a01b0260ff60a01b199590921695909216949094179290921692909217905591549091610ef9919063ffffffff610f3e16565b6067556040516001600160a01b03881690339083907f68a5883e3686277c8724695c2d771dd51b6d63edb4cf28a1c8378db5f3130d3390600090a49695505050505050565b600082820183811015610f98576040805162461bcd60e51b815260206004820152601b60248201527f536166654d6174683a206164646974696f6e206f766572666c6f770000000000604482015290519081900360640190fd5b90505b92915050565b6060806000610fc18460020154856003015461127790919063ffffffff16565b9050610fe781610fdb87633b9aca0063ffffffff6112b916565b9063ffffffff61131216565b610ff087611354565b14611038576040805162461bcd60e51b81526020600482015260136024820152720e4c2e8d2dee640c8de40dcdee840dac2e8c6d606b1b604482015290519081900360640190fd5b600784015460405163a2866ea360e01b8152620104016004820181815230602484018190526060604485018181528c5160648701528c5191966001600160a01b03169563a2866ea395948e9390929160840190602085019080838360005b838110156110ae578181015183820152602001611096565b50505050905090810190601f1680156110db5780820380516001836020036101000a031916815260200191505b50945050505050600060405180830381600087803b1580156110fc57600080fd5b505af1158015611110573d6000803e3d6000fd5b505050506040513d6000823e601f3d908101601f19168201604052602081101561113957600080fd5b8101908080516040519392919084600160201b82111561115857600080fd5b90830190602082018581111561116d57600080fd5b8251600160201b81118282018810171561118657600080fd5b82525081516020918201929091019080838360005b838110156111b357818101518382015260200161119b565b50505050905090810190601f1680156111e05780820380516001836020036101000a031916815260200191505b50604052505050905061120561120060008361138290919063ffffffff16565b6113d9565b50508654919550935061122761122286600063ffffffff61138216565b611403565b60200151146112675760405162461bcd60e51b81526004018080602001828103825260228152602001806116276022913960400191505060405180910390fd5b5050935093915050565b303b1590565b6000610f9883836040518060400160405280601e81526020017f536166654d6174683a207375627472616374696f6e206f766572666c6f770000815250611446565b6000826112c857506000610f9b565b828202828482816112d557fe5b0414610f985760405162461bcd60e51b81526004018080602001828103825260218152602001806115a16021913960400191505060405180910390fd5b6000610f9883836040518060400160405280601a81526020017f536166654d6174683a206469766973696f6e206279207a65726f0000000000008152506114dd565b604081015160608201516000919061137a81610fdb84633b9aca0063ffffffff6112b916565b949350505050565b6020828101519082028301604001518301908210806113d25760405162461bcd60e51b81526004018080602001828103825260228152602001806116496022913960400191505060405180910390fd5b5092915050565b60208101516040820151606083015160808401519284019491909301926001600160a01b03169190565b61140b611560565b600080606061141985611542565b604080516060810182526001600160a01b0390941684526020840192909252908201529350505050919050565b600081848411156114d55760405162461bcd60e51b81526004018080602001828103825283818151815260200191508051906020019080838360005b8381101561149a578181015183820152602001611482565b50505050905090810190601f1680156114c75780820380516001836020036101000a031916815260200191505b509250505060405180910390fd5b505050900390565b6000818361152c5760405162461bcd60e51b815260206004820181815283516024840152835190928392604490910191908501908083836000831561149a578181015183820152602001611482565b50600083858161153857fe5b0495945050505050565b604081015160608201516001600160a01b0390911692909160800190565b604080516060808201835260008083526020830152918101919091529056fe73746172742074696d65206265666f726520626c6f636b2e74696d657374616d70536166654d6174683a206d756c7469706c69636174696f6e206f766572666c6f77436f6e747261637420696e7374616e63652068617320616c7265616479206265656e20696e697469616c697a656463616c6c6572206973206e6f74207468652073656e646572206f722074686520726563697069656e74206f66207468652073747265616d696e636f7272656374206e6f74696f6e616c206e6f746520696e2070726f6f662031415a54454320617272617920696e646578206973206f7574206f6620626f756e6473a265627a7a7231582016e5dee477e9328d283322b8a3402d5a1ccbd53db86d2cc3f8778bc0d8a4f34a64736f6c63430005100032",
  "source": "pragma solidity ^0.5.11;\n\nimport \"@openzeppelin/contracts-ethereum-package/contracts/utils/ReentrancyGuard.sol\";\n\nimport \"./StreamUtilities.sol\";\n\nimport \"./Types.sol\";\n\n/**\n * @title Quachtli's Money Streaming\n * @author Quachtli\n */\ncontract AztecStreamer is ReentrancyGuard {\n    using SafeMath for uint256;\n\n    /*** Storage Properties ***/\n\n    address aceContractAddress;\n\n    /**\n     * @notice Counter for new stream ids.\n     */\n    uint256 public nextStreamId;\n\n    /**\n     * @notice The stream objects identifiable by their unsigned integer ids.\n     */\n    mapping(uint256 => Types.AztecStream) private streams;\n\n    /*** Events ***/\n    \n    event CreateStream(uint256 indexed streamId, address indexed sender, address indexed recipient);\n\n    event WithdrawFromStream(uint256 indexed streamId, address indexed sender, address indexed recipient);\n\n    event CancelStream(uint256 indexed streamId, address indexed sender, address indexed recipient);\n\n\n    /*** Modifiers ***/\n\n    /**\n     * @dev Throws if the caller is not the sender of the recipient of the stream.\n     */\n    modifier onlySenderOrRecipient(uint256 streamId) {\n        require(\n            msg.sender == streams[streamId].sender || msg.sender == streams[streamId].recipient,\n            \"caller is not the sender or the recipient of the stream\"\n        );\n        _;\n    }\n\n    /**\n     * @dev Throws if the provided id does not point to a valid stream.\n     */\n    modifier streamExists(uint256 streamId) {\n        require(streams[streamId].isEntity, \"stream does not exist\");\n        _;\n    }\n\n    /*** Contract Logic Starts Here */\n\n    constructor(address _aceContractAddress) public {        \n        aceContractAddress = _aceContractAddress;\n        nextStreamId = 1;\n    }\n\n    /*** View Functions ***/\n\n    /**\n     * @notice Returns the compounding stream with all its properties.\n     * @dev Throws if the id does not point to a valid stream.\n     * @param streamId The id of the stream to query.\n     * @return The stream object.\n     */\n    function getStream(uint256 streamId)\n        external\n        view\n        streamExists(streamId)\n        returns (\n            address sender,\n            address recipient,\n            bytes32 currentBalance,\n            address tokenAddress,\n            uint256 startTime,\n            uint256 lastWithdrawTime,\n            uint256 stopTime\n        )\n    {\n        sender = streams[streamId].sender;\n        recipient = streams[streamId].recipient;\n        currentBalance = streams[streamId].currentBalance;\n        tokenAddress = address(streams[streamId].tokenAddress);\n        startTime = streams[streamId].startTime;\n        lastWithdrawTime = streams[streamId].lastWithdrawTime;\n        stopTime = streams[streamId].stopTime;\n    }\n\n    /*** Public Effects & Interactions Functions ***/\n\n    /**\n     * @notice Creates a new stream funded by `msg.sender` and paid towards `recipient`.\n     * @dev Throws if paused.\n     *  Throws if the recipient is the zero address, the contract itself or the caller.\n     *  Throws if the start time is before `block.timestamp`.\n     *  Throws if the stop time is before the start time.\n     *  Throws if the duration calculation has a math error.\n     *  Throws if the next stream id calculation has a math error.\n     *  Throws if the contract is not allowed to transfer enough tokens.\n     *  Throws if there is a token transfer failure.\n     * @param recipient The address towards which the money is streamed.\n     * @param notehash The note of a zkAsset to be streamed.\n     * @param tokenAddress The zkAsset to use as streaming currency.\n     * @param startTime The unix timestamp for when the stream starts.\n     * @param stopTime The unix timestamp for when the stream stops.\n     * @return The uint256 id of the newly created stream.\n     */\n    function createStream(address recipient, bytes32 notehash, address tokenAddress, uint256 startTime, uint256 stopTime)\n        public\n        returns (uint256)\n    {\n        require(recipient != address(0x00), \"stream to the zero address\");\n        require(recipient != address(this), \"stream to the contract itself\");\n        require(recipient != msg.sender, \"stream to the caller\");\n        require(startTime >= block.timestamp, \"start time before block.timestamp\");\n        require(stopTime > startTime, \"stop time before the start time\");\n\n\n        /* Create and store the stream object. */\n        uint256 streamId = nextStreamId;\n        streams[streamId] = Types.AztecStream({\n            currentBalance: notehash,\n            sender: msg.sender,\n            recipient: recipient,\n            startTime: startTime,\n            stopTime: stopTime,\n            lastWithdrawTime: startTime,\n            tokenAddress: tokenAddress,\n            aceContractAddress: aceContractAddress,\n            isEntity: true\n        });\n        \n        /* Increment the next stream id. */\n        nextStreamId = nextStreamId.add(1);\n        \n        emit CreateStream(streamId, msg.sender, recipient);\n\n        return streamId;\n    }\n\n    function withdrawFromStream(\n        uint256 streamId,\n        bytes memory _proof1,  // Dividend Proof\n        bytes memory _proof2, // Join-Split Proof\n        uint256 _streamDurationToWithdraw\n      ) public streamExists(streamId) onlySenderOrRecipient(streamId) {\n        \n        Types.AztecStream storage stream = streams[streamId];\n        \n        // First check that fraction to withdraw isn't greater than fraction of time passed\n        require(stream.lastWithdrawTime.add(_streamDurationToWithdraw) < block.timestamp, 'withdraw is greater than allowed');\n\n        // Check that value of withdrawal matches the fraction given by the above timestamp\n        (,bytes memory _proof1OutputNotes) = StreamUtilities._validateRatioProof(_proof1, _streamDurationToWithdraw, stream);\n\n        // Check that withdrawal transaction is valid and perform transfer\n        // i.e. change note remains on contract, sender and recipient have view access, etc.\n        bytes32 newCurrentBalanceNoteHash = StreamUtilities._processWithdrawal(_proof2, _proof1OutputNotes, stream);\n\n        // Update stream information\n        stream.currentBalance = newCurrentBalanceNoteHash;\n        stream.lastWithdrawTime = stream.lastWithdrawTime.add(_streamDurationToWithdraw);\n\n        emit WithdrawFromStream(streamId, stream.sender, stream.recipient);\n      }\n\n    /**\n     * @notice Cancels the stream and transfers the tokens back on a pro rata basis.\n     * @dev Throws if the id does not point to a valid stream.\n     *  Throws if the caller is not the sender or the recipient of the stream.\n     *  Throws if there is a token transfer failure.\n     * @param streamId The id of the stream to cancel.\n     * @param _proof1 The Dividend proof where the first output note goes to the stream recipient\n     * @param _proof2 The Join-Split proof where the first output note goes to the stream recipient\n     * @param _unclaimedTime The amount of time corresponding to the value being sent to the recipient\n     * @return bool true=success, otherwise false.\n     */\n    function cancelStream(\n        uint256 streamId,\n        bytes calldata _proof1, // Dividend Proof\n        bytes calldata _proof2, // Join-Split Proof\n        uint256 _unclaimedTime\n        )\n        external\n        nonReentrant\n        streamExists(streamId)\n        onlySenderOrRecipient(streamId)\n        returns (bool)\n    {\n        Types.AztecStream storage stream = streams[streamId];\n\n\n        // First check that cancelling party isn't trying to scam the other party\n        // Sender can only cancel from a timestamp which hasn't already passed\n        // Recipient can only cancel from a timestamp which has already passed\n        // This ensures that the cancellation timestamp will be as close to the true time as possible.\n        if (msg.sender == stream.sender){\n            require(stream.lastWithdrawTime.add(_unclaimedTime) > block.timestamp, 'withdraw is greater than allowed');\n        } else if (msg.sender == stream.recipient){\n            require(stream.lastWithdrawTime.add(_unclaimedTime) < block.timestamp, 'withdraw is greater than allowed'); \n        } \n\n        // Check that value of withdrawal matches the fraction given by the above timestamp\n        (,bytes memory _proof1OutputNotes) = StreamUtilities._validateRatioProof(_proof1, _unclaimedTime, stream);\n\n        // Check that cancellation transaction is valid and perform transfer\n        // i.e. Each party receives a note of correct value\n        StreamUtilities._processCancelation(_proof2, _proof1OutputNotes, stream);\n\n        delete streams[streamId];\n        emit CancelStream(streamId, stream.sender, stream.recipient);\n        return true;\n    }\n}",
  "sourcePath": "/home/tom/Programming/my-eth-app/packages/contracts/contracts/AztecStreamer.sol",
  "compiler": {
    "name": "solc",
    "version": "0.5.16+commit.9c3226ce.Emscripten.clang"
  },
  "schemaVersion": "3.0.23",
  "updatedAt": "2020-03-16T22:04:58.261Z",
  "devdoc": {
    "author": "Quachtli",
    "methods": {
      "cancelStream(uint256,bytes,bytes,uint256)": {
        "details": "Throws if the id does not point to a valid stream. Throws if the caller is not the sender or the recipient of the stream. Throws if there is a token transfer failure.",
        "params": {
          "_proof1": "The Dividend proof where the first output note goes to the stream recipient",
          "_proof2": "The Join-Split proof where the first output note goes to the stream recipient",
          "_unclaimedTime": "The amount of time corresponding to the value being sent to the recipient",
          "streamId": "The id of the stream to cancel."
        },
        "return": "bool true=success, otherwise false."
      },
      "createStream(address,bytes32,address,uint256,uint256)": {
        "details": "Throws if paused. Throws if the recipient is the zero address, the contract itself or the caller. Throws if the start time is before `block.timestamp`. Throws if the stop time is before the start time. Throws if the duration calculation has a math error. Throws if the next stream id calculation has a math error. Throws if the contract is not allowed to transfer enough tokens. Throws if there is a token transfer failure.",
        "params": {
          "notehash": "The note of a zkAsset to be streamed.",
          "recipient": "The address towards which the money is streamed.",
          "startTime": "The unix timestamp for when the stream starts.",
          "stopTime": "The unix timestamp for when the stream stops.",
          "tokenAddress": "The zkAsset to use as streaming currency."
        },
        "return": "The uint256 id of the newly created stream."
      },
      "getStream(uint256)": {
        "details": "Throws if the id does not point to a valid stream.",
        "params": {
          "streamId": "The id of the stream to query."
        },
        "return": "The stream object."
      }
    },
    "title": "Quachtli's Money Streaming"
  },
  "userdoc": {
    "methods": {
      "cancelStream(uint256,bytes,bytes,uint256)": {
        "notice": "Cancels the stream and transfers the tokens back on a pro rata basis."
      },
      "constructor": "* Contract Logic Starts Here ",
      "createStream(address,bytes32,address,uint256,uint256)": {
        "notice": "Creates a new stream funded by `msg.sender` and paid towards `recipient`."
      },
      "getStream(uint256)": {
        "notice": "Returns the compounding stream with all its properties."
      }
    }
  }
}